{
  "_format": "hh-sol-artifact-1",
  "contractName": "CanonicalTransactionChain",
  "sourceName": "src/contracts/CanonicalTransactionChain.sol",
  "abi": [
    {
      "anonymous": false,
      "inputs": [
        {
          "indexed": true,
          "internalType": "uint256",
          "name": "batchIndex",
          "type": "uint256"
        },
        {
          "indexed": true,
          "internalType": "uint256",
          "name": "startIndex",
          "type": "uint256"
        },
        {
          "indexed": true,
          "internalType": "uint256",
          "name": "endIndex",
          "type": "uint256"
        }
      ],
      "name": "TransactionBatchAppended",
      "type": "event"
    },
    {
      "anonymous": false,
      "inputs": [
        {
          "indexed": true,
          "internalType": "bytes32",
          "name": "transactionHash",
          "type": "bytes32"
        },
        {
          "indexed": true,
          "internalType": "uint256",
          "name": "timestamp",
          "type": "uint256"
        }
      ],
      "name": "TransactionEnqueued",
      "type": "event"
    },
    {
      "inputs": [
        {
          "internalType": "bytes[]",
          "name": "_transactions",
          "type": "bytes[]"
        }
      ],
      "name": "appendTransactionBatch",
      "outputs": [],
      "stateMutability": "nonpayable",
      "type": "function"
    },
    {
      "inputs": [
        {
          "internalType": "uint256",
          "name": "",
          "type": "uint256"
        }
      ],
      "name": "batches",
      "outputs": [
        {
          "internalType": "uint256",
          "name": "startTransactionIndex",
          "type": "uint256"
        },
        {
          "internalType": "uint256",
          "name": "endTransactionIndex",
          "type": "uint256"
        }
      ],
      "stateMutability": "view",
      "type": "function"
    },
    {
      "inputs": [
        {
          "internalType": "bytes32",
          "name": "_transactionHash",
          "type": "bytes32"
        }
      ],
      "name": "enqueue",
      "outputs": [],
      "stateMutability": "nonpayable",
      "type": "function"
    },
    {
      "inputs": [
        {
          "internalType": "uint256",
          "name": "batchIndex",
          "type": "uint256"
        }
      ],
      "name": "getBatchTransactionCount",
      "outputs": [
        {
          "internalType": "uint256",
          "name": "",
          "type": "uint256"
        }
      ],
      "stateMutability": "view",
      "type": "function"
    },
    {
      "inputs": [
        {
          "internalType": "uint256",
          "name": "_index",
          "type": "uint256"
        }
      ],
      "name": "getQueueElement",
      "outputs": [
        {
          "internalType": "bytes32",
          "name": "",
          "type": "bytes32"
        },
        {
          "internalType": "uint256",
          "name": "",
          "type": "uint256"
        }
      ],
      "stateMutability": "view",
      "type": "function"
    },
    {
      "inputs": [],
      "name": "getQueueLength",
      "outputs": [
        {
          "internalType": "uint256",
          "name": "",
          "type": "uint256"
        }
      ],
      "stateMutability": "view",
      "type": "function"
    },
    {
      "inputs": [
        {
          "internalType": "uint256",
          "name": "batchIndex",
          "type": "uint256"
        },
        {
          "internalType": "uint256",
          "name": "_index",
          "type": "uint256"
        }
      ],
      "name": "getTransaction",
      "outputs": [
        {
          "internalType": "bytes",
          "name": "",
          "type": "bytes"
        }
      ],
      "stateMutability": "view",
      "type": "function"
    },
    {
      "inputs": [],
      "name": "nextBatchIndex",
      "outputs": [
        {
          "internalType": "uint256",
          "name": "",
          "type": "uint256"
        }
      ],
      "stateMutability": "view",
      "type": "function"
    },
    {
      "inputs": [],
      "name": "nextQueueIndex",
      "outputs": [
        {
          "internalType": "uint256",
          "name": "",
          "type": "uint256"
        }
      ],
      "stateMutability": "view",
      "type": "function"
    },
    {
      "inputs": [],
      "name": "nextTransactionIndex",
      "outputs": [
        {
          "internalType": "uint256",
          "name": "",
          "type": "uint256"
        }
      ],
      "stateMutability": "view",
      "type": "function"
    },
    {
      "inputs": [
        {
          "internalType": "uint256",
          "name": "",
          "type": "uint256"
        }
      ],
      "name": "queue",
      "outputs": [
        {
          "internalType": "bytes32",
          "name": "transactionHash",
          "type": "bytes32"
        },
        {
          "internalType": "uint256",
          "name": "timestamp",
          "type": "uint256"
        }
      ],
      "stateMutability": "view",
      "type": "function"
    },
    {
      "inputs": [
        {
          "internalType": "uint256",
          "name": "",
          "type": "uint256"
        }
      ],
      "name": "transactions",
      "outputs": [
        {
          "internalType": "bytes",
          "name": "",
          "type": "bytes"
        }
      ],
      "stateMutability": "view",
      "type": "function"
    }
  ],
  "bytecode": "0x608060405234801561001057600080fd5b5061120a806100206000396000f3fe608060405234801561001057600080fd5b50600436106100b45760003560e01c80639dc08133116100715780639dc08133146101b6578063b32c4d8d146101d4578063b4de3e2314610205578063b8f7700514610221578063c8c770421461023f578063ddf0b0091461025b576100b4565b806310f35171146100b9578063191c24ee146100e95780632a7f18be146101075780637303f6ce146101385780637e4fa700146101685780639ace38c214610186575b600080fd5b6100d360048036038101906100ce9190610822565b61028c565b6040516100e0919061085e565b60405180910390f35b6100f1610311565b6040516100fe919061085e565b60405180910390f35b610121600480360381019061011c9190610822565b610317565b60405161012f929190610892565b60405180910390f35b610152600480360381019061014d91906108bb565b6103b9565b60405161015f919061098b565b60405180910390f35b610170610517565b60405161017d919061085e565b60405180910390f35b6101a0600480360381019061019b9190610822565b61051d565b6040516101ad919061098b565b60405180910390f35b6101be6105bd565b6040516101cb919061085e565b60405180910390f35b6101ee60048036038101906101e99190610822565b6105c3565b6040516101fc9291906109ad565b60405180910390f35b61021f600480360381019061021a9190610a02565b6105e7565b005b61022961066e565b604051610236919061085e565b60405180910390f35b61025960048036038101906102549190610c4a565b61067a565b005b61027560048036038101906102709190610822565b6107a4565b604051610283929190610892565b60405180910390f35b600060055482106102d2576040517f08c379a00000000000000000000000000000000000000000000000000000000081526004016102c990610cf0565b60405180910390fd5b60006002600084815260200190815260200160002090506001816000015482600101546102ff9190610d3f565b6103099190610d73565b915050919050565b60035481565b6000806000805490508310610361576040517f08c379a000000000000000000000000000000000000000000000000000000000815260040161035890610df3565b60405180910390fd5b600080848154811061037657610375610e13565b5b9060005260206000209060020201604051806040016040529081600082015481526020016001820154815250509050806000015181602001519250925050915091565b606060055483106103ff576040517f08c379a00000000000000000000000000000000000000000000000000000000081526004016103f690610cf0565b60405180910390fd5b600060026000858152602001908152602001600020905060008382600001546104289190610d73565b90508160010154811115610471576040517f08c379a000000000000000000000000000000000000000000000000000000000815260040161046890610e8e565b60405180910390fd5b60016000828152602001908152602001600020805461048f90610edd565b80601f01602080910402602001604051908101604052809291908181526020018280546104bb90610edd565b80156105085780601f106104dd57610100808354040283529160200191610508565b820191906000526020600020905b8154815290600101906020018083116104eb57829003601f168201915b50505050509250505092915050565b60055481565b6001602052806000526040600020600091509050805461053c90610edd565b80601f016020809104026020016040519081016040528092919081815260200182805461056890610edd565b80156105b55780601f1061058a576101008083540402835291602001916105b5565b820191906000526020600020905b81548152906001019060200180831161059857829003601f168201915b505050505081565b60045481565b60026020528060005260406000206000915090508060000154908060010154905082565b600060405180604001604052808381526020014281525090806001815401808255809150506001900390600052602060002090600202016000909190919091506000820151816000015560208201518160010155505042817fc1c5a99ff8d1746f60e38b3377af0b54fad176a1eda6f4c9ce93bf99376a682f60405160405180910390a350565b60008080549050905090565b6000600454905060005b82518110156106f5578281815181106106a05761069f610e13565b5b602002602001015160016000600454815260200190815260200160002090816106c991906110ba565b50600460008154809291906106dd9061118c565b919050555080806106ed9061118c565b915050610684565b50600060016004546107079190610d3f565b905060405180604001604052808381526020018281525060026000600554815260200190815260200160002060008201518160000155602082015181600101559050506005600081548092919061075d9061118c565b9190505550808260016005546107739190610d3f565b7f313248be623eea380774f003c5e4baac712d8cfbec7337542446c2383639c46c60405160405180910390a4505050565b600081815481106107b457600080fd5b90600052602060002090600202016000915090508060000154908060010154905082565b6000604051905090565b600080fd5b600080fd5b6000819050919050565b6107ff816107ec565b811461080a57600080fd5b50565b60008135905061081c816107f6565b92915050565b600060208284031215610838576108376107e2565b5b60006108468482850161080d565b91505092915050565b610858816107ec565b82525050565b6000602082019050610873600083018461084f565b92915050565b6000819050919050565b61088c81610879565b82525050565b60006040820190506108a76000830185610883565b6108b4602083018461084f565b9392505050565b600080604083850312156108d2576108d16107e2565b5b60006108e08582860161080d565b92505060206108f18582860161080d565b9150509250929050565b600081519050919050565b600082825260208201905092915050565b60005b8381101561093557808201518184015260208101905061091a565b60008484015250505050565b6000601f19601f8301169050919050565b600061095d826108fb565b6109678185610906565b9350610977818560208601610917565b61098081610941565b840191505092915050565b600060208201905081810360008301526109a58184610952565b905092915050565b60006040820190506109c2600083018561084f565b6109cf602083018461084f565b9392505050565b6109df81610879565b81146109ea57600080fd5b50565b6000813590506109fc816109d6565b92915050565b600060208284031215610a1857610a176107e2565b5b6000610a26848285016109ed565b91505092915050565b600080fd5b7f4e487b7100000000000000000000000000000000000000000000000000000000600052604160045260246000fd5b610a6c82610941565b810181811067ffffffffffffffff82111715610a8b57610a8a610a34565b5b80604052505050565b6000610a9e6107d8565b9050610aaa8282610a63565b919050565b600067ffffffffffffffff821115610aca57610ac9610a34565b5b602082029050602081019050919050565b600080fd5b600080fd5b600067ffffffffffffffff821115610b0057610aff610a34565b5b610b0982610941565b9050602081019050919050565b82818337600083830152505050565b6000610b38610b3384610ae5565b610a94565b905082815260208101848484011115610b5457610b53610ae0565b5b610b5f848285610b16565b509392505050565b600082601f830112610b7c57610b7b610a2f565b5b8135610b8c848260208601610b25565b91505092915050565b6000610ba8610ba384610aaf565b610a94565b90508083825260208201905060208402830185811115610bcb57610bca610adb565b5b835b81811015610c1257803567ffffffffffffffff811115610bf057610bef610a2f565b5b808601610bfd8982610b67565b85526020850194505050602081019050610bcd565b5050509392505050565b600082601f830112610c3157610c30610a2f565b5b8135610c41848260208601610b95565b91505092915050565b600060208284031215610c6057610c5f6107e2565b5b600082013567ffffffffffffffff811115610c7e57610c7d6107e7565b5b610c8a84828501610c1c565b91505092915050565b600082825260208201905092915050565b7f426174636820696e646578206f7574206f6620626f756e647300000000000000600082015250565b6000610cda601983610c93565b9150610ce582610ca4565b602082019050919050565b60006020820190508181036000830152610d0981610ccd565b9050919050565b7f4e487b7100000000000000000000000000000000000000000000000000000000600052601160045260246000fd5b6000610d4a826107ec565b9150610d55836107ec565b9250828203905081811115610d6d57610d6c610d10565b5b92915050565b6000610d7e826107ec565b9150610d89836107ec565b9250828201905080821115610da157610da0610d10565b5b92915050565b7f517565756520696e646578206f7574206f6620626f756e647300000000000000600082015250565b6000610ddd601983610c93565b9150610de882610da7565b602082019050919050565b60006020820190508181036000830152610e0c81610dd0565b9050919050565b7f4e487b7100000000000000000000000000000000000000000000000000000000600052603260045260246000fd5b7f5472616e73616374696f6e20696e646578206f7574206f6620626f756e647300600082015250565b6000610e78601f83610c93565b9150610e8382610e42565b602082019050919050565b60006020820190508181036000830152610ea781610e6b565b9050919050565b7f4e487b7100000000000000000000000000000000000000000000000000000000600052602260045260246000fd5b60006002820490506001821680610ef557607f821691505b602082108103610f0857610f07610eae565b5b50919050565b60008190508160005260206000209050919050565b60006020601f8301049050919050565b600082821b905092915050565b600060088302610f707fffffffffffffffffffffffffffffffffffffffffffffffffffffffffffffffff82610f33565b610f7a8683610f33565b95508019841693508086168417925050509392505050565b6000819050919050565b6000610fb7610fb2610fad846107ec565b610f92565b6107ec565b9050919050565b6000819050919050565b610fd183610f9c565b610fe5610fdd82610fbe565b848454610f40565b825550505050565b600090565b610ffa610fed565b611005818484610fc8565b505050565b5b818110156110295761101e600082610ff2565b60018101905061100b565b5050565b601f82111561106e5761103f81610f0e565b61104884610f23565b81016020851015611057578190505b61106b61106385610f23565b83018261100a565b50505b505050565b600082821c905092915050565b600061109160001984600802611073565b1980831691505092915050565b60006110aa8383611080565b9150826002028217905092915050565b6110c3826108fb565b67ffffffffffffffff8111156110dc576110db610a34565b5b6110e68254610edd565b6110f182828561102d565b600060209050601f8311600181146111245760008415611112578287015190505b61111c858261109e565b865550611184565b601f19841661113286610f0e565b60005b8281101561115a57848901518255600182019150602085019450602081019050611135565b868310156111775784890151611173601f891682611080565b8355505b6001600288020188555050505b505050505050565b6000611197826107ec565b91507fffffffffffffffffffffffffffffffffffffffffffffffffffffffffffffffff82036111c9576111c8610d10565b5b60018201905091905056fea2646970667358221220ac7c8c972f1f323557d5a5bba19817c856dcd3fbf4474ab1ed6e3d46ca86de9b64736f6c63430008130033",
  "linkReferences": {},
  "deployedLinkReferences": {}
}