{
  "_format": "hh-sol-artifact-1",
  "contractName": "StateCommitmentChain",
  "sourceName": "src/contracts/StateCommitmentChain.sol",
  "abi": [
    {
      "anonymous": false,
      "inputs": [
        {
          "indexed": true,
          "internalType": "uint256",
          "name": "batchIndex",
          "type": "uint256"
        },
        {
          "indexed": false,
          "internalType": "bytes32",
          "name": "txHash",
          "type": "bytes32"
        }
      ],
      "name": "BatchInvalidated",
      "type": "event"
    },
    {
      "anonymous": false,
      "inputs": [
        {
          "indexed": false,
          "internalType": "uint256",
          "name": "newChallengePeriod",
          "type": "uint256"
        }
      ],
      "name": "ChallengePeriodUpdated",
      "type": "event"
    },
    {
      "anonymous": false,
      "inputs": [
        {
          "indexed": true,
          "internalType": "uint256",
          "name": "batchIndex",
          "type": "uint256"
        },
        {
          "indexed": false,
          "internalType": "bytes",
          "name": "batchData",
          "type": "bytes"
        },
        {
          "indexed": false,
          "internalType": "bytes32",
          "name": "stateRoot",
          "type": "bytes32"
        },
        {
          "indexed": false,
          "internalType": "bytes32",
          "name": "transactionsRoot",
          "type": "bytes32"
        },
        {
          "indexed": false,
          "internalType": "address",
          "name": "proposer",
          "type": "address"
        },
        {
          "indexed": false,
          "internalType": "bytes32",
          "name": "batchId",
          "type": "bytes32"
        }
      ],
      "name": "StateBatchAppended",
      "type": "event"
    },
    {
      "anonymous": false,
      "inputs": [
        {
          "indexed": true,
          "internalType": "uint256",
          "name": "batchIndex",
          "type": "uint256"
        }
      ],
      "name": "StateBatchFinalized",
      "type": "event"
    },
    {
      "inputs": [
        {
          "internalType": "bytes",
          "name": "_calldata",
          "type": "bytes"
        },
        {
          "internalType": "bytes32",
          "name": "_stateRoot",
          "type": "bytes32"
        },
        {
          "internalType": "bytes32",
          "name": "_transactionsRoot",
          "type": "bytes32"
        },
        {
          "internalType": "address",
          "name": "_proposer",
          "type": "address"
        },
        {
          "internalType": "bytes32",
          "name": "_batchId",
          "type": "bytes32"
        }
      ],
      "name": "appendStateBatch",
      "outputs": [],
      "stateMutability": "nonpayable",
      "type": "function"
    },
    {
      "inputs": [
        {
          "internalType": "uint256",
          "name": "",
          "type": "uint256"
        }
      ],
      "name": "batches",
      "outputs": [
        {
          "internalType": "bytes",
          "name": "batchData",
          "type": "bytes"
        },
        {
          "internalType": "bytes32",
          "name": "stateRoot",
          "type": "bytes32"
        },
        {
          "internalType": "bytes32",
          "name": "transactionsRoot",
          "type": "bytes32"
        },
        {
          "internalType": "uint256",
          "name": "timestamp",
          "type": "uint256"
        },
        {
          "internalType": "bool",
          "name": "finalized",
          "type": "bool"
        },
        {
          "internalType": "bool",
          "name": "valid",
          "type": "bool"
        },
        {
          "internalType": "address",
          "name": "proposer",
          "type": "address"
        },
        {
          "internalType": "bytes32",
          "name": "batchId",
          "type": "bytes32"
        },
        {
          "internalType": "uint256",
          "name": "batchIndex",
          "type": "uint256"
        }
      ],
      "stateMutability": "view",
      "type": "function"
    },
    {
      "inputs": [],
      "name": "challengePeriod",
      "outputs": [
        {
          "internalType": "uint256",
          "name": "",
          "type": "uint256"
        }
      ],
      "stateMutability": "view",
      "type": "function"
    },
    {
      "inputs": [
        {
          "internalType": "uint256",
          "name": "_batchIndex",
          "type": "uint256"
        }
      ],
      "name": "finalizeBatch",
      "outputs": [],
      "stateMutability": "nonpayable",
      "type": "function"
    },
    {
      "inputs": [
        {
          "internalType": "uint256",
          "name": "_index",
          "type": "uint256"
        }
      ],
      "name": "getBatch",
      "outputs": [
        {
          "internalType": "bytes",
          "name": "batchData",
          "type": "bytes"
        },
        {
          "internalType": "bytes32",
          "name": "stateRoot",
          "type": "bytes32"
        },
        {
          "internalType": "bytes32",
          "name": "transactionsRoot",
          "type": "bytes32"
        },
        {
          "internalType": "uint256",
          "name": "timestamp",
          "type": "uint256"
        },
        {
          "internalType": "bool",
          "name": "finalized",
          "type": "bool"
        },
        {
          "internalType": "bool",
          "name": "valid",
          "type": "bool"
        },
        {
          "internalType": "address",
          "name": "proposer",
          "type": "address"
        },
        {
          "internalType": "bytes32",
          "name": "batchId",
          "type": "bytes32"
        },
        {
          "internalType": "uint256",
          "name": "batchIndex",
          "type": "uint256"
        }
      ],
      "stateMutability": "view",
      "type": "function"
    },
    {
      "inputs": [
        {
          "internalType": "bytes32",
          "name": "_batchId",
          "type": "bytes32"
        }
      ],
      "name": "getBatchByBatchId",
      "outputs": [
        {
          "internalType": "bytes",
          "name": "batchData",
          "type": "bytes"
        },
        {
          "internalType": "bytes32",
          "name": "stateRoot",
          "type": "bytes32"
        },
        {
          "internalType": "bytes32",
          "name": "transactionsRoot",
          "type": "bytes32"
        },
        {
          "internalType": "uint256",
          "name": "timestamp",
          "type": "uint256"
        },
        {
          "internalType": "bool",
          "name": "finalized",
          "type": "bool"
        },
        {
          "internalType": "bool",
          "name": "valid",
          "type": "bool"
        },
        {
          "internalType": "address",
          "name": "proposer",
          "type": "address"
        },
        {
          "internalType": "bytes32",
          "name": "batchId",
          "type": "bytes32"
        },
        {
          "internalType": "uint256",
          "name": "batchIndex",
          "type": "uint256"
        }
      ],
      "stateMutability": "view",
      "type": "function"
    },
    {
      "inputs": [
        {
          "internalType": "bytes32",
          "name": "_batchId",
          "type": "bytes32"
        }
      ],
      "name": "getBatchStateRoot",
      "outputs": [
        {
          "internalType": "bytes32",
          "name": "",
          "type": "bytes32"
        }
      ],
      "stateMutability": "view",
      "type": "function"
    },
    {
      "inputs": [
        {
          "internalType": "bytes32",
          "name": "_batchId",
          "type": "bytes32"
        }
      ],
      "name": "getBatchTransactionsRoot",
      "outputs": [
        {
          "internalType": "bytes32",
          "name": "",
          "type": "bytes32"
        }
      ],
      "stateMutability": "view",
      "type": "function"
    },
    {
      "inputs": [],
      "name": "getLatestValidBatch",
      "outputs": [
        {
          "internalType": "uint256",
          "name": "",
          "type": "uint256"
        }
      ],
      "stateMutability": "view",
      "type": "function"
    },
    {
      "inputs": [
        {
          "internalType": "bytes32",
          "name": "_batchId",
          "type": "bytes32"
        }
      ],
      "name": "getPreviousStateRoot",
      "outputs": [
        {
          "internalType": "bytes32",
          "name": "",
          "type": "bytes32"
        }
      ],
      "stateMutability": "view",
      "type": "function"
    },
    {
      "inputs": [
        {
          "internalType": "uint256",
          "name": "_batchIndex",
          "type": "uint256"
        },
        {
          "internalType": "bytes32",
          "name": "txHash",
          "type": "bytes32"
        }
      ],
      "name": "invalidateBatch",
      "outputs": [],
      "stateMutability": "nonpayable",
      "type": "function"
    },
    {
      "inputs": [],
      "name": "latestValidBatch",
      "outputs": [
        {
          "internalType": "uint256",
          "name": "",
          "type": "uint256"
        }
      ],
      "stateMutability": "view",
      "type": "function"
    },
    {
      "inputs": [],
      "name": "stateRoot",
      "outputs": [
        {
          "internalType": "bytes32",
          "name": "",
          "type": "bytes32"
        }
      ],
      "stateMutability": "view",
      "type": "function"
    }
  ],
  "bytecode": "0x608060405262093a8060025534801561001757600080fd5b50612014806100276000396000f3fe608060405234801561001057600080fd5b50600436106100ce5760003560e01c80639588eca21161008c578063b32c4d8d11610066578063b32c4d8d14610235578063b44cebb71461026d578063e33491a71461029d578063f3f480d9146102b9576100ce565b80639588eca2146101c9578063983479f5146101e7578063adcb83f414610217576100ce565b806212d7c1146100d3578063277576a6146100ef5780633057076d1461010d5780633a5a0d871461013d5780635ac4428214610175578063777e6d5b146101ad575b600080fd5b6100ed60048036038101906100e8919061131a565b6102d7565b005b6100f761054e565b6040516101049190611369565b60405180910390f35b61012760048036038101906101229190611384565b610554565b60405161013491906113c0565b60405180910390f35b61015760048036038101906101529190611384565b6106e0565b60405161016c999897969594939291906114c7565b60405180910390f35b61018f600480360381019061018a919061155b565b61094e565b6040516101a4999897969594939291906114c7565b60405180910390f35b6101c760048036038101906101c29190611619565b610b72565b005b6101d1610dd9565b6040516101de91906113c0565b60405180910390f35b61020160048036038101906101fc9190611384565b610ddf565b60405161020e91906113c0565b60405180910390f35b61021f610ea2565b60405161022c9190611369565b60405180910390f35b61024f600480360381019061024a919061155b565b610eac565b604051610264999897969594939291906114c7565b60405180910390f35b61028760048036038101906102829190611384565b610fcc565b60405161029491906113c0565b60405180910390f35b6102b760048036038101906102b2919061155b565b61108f565b005b6102c161129e565b6040516102ce9190611369565b60405180910390f35b600080549050821061031e576040517f08c379a000000000000000000000000000000000000000000000000000000000815260040161031590611710565b60405180910390fd5b6000828154811061033257610331611730565b5b906000526020600020906007020160040160009054906101000a900460ff1615610391576040517f08c379a0000000000000000000000000000000000000000000000000000000008152600401610388906117d1565b60405180910390fd5b600082815481106103a5576103a4611730565b5b906000526020600020906007020160040160019054906101000a900460ff16610403576040517f08c379a00000000000000000000000000000000000000000000000000000000081526004016103fa9061183d565b60405180910390fd5b6000600183610412919061188c565b90505b60008054905081101561047257600080828154811061043757610436611730565b5b906000526020600020906007020160040160016101000a81548160ff021916908315150217905550808061046a906118c0565b915050610415565b5060015482036104e4575b60006001541180156104c157506000600154815481106104a05761049f611730565b5b906000526020600020906007020160040160019054906101000a900460ff16155b156104e357600160008154809291906104d990611908565b919050555061047d565b5b6000600154815481106104fa576104f9611730565b5b906000526020600020906007020160010154600381905550817f4009be90d5219c321997ea806f95bd2ab2f0293d85c602663dfba8626368051e8260405161054291906113c0565b60405180910390a25050565b60015481565b600080600080549050905060005b6000805490508110156105b657836000828154811061058457610583611730565b5b906000526020600020906007020160050154036105a3578091506105b6565b80806105ae906118c0565b915050610562565b5060008054905081106105fe576040517f08c379a00000000000000000000000000000000000000000000000000000000081526004016105f5906119a3565b60405180910390fd5b60008190505b600081111561069f57600060018261061c91906119c3565b8154811061062d5761062c611730565b5b906000526020600020906007020160040160019054906101000a900460ff161561068c57600060018261066091906119c3565b8154811061067157610670611730565b5b906000526020600020906007020160010154925050506106db565b808061069790611908565b915050610604565b506040517f08c379a00000000000000000000000000000000000000000000000000000000081526004016106d290611a69565b60405180910390fd5b919050565b606060008060008060008060008060005b600080549050811015610905578a6000828154811061071357610712611730565b5b906000526020600020906007020160050154036108f257600080828154811061073f5761073e611730565b5b90600052602060002090600702016040518061012001604052908160008201805461076990611ab8565b80601f016020809104026020016040519081016040528092919081815260200182805461079590611ab8565b80156107e25780601f106107b7576101008083540402835291602001916107e2565b820191906000526020600020905b8154815290600101906020018083116107c557829003601f168201915b505050505081526020016001820154815260200160028201548152602001600382015481526020016004820160009054906101000a900460ff161515151581526020016004820160019054906101000a900460ff161515151581526020016004820160029054906101000a900473ffffffffffffffffffffffffffffffffffffffff1673ffffffffffffffffffffffffffffffffffffffff1673ffffffffffffffffffffffffffffffffffffffff168152602001600582015481526020016006820154815250509050806000015181602001518260400151836060015184608001518560a001518660c001518760e001518861010001519a509a509a509a509a509a509a509a509a505050610941565b80806108fd906118c0565b9150506106f1565b506040517f08c379a000000000000000000000000000000000000000000000000000000000815260040161093890611b35565b60405180910390fd5b9193959799909294969850565b60606000806000806000806000806000805490508a106109a3576040517f08c379a000000000000000000000000000000000000000000000000000000000815260040161099a90611710565b60405180910390fd5b6000808b815481106109b8576109b7611730565b5b9060005260206000209060070201604051806101200160405290816000820180546109e290611ab8565b80601f0160208091040260200160405190810160405280929190818152602001828054610a0e90611ab8565b8015610a5b5780601f10610a3057610100808354040283529160200191610a5b565b820191906000526020600020905b815481529060010190602001808311610a3e57829003601f168201915b505050505081526020016001820154815260200160028201548152602001600382015481526020016004820160009054906101000a900460ff161515151581526020016004820160019054906101000a900460ff161515151581526020016004820160029054906101000a900473ffffffffffffffffffffffffffffffffffffffff1673ffffffffffffffffffffffffffffffffffffffff1673ffffffffffffffffffffffffffffffffffffffff168152602001600582015481526020016006820154815250509050806000015181602001518260400151836060015184608001518560a001518660c001518760e00151886101000151995099509950995099509950995099509950509193959799909294969850565b600060405180610120016040528088888080601f016020809104026020016040519081016040528093929190818152602001838380828437600081840152601f19601f8201169050808301925050505050505081526020018681526020018581526020014281526020016000151581526020016001151581526020018473ffffffffffffffffffffffffffffffffffffffff168152602001838152602001600080549050815250905060008190806001815401808255809150506001900390600052602060002090600702016000909190919091506000820151816000019081610c5c9190611d30565b5060208201518160010155604082015181600201556060820151816003015560808201518160040160006101000a81548160ff02191690831515021790555060a08201518160040160016101000a81548160ff02191690831515021790555060c08201518160040160026101000a81548173ffffffffffffffffffffffffffffffffffffffff021916908373ffffffffffffffffffffffffffffffffffffffff16021790555060e082015181600501556101008201518160060155505060006001600080549050610d2d91906119c3565b9050856003819055506000811480610d8057506000600182610d4f91906119c3565b81548110610d6057610d5f611730565b5b906000526020600020906007020160040160019054906101000a900460ff165b15610d8d57806001819055505b807f367de8cb818e81532c9a246406700bc1f47d489e3bb31d3cdb75b629b522ce61898989898989604051610dc796959493929190611e3e565b60405180910390a25050505050505050565b60035481565b600080600090505b600080549050811015610e61578260008281548110610e0957610e08611730565b5b90600052602060002090600702016005015403610e4e5760008181548110610e3457610e33611730565b5b906000526020600020906007020160020154915050610e9d565b8080610e59906118c0565b915050610de7565b506040517f08c379a0000000000000000000000000000000000000000000000000000000008152600401610e9490611b35565b60405180910390fd5b919050565b6000600154905090565b60008181548110610ebc57600080fd5b9060005260206000209060070201600091509050806000018054610edf90611ab8565b80601f0160208091040260200160405190810160405280929190818152602001828054610f0b90611ab8565b8015610f585780601f10610f2d57610100808354040283529160200191610f58565b820191906000526020600020905b815481529060010190602001808311610f3b57829003601f168201915b5050505050908060010154908060020154908060030154908060040160009054906101000a900460ff16908060040160019054906101000a900460ff16908060040160029054906101000a900473ffffffffffffffffffffffffffffffffffffffff16908060050154908060060154905089565b600080600090505b60008054905081101561104e578260008281548110610ff657610ff5611730565b5b9060005260206000209060070201600501540361103b576000818154811061102157611020611730565b5b90600052602060002090600702016001015491505061108a565b8080611046906118c0565b915050610fd4565b506040517f08c379a000000000000000000000000000000000000000000000000000000000815260040161108190611b35565b60405180910390fd5b919050565b60008054905081106110d6576040517f08c379a00000000000000000000000000000000000000000000000000000000081526004016110cd90611710565b60405180910390fd5b600081815481106110ea576110e9611730565b5b906000526020600020906007020160040160009054906101000a900460ff1615611149576040517f08c379a000000000000000000000000000000000000000000000000000000000815260040161114090611ee6565b60405180910390fd5b6000818154811061115d5761115c611730565b5b906000526020600020906007020160040160019054906101000a900460ff166111bb576040517f08c379a00000000000000000000000000000000000000000000000000000000081526004016111b290611f52565b60405180910390fd5b600254600082815481106111d2576111d1611730565b5b9060005260206000209060070201600301546111ee919061188c565b421015611230576040517f08c379a000000000000000000000000000000000000000000000000000000000815260040161122790611fbe565b60405180910390fd5b60016000828154811061124657611245611730565b5b906000526020600020906007020160040160006101000a81548160ff021916908315150217905550807fbb803f4b9749d4fb1acf2a4e008dee4cd8d1443f16bc6c88c4e9d7310d5dd4ac60405160405180910390a250565b60025481565b600080fd5b600080fd5b6000819050919050565b6112c1816112ae565b81146112cc57600080fd5b50565b6000813590506112de816112b8565b92915050565b6000819050919050565b6112f7816112e4565b811461130257600080fd5b50565b600081359050611314816112ee565b92915050565b60008060408385031215611331576113306112a4565b5b600061133f858286016112cf565b925050602061135085828601611305565b9150509250929050565b611363816112ae565b82525050565b600060208201905061137e600083018461135a565b92915050565b60006020828403121561139a576113996112a4565b5b60006113a884828501611305565b91505092915050565b6113ba816112e4565b82525050565b60006020820190506113d560008301846113b1565b92915050565b600081519050919050565b600082825260208201905092915050565b60005b838110156114155780820151818401526020810190506113fa565b60008484015250505050565b6000601f19601f8301169050919050565b600061143d826113db565b61144781856113e6565b93506114578185602086016113f7565b61146081611421565b840191505092915050565b60008115159050919050565b6114808161146b565b82525050565b600073ffffffffffffffffffffffffffffffffffffffff82169050919050565b60006114b182611486565b9050919050565b6114c1816114a6565b82525050565b60006101208201905081810360008301526114e2818c611432565b90506114f1602083018b6113b1565b6114fe604083018a6113b1565b61150b606083018961135a565b6115186080830188611477565b61152560a0830187611477565b61153260c08301866114b8565b61153f60e08301856113b1565b61154d61010083018461135a565b9a9950505050505050505050565b600060208284031215611571576115706112a4565b5b600061157f848285016112cf565b91505092915050565b600080fd5b600080fd5b600080fd5b60008083601f8401126115ad576115ac611588565b5b8235905067ffffffffffffffff8111156115ca576115c961158d565b5b6020830191508360018202830111156115e6576115e5611592565b5b9250929050565b6115f6816114a6565b811461160157600080fd5b50565b600081359050611613816115ed565b92915050565b60008060008060008060a08789031215611636576116356112a4565b5b600087013567ffffffffffffffff811115611654576116536112a9565b5b61166089828a01611597565b9650965050602061167389828a01611305565b945050604061168489828a01611305565b935050606061169589828a01611604565b92505060806116a689828a01611305565b9150509295509295509295565b600082825260208201905092915050565b7f426174636820696e646578206f7574206f6620626f756e647300000000000000600082015250565b60006116fa6019836116b3565b9150611705826116c4565b602082019050919050565b60006020820190508181036000830152611729816116ed565b9050919050565b7f4e487b7100000000000000000000000000000000000000000000000000000000600052603260045260246000fd5b7f43616e6e6f7420696e76616c69646174652066696e616c697a6564206261746360008201527f6800000000000000000000000000000000000000000000000000000000000000602082015250565b60006117bb6021836116b3565b91506117c68261175f565b604082019050919050565b600060208201905081810360008301526117ea816117ae565b9050919050565b7f426174636820616c726561647920696e76616c69646174656400000000000000600082015250565b60006118276019836116b3565b9150611832826117f1565b602082019050919050565b600060208201905081810360008301526118568161181a565b9050919050565b7f4e487b7100000000000000000000000000000000000000000000000000000000600052601160045260246000fd5b6000611897826112ae565b91506118a2836112ae565b92508282019050808211156118ba576118b961185d565b5b92915050565b60006118cb826112ae565b91507fffffffffffffffffffffffffffffffffffffffffffffffffffffffffffffffff82036118fd576118fc61185d565b5b600182019050919050565b6000611913826112ae565b9150600082036119265761192561185d565b5b600182039050919050565b7f426174636820776974682074686520676976656e2062617463684964206e6f7460008201527f20666f756e640000000000000000000000000000000000000000000000000000602082015250565b600061198d6026836116b3565b915061199882611931565b604082019050919050565b600060208201905081810360008301526119bc81611980565b9050919050565b60006119ce826112ae565b91506119d9836112ae565b92508282039050818111156119f1576119f061185d565b5b92915050565b7f4e6f2076616c69642070726576696f757320737461746520726f6f7420666f7560008201527f6e64000000000000000000000000000000000000000000000000000000000000602082015250565b6000611a536022836116b3565b9150611a5e826119f7565b604082019050919050565b60006020820190508181036000830152611a8281611a46565b9050919050565b7f4e487b7100000000000000000000000000000000000000000000000000000000600052602260045260246000fd5b60006002820490506001821680611ad057607f821691505b602082108103611ae357611ae2611a89565b5b50919050565b7f4261746368206e6f7420666f756e640000000000000000000000000000000000600082015250565b6000611b1f600f836116b3565b9150611b2a82611ae9565b602082019050919050565b60006020820190508181036000830152611b4e81611b12565b9050919050565b7f4e487b7100000000000000000000000000000000000000000000000000000000600052604160045260246000fd5b60008190508160005260206000209050919050565b60006020601f8301049050919050565b600082821b905092915050565b600060088302611be67fffffffffffffffffffffffffffffffffffffffffffffffffffffffffffffffff82611ba9565b611bf08683611ba9565b95508019841693508086168417925050509392505050565b6000819050919050565b6000611c2d611c28611c23846112ae565b611c08565b6112ae565b9050919050565b6000819050919050565b611c4783611c12565b611c5b611c5382611c34565b848454611bb6565b825550505050565b600090565b611c70611c63565b611c7b818484611c3e565b505050565b5b81811015611c9f57611c94600082611c68565b600181019050611c81565b5050565b601f821115611ce457611cb581611b84565b611cbe84611b99565b81016020851015611ccd578190505b611ce1611cd985611b99565b830182611c80565b50505b505050565b600082821c905092915050565b6000611d0760001984600802611ce9565b1980831691505092915050565b6000611d208383611cf6565b9150826002028217905092915050565b611d39826113db565b67ffffffffffffffff811115611d5257611d51611b55565b5b611d5c8254611ab8565b611d67828285611ca3565b600060209050601f831160018114611d9a5760008415611d88578287015190505b611d928582611d14565b865550611dfa565b601f198416611da886611b84565b60005b82811015611dd057848901518255600182019150602085019450602081019050611dab565b86831015611ded5784890151611de9601f891682611cf6565b8355505b6001600288020188555050505b505050505050565b82818337600083830152505050565b6000611e1d83856113e6565b9350611e2a838584611e02565b611e3383611421565b840190509392505050565b600060a0820190508181036000830152611e5981888a611e11565b9050611e6860208301876113b1565b611e7560408301866113b1565b611e8260608301856114b8565b611e8f60808301846113b1565b979650505050505050565b7f426174636820616c72656164792066696e616c697a6564000000000000000000600082015250565b6000611ed06017836116b3565b9150611edb82611e9a565b602082019050919050565b60006020820190508181036000830152611eff81611ec3565b9050919050565b7f43616e6e6f742066696e616c697a6520696e76616c6964206261746368000000600082015250565b6000611f3c601d836116b3565b9150611f4782611f06565b602082019050919050565b60006020820190508181036000830152611f6b81611f2f565b9050919050565b7f4368616c6c656e676520706572696f64206e6f74206f76657200000000000000600082015250565b6000611fa86019836116b3565b9150611fb382611f72565b602082019050919050565b60006020820190508181036000830152611fd781611f9b565b905091905056fea2646970667358221220abf3279f2716224a495c30916742c4076b4b71b642f2a2a13a600b48982c52df64736f6c63430008130033",
  "linkReferences": {},
  "deployedLinkReferences": {}
}