{
  "contractName": "BondManager",
  "abi": [
    {
      "anonymous": false,
      "inputs": [
        {
          "indexed": true,
          "internalType": "address",
          "name": "depositor",
          "type": "address"
        },
        {
          "indexed": false,
          "internalType": "uint256",
          "name": "amount",
          "type": "uint256"
        }
      ],
      "name": "BondDeposited",
      "type": "event"
    },
    {
      "anonymous": false,
      "inputs": [
        {
          "indexed": true,
          "internalType": "address",
          "name": "withdrawer",
          "type": "address"
        },
        {
          "indexed": false,
          "internalType": "uint256",
          "name": "amount",
          "type": "uint256"
        }
      ],
      "name": "BondWithdrawn",
      "type": "event"
    },
    {
      "inputs": [
        {
          "internalType": "address",
          "name": "",
          "type": "address"
        }
      ],
      "name": "bonds",
      "outputs": [
        {
          "internalType": "uint256",
          "name": "",
          "type": "uint256"
        }
      ],
      "stateMutability": "view",
      "type": "function",
      "constant": true
    },
    {
      "inputs": [],
      "name": "deposit",
      "outputs": [],
      "stateMutability": "payable",
      "type": "function",
      "payable": true
    },
    {
      "inputs": [
        {
          "internalType": "uint256",
          "name": "_amount",
          "type": "uint256"
        }
      ],
      "name": "withdraw",
      "outputs": [],
      "stateMutability": "nonpayable",
      "type": "function"
    },
    {
      "inputs": [
        {
          "internalType": "address",
          "name": "_account",
          "type": "address"
        },
        {
          "internalType": "uint256",
          "name": "_amount",
          "type": "uint256"
        }
      ],
      "name": "updateBond",
      "outputs": [],
      "stateMutability": "nonpayable",
      "type": "function"
    }
  ],
  "bytecode": "0x608060405234801561001057600080fd5b506105f6806100206000396000f3fe60806040526004361061003f5760003560e01c80632e1a7d4d14610044578063b53477361461006d578063d0e30db014610096578063fe10d774146100a0575b600080fd5b34801561005057600080fd5b5061006b6004803603810190610066919061038a565b6100dd565b005b34801561007957600080fd5b50610094600480360381019061008f9190610415565b61024b565b005b61009e610292565b005b3480156100ac57600080fd5b506100c760048036038101906100c29190610455565b610337565b6040516100d49190610491565b60405180910390f35b806000803373ffffffffffffffffffffffffffffffffffffffff1673ffffffffffffffffffffffffffffffffffffffff16815260200190815260200160002054101561015e576040517f08c379a000000000000000000000000000000000000000000000000000000000815260040161015590610509565b60405180910390fd5b806000803373ffffffffffffffffffffffffffffffffffffffff1673ffffffffffffffffffffffffffffffffffffffff16815260200190815260200160002060008282546101ac9190610558565b925050819055503373ffffffffffffffffffffffffffffffffffffffff166108fc829081150290604051600060405180830381858888f193505050501580156101f9573d6000803e3d6000fd5b503373ffffffffffffffffffffffffffffffffffffffff167f0d41118e36df44efb77a471fc49fb9c0be0406d802ef95520e9fbf606e65b455826040516102409190610491565b60405180910390a250565b806000808473ffffffffffffffffffffffffffffffffffffffff1673ffffffffffffffffffffffffffffffffffffffff168152602001908152602001600020819055505050565b346000803373ffffffffffffffffffffffffffffffffffffffff1673ffffffffffffffffffffffffffffffffffffffff16815260200190815260200160002060008282546102e0919061058c565b925050819055503373ffffffffffffffffffffffffffffffffffffffff167f8ed8c6869618197b68315ade66e75ed3906c97b111fa3ab81e5760046825c7db3460405161032d9190610491565b60405180910390a2565b60006020528060005260406000206000915090505481565b600080fd5b6000819050919050565b61036781610354565b811461037257600080fd5b50565b6000813590506103848161035e565b92915050565b6000602082840312156103a05761039f61034f565b5b60006103ae84828501610375565b91505092915050565b600073ffffffffffffffffffffffffffffffffffffffff82169050919050565b60006103e2826103b7565b9050919050565b6103f2816103d7565b81146103fd57600080fd5b50565b60008135905061040f816103e9565b92915050565b6000806040838503121561042c5761042b61034f565b5b600061043a85828601610400565b925050602061044b85828601610375565b9150509250929050565b60006020828403121561046b5761046a61034f565b5b600061047984828501610400565b91505092915050565b61048b81610354565b82525050565b60006020820190506104a66000830184610482565b92915050565b600082825260208201905092915050565b7f496e73756666696369656e7420626f6e64000000000000000000000000000000600082015250565b60006104f36011836104ac565b91506104fe826104bd565b602082019050919050565b60006020820190508181036000830152610522816104e6565b9050919050565b7f4e487b7100000000000000000000000000000000000000000000000000000000600052601160045260246000fd5b600061056382610354565b915061056e83610354565b925082820390508181111561058657610585610529565b5b92915050565b600061059782610354565b91506105a283610354565b92508282019050808211156105ba576105b9610529565b5b9291505056fea2646970667358221220495f5f2ac542208641d37bc9722db4ab29522d8cb39a46a9bf44d2a5a2e1240064736f6c63430008130033",
  "immutableReferences": {},
  "source": "// SPDX-License-Identifier: MIT\r\npragma solidity >=0.4.22 <0.9.0;\r\n\r\ncontract BondManager {\r\n    //     \r\n    mapping(address => uint256) public bonds;\r\n\r\n    //     \r\n    event BondDeposited(address indexed depositor, uint256 amount);\r\n    //     \r\n    event BondWithdrawn(address indexed withdrawer, uint256 amount);\r\n\r\n    //   , msg.value  \r\n    function deposit() public payable {\r\n        bonds[msg.sender] += msg.value;\r\n        emit BondDeposited(msg.sender, msg.value);\r\n    }\r\n\r\n    //   \r\n    function withdraw(uint256 _amount) public {\r\n        //      \r\n        require(bonds[msg.sender] >= _amount, \"Insufficient bond\");\r\n        bonds[msg.sender] -= _amount;\r\n        payable(msg.sender).transfer(_amount);\r\n        emit BondWithdrawn(msg.sender, _amount);\r\n    }\r\n\r\n    //   \r\n    function updateBond(address _account, uint256 _amount) public {\r\n        bonds[_account] = _amount;\r\n    }\r\n}\r\n",
  "sourcePath": "C:\\Users\\Jaewon.DESKTOP-OT1V5PK\\Desktop\\project\\rollup\\contracts\\BondManager.sol",
  "compiler": {
    "name": "solc",
    "version": "0.8.19+commit.7dd6d404.Emscripten.clang"
  },
  "schemaVersion": "3.4.16",
  "updatedAt": "2024-06-26T06:43:13.958Z",
  "networkType": "ethereum",
  "devdoc": {
    "kind": "dev",
    "methods": {},
    "version": 1
  },
  "userdoc": {
    "kind": "user",
    "methods": {},
    "version": 1
  }
}