{
  "contractName": "CanonicalTransactionChain",
  "abi": [
    {
      "anonymous": false,
      "inputs": [
        {
          "indexed": true,
          "internalType": "bytes32",
          "name": "transactionHash",
          "type": "bytes32"
        },
        {
          "indexed": true,
          "internalType": "uint256",
          "name": "timestamp",
          "type": "uint256"
        }
      ],
      "name": "TransactionEnqueued",
      "type": "event"
    },
    {
      "inputs": [
        {
          "internalType": "uint256",
          "name": "",
          "type": "uint256"
        }
      ],
      "name": "queue",
      "outputs": [
        {
          "internalType": "bytes32",
          "name": "transactionHash",
          "type": "bytes32"
        },
        {
          "internalType": "uint256",
          "name": "timestamp",
          "type": "uint256"
        }
      ],
      "stateMutability": "view",
      "type": "function",
      "constant": true
    },
    {
      "inputs": [
        {
          "internalType": "bytes32",
          "name": "_transactionHash",
          "type": "bytes32"
        }
      ],
      "name": "enqueue",
      "outputs": [],
      "stateMutability": "nonpayable",
      "type": "function"
    }
  ],
  "bytecode": "0x608060405234801561001057600080fd5b5061028b806100206000396000f3fe608060405234801561001057600080fd5b50600436106100365760003560e01c8063b4de3e231461003b578063ddf0b00914610057575b600080fd5b6100556004803603810190610050919061017e565b610088565b005b610071600480360381019061006c91906101e1565b61010f565b60405161007f92919061022c565b60405180910390f35b600060405180604001604052808381526020014281525090806001815401808255809150506001900390600052602060002090600202016000909190919091506000820151816000015560208201518160010155505042817fc1c5a99ff8d1746f60e38b3377af0b54fad176a1eda6f4c9ce93bf99376a682f60405160405180910390a350565b6000818154811061011f57600080fd5b90600052602060002090600202016000915090508060000154908060010154905082565b600080fd5b6000819050919050565b61015b81610148565b811461016657600080fd5b50565b60008135905061017881610152565b92915050565b60006020828403121561019457610193610143565b5b60006101a284828501610169565b91505092915050565b6000819050919050565b6101be816101ab565b81146101c957600080fd5b50565b6000813590506101db816101b5565b92915050565b6000602082840312156101f7576101f6610143565b5b6000610205848285016101cc565b91505092915050565b61021781610148565b82525050565b610226816101ab565b82525050565b6000604082019050610241600083018561020e565b61024e602083018461021d565b939250505056fea2646970667358221220b40db9b7ca54455db1b010a76b39241297980f4776fdb917cb9c703eefe8f18c64736f6c63430008130033",
  "immutableReferences": {},
  "source": "// SPDX-License-Identifier: MIT\r\npragma solidity >=0.4.22 <0.9.0;\r\n\r\ncontract CanonicalTransactionChain {\r\n    // QueueElement  :    \r\n    struct QueueElement {\r\n        bytes32 transactionHash;\r\n        uint256 timestamp;\r\n    }\r\n\r\n    // QueueElement   public  \r\n    QueueElement[] public queue;\r\n\r\n    //      \r\n    event TransactionEnqueued(bytes32 indexed transactionHash, uint256 indexed timestamp);\r\n\r\n    //    \r\n    function enqueue(bytes32 _transactionHash) public {\r\n        queue.push(QueueElement({\r\n            transactionHash: _transactionHash,\r\n            timestamp: block.timestamp\r\n        }));\r\n        emit TransactionEnqueued(_transactionHash, block.timestamp);\r\n    }\r\n}\r\n",
  "sourcePath": "C:\\Users\\Jaewon.DESKTOP-OT1V5PK\\Desktop\\project\\rollup\\contracts\\CanonicalTransactionChain.sol",
  "compiler": {
    "name": "solc",
    "version": "0.8.19+commit.7dd6d404.Emscripten.clang"
  },
  "schemaVersion": "3.4.16",
  "updatedAt": "2024-06-26T06:43:13.941Z",
  "networkType": "ethereum",
  "devdoc": {
    "kind": "dev",
    "methods": {},
    "version": 1
  },
  "userdoc": {
    "kind": "user",
    "methods": {},
    "version": 1
  }
}