{
  "contractName": "FraudVerifier",
  "abi": [
    {
      "inputs": [
        {
          "internalType": "address",
          "name": "_scc",
          "type": "address"
        },
        {
          "internalType": "address",
          "name": "_ctc",
          "type": "address"
        },
        {
          "internalType": "address",
          "name": "_bm",
          "type": "address"
        }
      ],
      "stateMutability": "nonpayable",
      "type": "constructor"
    },
    {
      "anonymous": false,
      "inputs": [
        {
          "indexed": true,
          "internalType": "bytes32",
          "name": "batchId",
          "type": "bytes32"
        },
        {
          "indexed": true,
          "internalType": "address",
          "name": "challenger",
          "type": "address"
        },
        {
          "indexed": false,
          "internalType": "bytes32",
          "name": "_txHash",
          "type": "bytes32"
        }
      ],
      "name": "ChallengeInitiated",
      "type": "event"
    },
    {
      "anonymous": false,
      "inputs": [
        {
          "indexed": true,
          "internalType": "bytes32",
          "name": "batchId",
          "type": "bytes32"
        },
        {
          "indexed": false,
          "internalType": "bool",
          "name": "success",
          "type": "bool"
        },
        {
          "indexed": false,
          "internalType": "address",
          "name": "proposer",
          "type": "address"
        }
      ],
      "name": "ChallengeResolved",
      "type": "event"
    },
    {
      "inputs": [
        {
          "internalType": "address",
          "name": "",
          "type": "address"
        }
      ],
      "name": "accounts",
      "outputs": [
        {
          "internalType": "uint256",
          "name": "nonce",
          "type": "uint256"
        },
        {
          "internalType": "uint256",
          "name": "balance",
          "type": "uint256"
        }
      ],
      "stateMutability": "view",
      "type": "function",
      "constant": true
    },
    {
      "inputs": [],
      "name": "bondManager",
      "outputs": [
        {
          "internalType": "contract BondManager",
          "name": "",
          "type": "address"
        }
      ],
      "stateMutability": "view",
      "type": "function",
      "constant": true
    },
    {
      "inputs": [],
      "name": "canonicalTransactionChain",
      "outputs": [
        {
          "internalType": "contract CanonicalTransactionChain",
          "name": "",
          "type": "address"
        }
      ],
      "stateMutability": "view",
      "type": "function",
      "constant": true
    },
    {
      "inputs": [
        {
          "internalType": "bytes32",
          "name": "",
          "type": "bytes32"
        }
      ],
      "name": "challenges",
      "outputs": [
        {
          "internalType": "address",
          "name": "challenger",
          "type": "address"
        },
        {
          "internalType": "uint256",
          "name": "timestamp",
          "type": "uint256"
        },
        {
          "internalType": "bool",
          "name": "resolved",
          "type": "bool"
        },
        {
          "internalType": "bytes32",
          "name": "challengedTxHash",
          "type": "bytes32"
        }
      ],
      "stateMutability": "view",
      "type": "function",
      "constant": true
    },
    {
      "inputs": [],
      "name": "stateCommitmentChain",
      "outputs": [
        {
          "internalType": "contract StateCommitmentChain",
          "name": "",
          "type": "address"
        }
      ],
      "stateMutability": "view",
      "type": "function",
      "constant": true
    },
    {
      "inputs": [
        {
          "internalType": "bytes32",
          "name": "_batchId",
          "type": "bytes32"
        },
        {
          "internalType": "bytes32",
          "name": "_txHash",
          "type": "bytes32"
        },
        {
          "internalType": "bytes32[]",
          "name": "_merkleProof",
          "type": "bytes32[]"
        }
      ],
      "name": "initiateChallenge",
      "outputs": [],
      "stateMutability": "nonpayable",
      "type": "function"
    },
    {
      "inputs": [
        {
          "internalType": "bytes32",
          "name": "_preStateRoot",
          "type": "bytes32"
        },
        {
          "internalType": "bytes32",
          "name": "_postStateRoot",
          "type": "bytes32"
        },
        {
          "internalType": "bytes",
          "name": "_transaction",
          "type": "bytes"
        }
      ],
      "name": "verifyStateTransition",
      "outputs": [
        {
          "internalType": "bool",
          "name": "",
          "type": "bool"
        }
      ],
      "stateMutability": "pure",
      "type": "function",
      "constant": true
    },
    {
      "inputs": [
        {
          "internalType": "bytes32",
          "name": "_batchId",
          "type": "bytes32"
        },
        {
          "internalType": "bytes",
          "name": "_transaction",
          "type": "bytes"
        }
      ],
      "name": "verifyTransaction",
      "outputs": [
        {
          "internalType": "bool",
          "name": "",
          "type": "bool"
        }
      ],
      "stateMutability": "view",
      "type": "function",
      "constant": true
    },
    {
      "inputs": [
        {
          "internalType": "bytes32",
          "name": "_batchId",
          "type": "bytes32"
        },
        {
          "internalType": "bytes32",
          "name": "_preStateRoot",
          "type": "bytes32"
        },
        {
          "internalType": "bytes32",
          "name": "_postStateRoot",
          "type": "bytes32"
        },
        {
          "internalType": "bytes",
          "name": "_transaction",
          "type": "bytes"
        }
      ],
      "name": "resolveChallenge",
      "outputs": [],
      "stateMutability": "nonpayable",
      "type": "function"
    }
  ],
  "bytecode": "0x60806040523480156200001157600080fd5b506040516200255c3803806200255c83398181016040528101906200003791906200016c565b826000806101000a81548173ffffffffffffffffffffffffffffffffffffffff021916908373ffffffffffffffffffffffffffffffffffffffff16021790555081600160006101000a81548173ffffffffffffffffffffffffffffffffffffffff021916908373ffffffffffffffffffffffffffffffffffffffff16021790555080600260006101000a81548173ffffffffffffffffffffffffffffffffffffffff021916908373ffffffffffffffffffffffffffffffffffffffff160217905550505050620001c8565b600080fd5b600073ffffffffffffffffffffffffffffffffffffffff82169050919050565b6000620001348262000107565b9050919050565b620001468162000127565b81146200015257600080fd5b50565b60008151905062000166816200013b565b92915050565b60008060006060848603121562000188576200018762000102565b5b6000620001988682870162000155565b9350506020620001ab8682870162000155565b9250506040620001be8682870162000155565b9150509250925092565b61238480620001d86000396000f3fe608060405234801561001057600080fd5b50600436106100935760003560e01c8063821b7b7311610066578063821b7b731461012157806390903f741461013f57806391b574231461016f578063c1e69b661461019f578063d0293950146101d257610093565b806309645b8f146100985780630f329ef8146100b4578063363cc427146100d25780635e5c06e2146100f0575b600080fd5b6100b260048036038101906100ad9190611380565b6101ee565b005b6100bc6107e8565b6040516100c99190611482565b60405180910390f35b6100da61080c565b6040516100e791906114be565b60405180910390f35b61010a60048036038101906101059190611517565b610832565b60405161011892919061155d565b60405180910390f35b610129610856565b60405161013691906115a7565b60405180910390f35b610159600480360381019061015491906115c2565b61087c565b6040516101669190611639565b60405180910390f35b61018960048036038101906101849190611654565b610be5565b6040516101969190611639565b60405180910390f35b6101b960048036038101906101b491906116c3565b610c20565b6040516101c9949392919061170e565b60405180910390f35b6101ec60048036038101906101e7919061181b565b610c7d565b005b60006004600086815260200190815260200160002090508060020160009054906101000a900460ff1615610257576040517f08c379a000000000000000000000000000000000000000000000000000000000815260040161024e906118e7565b60405180910390fd5b60008054906101000a900473ffffffffffffffffffffffffffffffffffffffff1673ffffffffffffffffffffffffffffffffffffffff1663f3f480d96040518163ffffffff1660e01b8152600401602060405180830381865afa1580156102c2573d6000803e3d6000fd5b505050506040513d601f19601f820116820180604052508101906102e69190611933565b81600101546102f5919061198f565b421015610337576040517f08c379a000000000000000000000000000000000000000000000000000000000815260040161032e90611a0f565b60405180910390fd5b60008060008060008060008060008060009054906101000a900473ffffffffffffffffffffffffffffffffffffffff1673ffffffffffffffffffffffffffffffffffffffff16633a5a0d878f6040518263ffffffff1660e01b815260040161039f9190611a2f565b600060405180830381865afa1580156103bc573d6000803e3d6000fd5b505050506040513d6000823e3d601f19601f820116820180604052508101906103e59190611b3a565b9850985098509850985098509850985098508415610438576040517f08c379a000000000000000000000000000000000000000000000000000000000815260040161042f90611c6c565b60405180910390fd5b60006104458e8e8e610be5565b801561045757506104568f8d61087c565b5b905060018b60020160006101000a81548160ff02191690831515021790555080156106e85760008054906101000a900473ffffffffffffffffffffffffffffffffffffffff1673ffffffffffffffffffffffffffffffffffffffff1663e33491a7836040518263ffffffff1660e01b81526004016104d59190611c8c565b600060405180830381600087803b1580156104ef57600080fd5b505af1158015610503573d6000803e3d6000fd5b50505050600260009054906101000a900473ffffffffffffffffffffffffffffffffffffffff1673ffffffffffffffffffffffffffffffffffffffff16632e1a7d4d600260009054906101000a900473ffffffffffffffffffffffffffffffffffffffff1673ffffffffffffffffffffffffffffffffffffffff1663fe10d7748e60000160009054906101000a900473ffffffffffffffffffffffffffffffffffffffff166040518263ffffffff1660e01b81526004016105c49190611ca7565b602060405180830381865afa1580156105e1573d6000803e3d6000fd5b505050506040513d601f19601f820116820180604052508101906106059190611933565b6040518263ffffffff1660e01b81526004016106219190611c8c565b600060405180830381600087803b15801561063b57600080fd5b505af115801561064f573d6000803e3d6000fd5b50505050600260009054906101000a900473ffffffffffffffffffffffffffffffffffffffff1673ffffffffffffffffffffffffffffffffffffffff1663b53477368560006040518363ffffffff1660e01b81526004016106b1929190611cfd565b600060405180830381600087803b1580156106cb57600080fd5b505af11580156106df573d6000803e3d6000fd5b5050505061079d565b600260009054906101000a900473ffffffffffffffffffffffffffffffffffffffff1673ffffffffffffffffffffffffffffffffffffffff1663b53477368c60000160009054906101000a900473ffffffffffffffffffffffffffffffffffffffff1660006040518363ffffffff1660e01b815260040161076a929190611cfd565b600060405180830381600087803b15801561078457600080fd5b505af1158015610798573d6000803e3d6000fd5b505050505b8e7f92380ceb902abc1fa2ff7d6bafebd3e32c266fbfd953d057aad8db65c014a9ef82866040516107cf929190611d26565b60405180910390a2505050505050505050505050505050565b60008054906101000a900473ffffffffffffffffffffffffffffffffffffffff1681565b600260009054906101000a900473ffffffffffffffffffffffffffffffffffffffff1681565b60036020528060005260406000206000915090508060000154908060010154905082565b600160009054906101000a900473ffffffffffffffffffffffffffffffffffffffff1681565b6000806004600085815260200190815260200160002090508060020160009054906101000a900460ff16156108e6576040517f08c379a00000000000000000000000000000000000000000000000000000000081526004016108dd906118e7565b60405180910390fd5b6000838060200190518101906108fc9190611e5b565b90506000816000015182602001518360400151846060015185608001518660a001518760c001516040516020016109399796959493929190611f54565b604051602081830303815290604052805190602001209050826003015481146109685760009350505050610bdf565b60008160405160200161097b9190612049565b60405160208183030381529060405280519060200120905060008060006109a58660e001516110d2565b9250925092506000600185858585604051600081526020016040526040516109d0949392919061208b565b6020604051602081039080840390855afa1580156109f2573d6000803e3d6000fd5b505050602060405103519050600360008273ffffffffffffffffffffffffffffffffffffffff1673ffffffffffffffffffffffffffffffffffffffff16815260200190815260200160002060000154876000015114610a5c57600098505050505050505050610bdf565b600087602001518860400151610a7291906120d0565b8860800151610a81919061198f565b905080600360008473ffffffffffffffffffffffffffffffffffffffff1673ffffffffffffffffffffffffffffffffffffffff168152602001908152602001600020600101541015610adf5760009950505050505050505050610bdf565b600188608001511015610afe5760009950505050505050505050610bdf565b600073ffffffffffffffffffffffffffffffffffffffff16886060015173ffffffffffffffffffffffffffffffffffffffff1603610b485760009950505050505050505050610bdf565b876060015173ffffffffffffffffffffffffffffffffffffffff168273ffffffffffffffffffffffffffffffffffffffff1603610b915760009950505050505050505050610bdf565b876080015188602001518960400151610baa91906120d0565b8960800151610bb9919061198f565b1015610bd15760009950505050505050505050610bdf565b600199505050505050505050505b92915050565b6000808483604051602001610bfb929190612112565b6040516020818303038152906040528051906020012090508381149150509392505050565b60046020528060005260406000206000915090508060000160009054906101000a900473ffffffffffffffffffffffffffffffffffffffff16908060010154908060020160009054906101000a900460ff16908060030154905084565b6000600260009054906101000a900473ffffffffffffffffffffffffffffffffffffffff1673ffffffffffffffffffffffffffffffffffffffff1663fe10d774336040518263ffffffff1660e01b8152600401610cda9190611ca7565b602060405180830381865afa158015610cf7573d6000803e3d6000fd5b505050506040513d601f19601f82011682018060405250810190610d1b9190611933565b11610d5b576040517f08c379a0000000000000000000000000000000000000000000000000000000008152600401610d5290612186565b60405180910390fd5b60008060008060008060008060008060009054906101000a900473ffffffffffffffffffffffffffffffffffffffff1673ffffffffffffffffffffffffffffffffffffffff16633a5a0d878d6040518263ffffffff1660e01b8152600401610dc39190611a2f565b600060405180830381865afa158015610de0573d6000803e3d6000fd5b505050506040513d6000823e3d601f19601f82011682018060405250810190610e099190611b3a565b9850985098509850985098509850985098508415610e5c576040517f08c379a0000000000000000000000000000000000000000000000000000000008152600401610e5390611c6c565b60405180910390fd5b600460008d815260200190815260200160002060020160009054906101000a900460ff1615610ec0576040517f08c379a0000000000000000000000000000000000000000000000000000000008152600401610eb7906118e7565b60405180910390fd5b60008060009054906101000a900473ffffffffffffffffffffffffffffffffffffffff1673ffffffffffffffffffffffffffffffffffffffff1663983479f58e6040518263ffffffff1660e01b8152600401610f1c9190611a2f565b602060405180830381865afa158015610f39573d6000803e3d6000fd5b505050506040513d601f19601f82011682018060405250810190610f5d91906121a6565b9050610f6a8b828e61113a565b610fa9576040517f08c379a0000000000000000000000000000000000000000000000000000000008152600401610fa09061221f565b60405180910390fd5b60405180608001604052803373ffffffffffffffffffffffffffffffffffffffff1681526020014281526020016000151581526020018d815250600460008f815260200190815260200160002060008201518160000160006101000a81548173ffffffffffffffffffffffffffffffffffffffff021916908373ffffffffffffffffffffffffffffffffffffffff1602179055506020820151816001015560408201518160020160006101000a81548160ff021916908315150217905550606082015181600301559050503373ffffffffffffffffffffffffffffffffffffffff168d7f65eac71e286b1f2370c5aefaec61245199380cbfa45f2a64e3f3156f9400edfc8e6040516110bb9190611a2f565b60405180910390a350505050505050505050505050565b6000806000604184511461111b576040517f08c379a00000000000000000000000000000000000000000000000000000000081526004016111129061228b565b60405180910390fd5b6020840151915060408401519050606084015160001a92509193909250565b60008082905060005b85518110156111e2576000868281518110611161576111606122ab565b5b602002602001015190508083116111a25782816040516020016111859291906122da565b6040516020818303038152906040528051906020012092506111ce565b80836040516020016111b59291906122da565b6040516020818303038152906040528051906020012092505b5080806111da90612306565b915050611143565b508381149150509392505050565b6000604051905090565b600080fd5b600080fd5b6000819050919050565b61121781611204565b811461122257600080fd5b50565b6000813590506112348161120e565b92915050565b600080fd5b600080fd5b6000601f19601f8301169050919050565b7f4e487b7100000000000000000000000000000000000000000000000000000000600052604160045260246000fd5b61128d82611244565b810181811067ffffffffffffffff821117156112ac576112ab611255565b5b80604052505050565b60006112bf6111f0565b90506112cb8282611284565b919050565b600067ffffffffffffffff8211156112eb576112ea611255565b5b6112f482611244565b9050602081019050919050565b82818337600083830152505050565b600061132361131e846112d0565b6112b5565b90508281526020810184848401111561133f5761133e61123f565b5b61134a848285611301565b509392505050565b600082601f8301126113675761136661123a565b5b8135611377848260208601611310565b91505092915050565b6000806000806080858703121561139a576113996111fa565b5b60006113a887828801611225565b94505060206113b987828801611225565b93505060406113ca87828801611225565b925050606085013567ffffffffffffffff8111156113eb576113ea6111ff565b5b6113f787828801611352565b91505092959194509250565b600073ffffffffffffffffffffffffffffffffffffffff82169050919050565b6000819050919050565b600061144861144361143e84611403565b611423565b611403565b9050919050565b600061145a8261142d565b9050919050565b600061146c8261144f565b9050919050565b61147c81611461565b82525050565b60006020820190506114976000830184611473565b92915050565b60006114a88261144f565b9050919050565b6114b88161149d565b82525050565b60006020820190506114d360008301846114af565b92915050565b60006114e482611403565b9050919050565b6114f4816114d9565b81146114ff57600080fd5b50565b600081359050611511816114eb565b92915050565b60006020828403121561152d5761152c6111fa565b5b600061153b84828501611502565b91505092915050565b6000819050919050565b61155781611544565b82525050565b6000604082019050611572600083018561154e565b61157f602083018461154e565b9392505050565b60006115918261144f565b9050919050565b6115a181611586565b82525050565b60006020820190506115bc6000830184611598565b92915050565b600080604083850312156115d9576115d86111fa565b5b60006115e785828601611225565b925050602083013567ffffffffffffffff811115611608576116076111ff565b5b61161485828601611352565b9150509250929050565b60008115159050919050565b6116338161161e565b82525050565b600060208201905061164e600083018461162a565b92915050565b60008060006060848603121561166d5761166c6111fa565b5b600061167b86828701611225565b935050602061168c86828701611225565b925050604084013567ffffffffffffffff8111156116ad576116ac6111ff565b5b6116b986828701611352565b9150509250925092565b6000602082840312156116d9576116d86111fa565b5b60006116e784828501611225565b91505092915050565b6116f9816114d9565b82525050565b61170881611204565b82525050565b600060808201905061172360008301876116f0565b611730602083018661154e565b61173d604083018561162a565b61174a60608301846116ff565b95945050505050565b600067ffffffffffffffff82111561176e5761176d611255565b5b602082029050602081019050919050565b600080fd5b600061179761179284611753565b6112b5565b905080838252602082019050602084028301858111156117ba576117b961177f565b5b835b818110156117e357806117cf8882611225565b8452602084019350506020810190506117bc565b5050509392505050565b600082601f8301126118025761180161123a565b5b8135611812848260208601611784565b91505092915050565b600080600060608486031215611834576118336111fa565b5b600061184286828701611225565b935050602061185386828701611225565b925050604084013567ffffffffffffffff811115611874576118736111ff565b5b611880868287016117ed565b9150509250925092565b600082825260208201905092915050565b7f4368616c6c656e676520616c7265616479207265736f6c766564000000000000600082015250565b60006118d1601a8361188a565b91506118dc8261189b565b602082019050919050565b60006020820190508181036000830152611900816118c4565b9050919050565b61191081611544565b811461191b57600080fd5b50565b60008151905061192d81611907565b92915050565b600060208284031215611949576119486111fa565b5b60006119578482850161191e565b91505092915050565b7f4e487b7100000000000000000000000000000000000000000000000000000000600052601160045260246000fd5b600061199a82611544565b91506119a583611544565b92508282019050808211156119bd576119bc611960565b5b92915050565b7f4368616c6c656e676520706572696f64206e6f74206f76657200000000000000600082015250565b60006119f960198361188a565b9150611a04826119c3565b602082019050919050565b60006020820190508181036000830152611a28816119ec565b9050919050565b6000602082019050611a4460008301846116ff565b92915050565b60005b83811015611a68578082015181840152602081019050611a4d565b60008484015250505050565b6000611a87611a82846112d0565b6112b5565b905082815260208101848484011115611aa357611aa261123f565b5b611aae848285611a4a565b509392505050565b600082601f830112611acb57611aca61123a565b5b8151611adb848260208601611a74565b91505092915050565b600081519050611af38161120e565b92915050565b611b028161161e565b8114611b0d57600080fd5b50565b600081519050611b1f81611af9565b92915050565b600081519050611b34816114eb565b92915050565b60008060008060008060008060006101208a8c031215611b5d57611b5c6111fa565b5b60008a015167ffffffffffffffff811115611b7b57611b7a6111ff565b5b611b878c828d01611ab6565b9950506020611b988c828d01611ae4565b9850506040611ba98c828d01611ae4565b9750506060611bba8c828d0161191e565b9650506080611bcb8c828d01611b10565b95505060a0611bdc8c828d01611b10565b94505060c0611bed8c828d01611b25565b93505060e0611bfe8c828d01611ae4565b925050610100611c108c828d0161191e565b9150509295985092959850929598565b7f426174636820616c72656164792066696e616c697a6564000000000000000000600082015250565b6000611c5660178361188a565b9150611c6182611c20565b602082019050919050565b60006020820190508181036000830152611c8581611c49565b9050919050565b6000602082019050611ca1600083018461154e565b92915050565b6000602082019050611cbc60008301846116f0565b92915050565b6000819050919050565b6000611ce7611ce2611cdd84611cc2565b611423565b611544565b9050919050565b611cf781611ccc565b82525050565b6000604082019050611d1260008301856116f0565b611d1f6020830184611cee565b9392505050565b6000604082019050611d3b600083018561162a565b611d4860208301846116f0565b9392505050565b600080fd5b600080fd5b60006101008284031215611d7057611d6f611d4f565b5b611d7b6101006112b5565b90506000611d8b8482850161191e565b6000830152506020611d9f8482850161191e565b6020830152506040611db38482850161191e565b6040830152506060611dc784828501611b25565b6060830152506080611ddb8482850161191e565b60808301525060a082015167ffffffffffffffff811115611dff57611dfe611d54565b5b611e0b84828501611ab6565b60a08301525060c0611e1f8482850161191e565b60c08301525060e082015167ffffffffffffffff811115611e4357611e42611d54565b5b611e4f84828501611ab6565b60e08301525092915050565b600060208284031215611e7157611e706111fa565b5b600082015167ffffffffffffffff811115611e8f57611e8e6111ff565b5b611e9b84828501611d59565b91505092915050565b6000819050919050565b611ebf611eba82611544565b611ea4565b82525050565b60008160601b9050919050565b6000611edd82611ec5565b9050919050565b6000611eef82611ed2565b9050919050565b611f07611f02826114d9565b611ee4565b82525050565b600081519050919050565b600081905092915050565b6000611f2e82611f0d565b611f388185611f18565b9350611f48818560208601611a4a565b80840191505092915050565b6000611f60828a611eae565b602082019150611f708289611eae565b602082019150611f808288611eae565b602082019150611f908287611ef6565b601482019150611fa08286611eae565b602082019150611fb08285611f23565b9150611fbc8284611eae565b60208201915081905098975050505050505050565b600081905092915050565b7f19457468657265756d205369676e6564204d6573736167653a0a333200000000600082015250565b6000612012601c83611fd1565b915061201d82611fdc565b601c82019050919050565b6000819050919050565b61204361203e82611204565b612028565b82525050565b600061205482612005565b91506120608284612032565b60208201915081905092915050565b600060ff82169050919050565b6120858161206f565b82525050565b60006080820190506120a060008301876116ff565b6120ad602083018661207c565b6120ba60408301856116ff565b6120c760608301846116ff565b95945050505050565b60006120db82611544565b91506120e683611544565b92508282026120f481611544565b9150828204841483151761210b5761210a611960565b5b5092915050565b600061211e8285612032565b60208201915061212e8284611f23565b91508190509392505050565b7f4e6f20626f6e64206465706f7369746564000000000000000000000000000000600082015250565b600061217060118361188a565b915061217b8261213a565b602082019050919050565b6000602082019050818103600083015261219f81612163565b9050919050565b6000602082840312156121bc576121bb6111fa565b5b60006121ca84828501611ae4565b91505092915050565b7f496e76616c6964204d65726b6c652070726f6f66000000000000000000000000600082015250565b600061220960148361188a565b9150612214826121d3565b602082019050919050565b60006020820190508181036000830152612238816121fc565b9050919050565b7f496e76616c6964207369676e6174757265206c656e6774680000000000000000600082015250565b600061227560188361188a565b91506122808261223f565b602082019050919050565b600060208201905081810360008301526122a481612268565b9050919050565b7f4e487b7100000000000000000000000000000000000000000000000000000000600052603260045260246000fd5b60006122e68285612032565b6020820191506122f68284612032565b6020820191508190509392505050565b600061231182611544565b91507fffffffffffffffffffffffffffffffffffffffffffffffffffffffffffffffff820361234357612342611960565b5b60018201905091905056fea2646970667358221220fd54c5743898137100939e584dead027d39f5f87f05f332044b494b99be29bbe64736f6c63430008130033",
  "immutableReferences": {},
  "source": "// SPDX-License-Identifier: MIT\r\npragma solidity >=0.4.22 <0.9.0;\r\n\r\nimport \"./StateCommitmentChain.sol\";\r\nimport \"./CanonicalTransactionChain.sol\";\r\nimport \"./BondManager.sol\";\r\n\r\ncontract FraudVerifier {\r\n    StateCommitmentChain public stateCommitmentChain;\r\n    CanonicalTransactionChain public canonicalTransactionChain;\r\n    BondManager public bondManager;\r\n\r\n    // Challenge  : , ,   \r\n    struct Challenge {\r\n        address challenger;\r\n        uint256 timestamp;\r\n        bool resolved;\r\n        bytes32 challengedTxHash;\r\n    }\r\n\r\n    struct TransactionData {\r\n        uint256 nonce;\r\n        uint256 gasPrice;\r\n        uint256 gasLimit;\r\n        address to;\r\n        uint256 value;\r\n        bytes data;\r\n        uint256 chainId;\r\n        bytes signature; // r, s, v  \r\n    }\r\n\r\n    struct Account {\r\n        uint256 nonce;\r\n        uint256 balance;\r\n    }\r\n\r\n    mapping(address => Account) public accounts;\r\n\r\n    //   \r\n    mapping(bytes32 => Challenge) public challenges;\r\n\r\n    //     \r\n    event ChallengeInitiated(bytes32 indexed batchId, address indexed challenger, bytes32 _txHash);\r\n    //     \r\n    event ChallengeResolved(bytes32 indexed batchId, bool success, address proposer);\r\n\r\n    uint256 constant MIN_TRANSACTION_AMOUNT = 1 wei;\r\n\r\n    // ,     \r\n    constructor(address _scc, address _ctc, address _bm) {\r\n        stateCommitmentChain = StateCommitmentChain(_scc);\r\n        canonicalTransactionChain = CanonicalTransactionChain(_ctc);\r\n        bondManager = BondManager(_bm);\r\n    }\r\n\r\n    //   \r\n    function initiateChallenge(bytes32 _batchId, bytes32 _txHash, bytes32[] memory _merkleProof) public {\r\n        //    \r\n        require(bondManager.bonds(msg.sender) > 0, \"No bond deposited\");\r\n        //    \r\n        (bytes memory batchData, bytes32 stateRoot, bytes32 transactionRoot, uint256 timestamp, bool finalized, bool valid, address proposer, bytes32 batchId ,uint256 batchIndex) = stateCommitmentChain.getBatchByBatchId(_batchId);\r\n        require(!finalized, \"Batch already finalized\");\r\n        //     \r\n        require(!challenges[_batchId].resolved, \"Challenge already resolved\");\r\n\r\n        bytes32 transactionsRoot = stateCommitmentChain.getBatchTransactionsRoot(_batchId);\r\n        require(verifyMerkleProof(_merkleProof, transactionsRoot, _txHash), \"Invalid Merkle proof\");\r\n\r\n        //   \r\n        challenges[_batchId] = Challenge({\r\n            challenger: msg.sender,\r\n            timestamp: block.timestamp,\r\n            resolved: false,\r\n            challengedTxHash: _txHash\r\n        });\r\n\r\n        //    \r\n        emit ChallengeInitiated(_batchId, msg.sender, _txHash);\r\n    }\r\n\r\n    //    \r\n    function verifyStateTransition(\r\n        bytes32 _preStateRoot,\r\n        bytes32 _postStateRoot,\r\n        bytes memory _transaction\r\n    ) public pure returns (bool) {\r\n        //      \r\n        bytes32 computedPostStateRoot = keccak256(abi.encodePacked(_preStateRoot, _transaction));\r\n        //        \r\n        return computedPostStateRoot == _postStateRoot;\r\n    }\r\n\r\n    //   \r\n    function verifyTransaction(bytes32 _batchId, bytes memory _transaction) public view returns (bool) {\r\n        Challenge storage challenge = challenges[_batchId];\r\n        require(!challenge.resolved, \"Challenge already resolved\");\r\n\r\n        TransactionData memory txData = abi.decode(_transaction, (TransactionData));\r\n\r\n        bytes32 txHash = keccak256(abi.encodePacked(\r\n            txData.nonce,\r\n            txData.gasPrice,\r\n            txData.gasLimit,\r\n            txData.to,\r\n            txData.value,\r\n            txData.data,\r\n            txData.chainId\r\n        ));\r\n\r\n        if (txHash != challenge.challengedTxHash) {\r\n            return false;\r\n        }\r\n\r\n        bytes32 messageHash = keccak256(abi.encodePacked(\"\\x19Ethereum Signed Message:\\n32\", txHash));\r\n        (uint8 v, bytes32 r, bytes32 s) = splitSignature(txData.signature);\r\n        address signer = ecrecover(messageHash, v, r, s);\r\n\r\n        // 2.  \r\n        if (txData.nonce != accounts[signer].nonce) {\r\n            return false;\r\n        }\r\n        // 3.  \r\n        uint256 totalCost = txData.value + (txData.gasLimit * txData.gasPrice);\r\n        if (accounts[signer].balance < totalCost) {\r\n            return false;\r\n        }\r\n        // 4.    \r\n        if (txData.value < MIN_TRANSACTION_AMOUNT) return false;\r\n\r\n        // 5.    \r\n        if (txData.to == address(0)) return false;\r\n\r\n        // 6.     \r\n        if (signer == txData.to) return false;\r\n\r\n        // 7.  \r\n        if (txData.value + (txData.gasLimit * txData.gasPrice) < txData.value) return false;\r\n\r\n        return true;\r\n    }\r\n\r\n    function splitSignature(bytes memory sig) internal pure returns (uint8 v, bytes32 r, bytes32 s) {\r\n        require(sig.length == 65, \"Invalid signature length\");\r\n\r\n        assembly {\r\n            r := mload(add(sig, 32))\r\n            s := mload(add(sig, 64))\r\n            v := byte(0, mload(add(sig, 96)))\r\n        }\r\n    }\r\n\r\n    //   \r\n    function resolveChallenge(bytes32 _batchId, bytes32 _preStateRoot, bytes32 _postStateRoot, bytes memory _transaction) public {\r\n        Challenge storage challenge = challenges[_batchId];\r\n        require(!challenge.resolved, \"Challenge already resolved\");\r\n        require(block.timestamp >= challenge.timestamp + stateCommitmentChain.challengePeriod(), \"Challenge period not over\");\r\n    \r\n        (bytes memory batchData, bytes32 stateRoot, bytes32 transactionRoot, uint256 timestamp, bool finalized, bool valid, address proposer, bytes32 batchId, uint256 batchIndex) = stateCommitmentChain.getBatchByBatchId(_batchId);\r\n        require(!finalized, \"Batch already finalized\");\r\n    \r\n        //   \r\n        bool success = \r\n            verifyStateTransition(_preStateRoot, _postStateRoot, _transaction) \r\n            && verifyTransaction(_batchId, _transaction);\r\n    \r\n        //   \r\n        challenge.resolved = true;\r\n    \r\n        if (success) {\r\n            //      \r\n            stateCommitmentChain.finalizeBatch(batchIndex);\r\n            bondManager.withdraw(bondManager.bonds(challenge.challenger));\r\n            bondManager.updateBond(proposer, 0); //  \r\n        } else {\r\n            //  \r\n            bondManager.updateBond(challenge.challenger, 0);\r\n        }\r\n    \r\n        //    \r\n        emit ChallengeResolved(_batchId, success, proposer);\r\n    }\r\n\r\n    //      \r\n    function executeFullBatch(bytes32 _batchId) internal returns (bytes32) {\r\n        (bytes memory batchData, bytes32 stateRoot, bytes32 transactionRoot, uint256 timestamp, bool finalized, bool valid, address proposer, bytes32 batchId, uint256 batchIndex) \r\n        = stateCommitmentChain.getBatchByBatchId(_batchId);       \r\n        uint256 txCount = canonicalTransactionChain.getBatchTransactionCount(batchIndex);\r\n\r\n        bytes32 currentStateRoot = stateRoot;\r\n\r\n        for (uint256 i = 0; i < txCount; i++) {\r\n            bytes memory txData = canonicalTransactionChain.getTransaction(batchIndex, i);\r\n            TransactionData memory tx = abi.decode(txData, (TransactionData));\r\n            \r\n            executeTransaction(tx);\r\n\r\n            currentStateRoot = keccak256(abi.encodePacked(currentStateRoot, txData));\r\n        }\r\n\r\n        return currentStateRoot;\r\n    }\r\n\r\n    //   \r\n    function executeTransaction(TransactionData memory _tx) internal {\r\n        // Simplified transaction execution logic\r\n        require(_tx.value >= MIN_TRANSACTION_AMOUNT, \"Transaction value too low\");\r\n        require(_tx.to != address(0), \"Invalid recipient\");\r\n        require(_tx.to != msg.sender, \"Cannot send to self\");\r\n\r\n        Account storage sender = accounts[msg.sender];\r\n        Account storage recipient = accounts[_tx.to];\r\n\r\n        require(sender.nonce == _tx.nonce, \"Invalid nonce\");\r\n        require(sender.balance >= _tx.value + (_tx.gasLimit * _tx.gasPrice), \"Insufficient balance\");\r\n\r\n        sender.balance -= _tx.value + (_tx.gasLimit * _tx.gasPrice);\r\n        recipient.balance += _tx.value;\r\n        sender.nonce++;\r\n    }\r\n\r\n    //    \r\n    function verifyMerkleProof(bytes32[] memory proof, bytes32 root, bytes32 leaf) internal pure returns (bool) {\r\n        bytes32 computedHash = leaf;\r\n        for (uint256 i = 0; i < proof.length; i++) {\r\n            bytes32 proofElement = proof[i];\r\n            if (computedHash <= proofElement) {\r\n                computedHash = keccak256(abi.encodePacked(computedHash, proofElement));\r\n            } else {\r\n                computedHash = keccak256(abi.encodePacked(proofElement, computedHash));\r\n            }\r\n        }\r\n        return computedHash == root;\r\n    }\r\n}\r\n",
  "sourcePath": "C:\\Users\\Jaewon.DESKTOP-OT1V5PK\\Desktop\\project\\rollup\\contracts\\FraudVerifier.sol",
  "compiler": {
    "name": "solc",
    "version": "0.8.19+commit.7dd6d404.Emscripten.clang"
  },
  "schemaVersion": "3.4.16",
  "updatedAt": "2024-07-03T07:41:55.247Z",
  "networkType": "ethereum",
  "devdoc": {
    "kind": "dev",
    "methods": {},
    "version": 1
  },
  "userdoc": {
    "kind": "user",
    "methods": {},
    "version": 1
  }
}