{
  "contractName": "FraudVerifier",
  "abi": [
    {
      "inputs": [
        {
          "internalType": "address",
          "name": "_scc",
          "type": "address"
        },
        {
          "internalType": "address",
          "name": "_ctc",
          "type": "address"
        },
        {
          "internalType": "address",
          "name": "_bm",
          "type": "address"
        }
      ],
      "stateMutability": "nonpayable",
      "type": "constructor"
    },
    {
      "anonymous": false,
      "inputs": [
        {
          "indexed": true,
          "internalType": "uint256",
          "name": "batchIndex",
          "type": "uint256"
        },
        {
          "indexed": true,
          "internalType": "address",
          "name": "challenger",
          "type": "address"
        },
        {
          "indexed": false,
          "internalType": "bytes32",
          "name": "_txHash",
          "type": "bytes32"
        }
      ],
      "name": "ChallengeInitiated",
      "type": "event"
    },
    {
      "anonymous": false,
      "inputs": [
        {
          "indexed": true,
          "internalType": "uint256",
          "name": "batchIndex",
          "type": "uint256"
        },
        {
          "indexed": false,
          "internalType": "bool",
          "name": "success",
          "type": "bool"
        },
        {
          "indexed": false,
          "internalType": "address",
          "name": "proposer",
          "type": "address"
        }
      ],
      "name": "ChallengeResolved",
      "type": "event"
    },
    {
      "inputs": [
        {
          "internalType": "address",
          "name": "",
          "type": "address"
        }
      ],
      "name": "accounts",
      "outputs": [
        {
          "internalType": "uint256",
          "name": "nonce",
          "type": "uint256"
        },
        {
          "internalType": "uint256",
          "name": "balance",
          "type": "uint256"
        }
      ],
      "stateMutability": "view",
      "type": "function",
      "constant": true
    },
    {
      "inputs": [],
      "name": "bondManager",
      "outputs": [
        {
          "internalType": "contract BondManager",
          "name": "",
          "type": "address"
        }
      ],
      "stateMutability": "view",
      "type": "function",
      "constant": true
    },
    {
      "inputs": [],
      "name": "canonicalTransactionChain",
      "outputs": [
        {
          "internalType": "contract CanonicalTransactionChain",
          "name": "",
          "type": "address"
        }
      ],
      "stateMutability": "view",
      "type": "function",
      "constant": true
    },
    {
      "inputs": [
        {
          "internalType": "uint256",
          "name": "",
          "type": "uint256"
        }
      ],
      "name": "challenges",
      "outputs": [
        {
          "internalType": "address",
          "name": "challenger",
          "type": "address"
        },
        {
          "internalType": "uint256",
          "name": "timestamp",
          "type": "uint256"
        },
        {
          "internalType": "bool",
          "name": "resolved",
          "type": "bool"
        },
        {
          "internalType": "bytes32",
          "name": "challengedTxHash",
          "type": "bytes32"
        }
      ],
      "stateMutability": "view",
      "type": "function",
      "constant": true
    },
    {
      "inputs": [],
      "name": "stateCommitmentChain",
      "outputs": [
        {
          "internalType": "contract StateCommitmentChain",
          "name": "",
          "type": "address"
        }
      ],
      "stateMutability": "view",
      "type": "function",
      "constant": true
    },
    {
      "inputs": [
        {
          "internalType": "uint256",
          "name": "_batchIndex",
          "type": "uint256"
        },
        {
          "internalType": "bytes32",
          "name": "_txHash",
          "type": "bytes32"
        }
      ],
      "name": "initiateChallenge",
      "outputs": [],
      "stateMutability": "nonpayable",
      "type": "function"
    },
    {
      "inputs": [
        {
          "internalType": "bytes32",
          "name": "_preStateRoot",
          "type": "bytes32"
        },
        {
          "internalType": "bytes32",
          "name": "_postStateRoot",
          "type": "bytes32"
        },
        {
          "internalType": "bytes",
          "name": "_transaction",
          "type": "bytes"
        }
      ],
      "name": "verifyStateTransition",
      "outputs": [
        {
          "internalType": "bool",
          "name": "",
          "type": "bool"
        }
      ],
      "stateMutability": "pure",
      "type": "function",
      "constant": true
    },
    {
      "inputs": [
        {
          "internalType": "uint256",
          "name": "_batchIndex",
          "type": "uint256"
        },
        {
          "internalType": "bytes",
          "name": "_transaction",
          "type": "bytes"
        }
      ],
      "name": "verifyTransaction",
      "outputs": [
        {
          "internalType": "bool",
          "name": "",
          "type": "bool"
        }
      ],
      "stateMutability": "view",
      "type": "function",
      "constant": true
    },
    {
      "inputs": [
        {
          "internalType": "uint256",
          "name": "_batchIndex",
          "type": "uint256"
        },
        {
          "internalType": "bytes32",
          "name": "_preStateRoot",
          "type": "bytes32"
        },
        {
          "internalType": "bytes32",
          "name": "_postStateRoot",
          "type": "bytes32"
        },
        {
          "internalType": "bytes",
          "name": "_transaction",
          "type": "bytes"
        }
      ],
      "name": "resolveChallenge",
      "outputs": [],
      "stateMutability": "nonpayable",
      "type": "function"
    }
  ],
  "bytecode": "0x60806040523480156200001157600080fd5b50604051620021483803806200214883398181016040528101906200003791906200016c565b826000806101000a81548173ffffffffffffffffffffffffffffffffffffffff021916908373ffffffffffffffffffffffffffffffffffffffff16021790555081600160006101000a81548173ffffffffffffffffffffffffffffffffffffffff021916908373ffffffffffffffffffffffffffffffffffffffff16021790555080600260006101000a81548173ffffffffffffffffffffffffffffffffffffffff021916908373ffffffffffffffffffffffffffffffffffffffff160217905550505050620001c8565b600080fd5b600073ffffffffffffffffffffffffffffffffffffffff82169050919050565b6000620001348262000107565b9050919050565b620001468162000127565b81146200015257600080fd5b50565b60008151905062000166816200013b565b92915050565b60008060006060848603121562000188576200018762000102565b5b6000620001988682870162000155565b9350506020620001ab8682870162000155565b9250506040620001be8682870162000155565b9150509250925092565b611f7080620001d86000396000f3fe608060405234801561001057600080fd5b50600436106100935760003560e01c8063821b7b7311610066578063821b7b73146101215780638f1d37761461013f57806391b5742314610172578063d1c32b42146101a2578063e7048ffa146101d257610093565b80630f329ef814610098578063363cc427146100b65780635e5c06e2146100d457806361d44b2e14610105575b600080fd5b6100a06101ee565b6040516100ad91906110b6565b60405180910390f35b6100be610212565b6040516100cb91906110f2565b60405180910390f35b6100ee60048036038101906100e9919061115f565b610238565b6040516100fc9291906111a5565b60405180910390f35b61011f600480360381019061011a9190611230565b61025c565b005b6101296105bd565b6040516101369190611291565b60405180910390f35b610159600480360381019061015491906112ac565b6105e3565b6040516101699493929190611312565b60405180910390f35b61018c6004803603810190610187919061149d565b610640565b604051610199919061150c565b60405180910390f35b6101bc60048036038101906101b79190611527565b61067b565b6040516101c9919061150c565b60405180910390f35b6101ec60048036038101906101e79190611583565b6109e4565b005b60008054906101000a900473ffffffffffffffffffffffffffffffffffffffff1681565b600260009054906101000a900473ffffffffffffffffffffffffffffffffffffffff1681565b60036020528060005260406000206000915090508060000154908060010154905082565b6000600260009054906101000a900473ffffffffffffffffffffffffffffffffffffffff1673ffffffffffffffffffffffffffffffffffffffff1663fe10d774336040518263ffffffff1660e01b81526004016102b99190611606565b602060405180830381865afa1580156102d6573d6000803e3d6000fd5b505050506040513d601f19601f820116820180604052508101906102fa9190611636565b1161033a576040517f08c379a0000000000000000000000000000000000000000000000000000000008152600401610331906116c0565b60405180910390fd5b60008060008060008060008054906101000a900473ffffffffffffffffffffffffffffffffffffffff1673ffffffffffffffffffffffffffffffffffffffff16635ac44282896040518263ffffffff1660e01b815260040161039c91906116e0565b600060405180830381865afa1580156103b9573d6000803e3d6000fd5b505050506040513d6000823e3d601f19601f820116820180604052508101906103e291906117eb565b955095509550955095509550821561042f576040517f08c379a0000000000000000000000000000000000000000000000000000000008152600401610426906118e0565b60405180910390fd5b6004600089815260200190815260200160002060020160009054906101000a900460ff1615610493576040517f08c379a000000000000000000000000000000000000000000000000000000000815260040161048a9061194c565b60405180910390fd5b60405180608001604052803373ffffffffffffffffffffffffffffffffffffffff1681526020014281526020016000151581526020018860001c60001b815250600460008a815260200190815260200160002060008201518160000160006101000a81548173ffffffffffffffffffffffffffffffffffffffff021916908373ffffffffffffffffffffffffffffffffffffffff1602179055506020820151816001015560408201518160020160006101000a81548160ff021916908315150217905550606082015181600301559050503373ffffffffffffffffffffffffffffffffffffffff16887f2c04414f64cd667d580092a3c4f571baa9f27ffe4bcd8e7389e119dc7a459c1e896040516105ab919061196c565b60405180910390a35050505050505050565b600160009054906101000a900473ffffffffffffffffffffffffffffffffffffffff1681565b60046020528060005260406000206000915090508060000160009054906101000a900473ffffffffffffffffffffffffffffffffffffffff16908060010154908060020160009054906101000a900460ff16908060030154905084565b60008084836040516020016106569291906119ef565b6040516020818303038152906040528051906020012090508381149150509392505050565b6000806004600085815260200190815260200160002090508060020160009054906101000a900460ff16156106e5576040517f08c379a00000000000000000000000000000000000000000000000000000000081526004016106dc9061194c565b60405180910390fd5b6000838060200190518101906106fb9190611b23565b90506000816000015182602001518360400151846060015185608001518660a001518760c001516040516020016107389796959493929190611bd5565b6040516020818303038152906040528051906020012090508260030154811461076757600093505050506109de565b60008160405160200161077a9190611ca9565b60405160208183030381529060405280519060200120905060008060006107a48660e00151610fcf565b9250925092506000600185858585604051600081526020016040526040516107cf9493929190611ceb565b6020604051602081039080840390855afa1580156107f1573d6000803e3d6000fd5b505050602060405103519050600360008273ffffffffffffffffffffffffffffffffffffffff1673ffffffffffffffffffffffffffffffffffffffff1681526020019081526020016000206000015487600001511461085b576000985050505050505050506109de565b6000876020015188604001516108719190611d5f565b88608001516108809190611da1565b905080600360008473ffffffffffffffffffffffffffffffffffffffff1673ffffffffffffffffffffffffffffffffffffffff1681526020019081526020016000206001015410156108de57600099505050505050505050506109de565b6001886080015110156108fd57600099505050505050505050506109de565b600073ffffffffffffffffffffffffffffffffffffffff16886060015173ffffffffffffffffffffffffffffffffffffffff160361094757600099505050505050505050506109de565b876060015173ffffffffffffffffffffffffffffffffffffffff168273ffffffffffffffffffffffffffffffffffffffff160361099057600099505050505050505050506109de565b8760800151886020015189604001516109a99190611d5f565b89608001516109b89190611da1565b10156109d057600099505050505050505050506109de565b600199505050505050505050505b92915050565b60006004600086815260200190815260200160002090508060020160009054906101000a900460ff1615610a4d576040517f08c379a0000000000000000000000000000000000000000000000000000000008152600401610a449061194c565b60405180910390fd5b60008054906101000a900473ffffffffffffffffffffffffffffffffffffffff1673ffffffffffffffffffffffffffffffffffffffff1663f3f480d96040518163ffffffff1660e01b8152600401602060405180830381865afa158015610ab8573d6000803e3d6000fd5b505050506040513d601f19601f82011682018060405250810190610adc9190611636565b8160010154610aeb9190611da1565b421015610b2d576040517f08c379a0000000000000000000000000000000000000000000000000000000008152600401610b2490611e21565b60405180910390fd5b60008060008060008060008054906101000a900473ffffffffffffffffffffffffffffffffffffffff1673ffffffffffffffffffffffffffffffffffffffff16635ac442828c6040518263ffffffff1660e01b8152600401610b8f91906116e0565b600060405180830381865afa158015610bac573d6000803e3d6000fd5b505050506040513d6000823e3d601f19601f82011682018060405250810190610bd591906117eb565b9550955095509550955095508215610c22576040517f08c379a0000000000000000000000000000000000000000000000000000000008152600401610c19906118e0565b60405180910390fd5b6000610c2f8b8b8b610640565b8015610c415750610c408c8a61067b565b5b905060018860020160006101000a81548160ff0219169083151502179055508015610ed25760008054906101000a900473ffffffffffffffffffffffffffffffffffffffff1673ffffffffffffffffffffffffffffffffffffffff1663e33491a78d6040518263ffffffff1660e01b8152600401610cbf91906116e0565b600060405180830381600087803b158015610cd957600080fd5b505af1158015610ced573d6000803e3d6000fd5b50505050600260009054906101000a900473ffffffffffffffffffffffffffffffffffffffff1673ffffffffffffffffffffffffffffffffffffffff16632e1a7d4d600260009054906101000a900473ffffffffffffffffffffffffffffffffffffffff1673ffffffffffffffffffffffffffffffffffffffff1663fe10d7748b60000160009054906101000a900473ffffffffffffffffffffffffffffffffffffffff166040518263ffffffff1660e01b8152600401610dae9190611606565b602060405180830381865afa158015610dcb573d6000803e3d6000fd5b505050506040513d601f19601f82011682018060405250810190610def9190611636565b6040518263ffffffff1660e01b8152600401610e0b91906116e0565b600060405180830381600087803b158015610e2557600080fd5b505af1158015610e39573d6000803e3d6000fd5b50505050600260009054906101000a900473ffffffffffffffffffffffffffffffffffffffff1673ffffffffffffffffffffffffffffffffffffffff1663b53477368460006040518363ffffffff1660e01b8152600401610e9b929190611e7c565b600060405180830381600087803b158015610eb557600080fd5b505af1158015610ec9573d6000803e3d6000fd5b50505050610f87565b600260009054906101000a900473ffffffffffffffffffffffffffffffffffffffff1673ffffffffffffffffffffffffffffffffffffffff1663b53477368960000160009054906101000a900473ffffffffffffffffffffffffffffffffffffffff1660006040518363ffffffff1660e01b8152600401610f54929190611e7c565b600060405180830381600087803b158015610f6e57600080fd5b505af1158015610f82573d6000803e3d6000fd5b505050505b8b7f874fd3e0ba6d81d58b06aa295084dbe040084ea483a51e07e5c551498e515a3c8285604051610fb9929190611ea5565b60405180910390a2505050505050505050505050565b60008060006041845114611018576040517f08c379a000000000000000000000000000000000000000000000000000000000815260040161100f90611f1a565b60405180910390fd5b6020840151915060408401519050606084015160001a92509193909250565b600073ffffffffffffffffffffffffffffffffffffffff82169050919050565b6000819050919050565b600061107c61107761107284611037565b611057565b611037565b9050919050565b600061108e82611061565b9050919050565b60006110a082611083565b9050919050565b6110b081611095565b82525050565b60006020820190506110cb60008301846110a7565b92915050565b60006110dc82611083565b9050919050565b6110ec816110d1565b82525050565b600060208201905061110760008301846110e3565b92915050565b6000604051905090565b600080fd5b600080fd5b600061112c82611037565b9050919050565b61113c81611121565b811461114757600080fd5b50565b60008135905061115981611133565b92915050565b60006020828403121561117557611174611117565b5b60006111838482850161114a565b91505092915050565b6000819050919050565b61119f8161118c565b82525050565b60006040820190506111ba6000830185611196565b6111c76020830184611196565b9392505050565b6111d78161118c565b81146111e257600080fd5b50565b6000813590506111f4816111ce565b92915050565b6000819050919050565b61120d816111fa565b811461121857600080fd5b50565b60008135905061122a81611204565b92915050565b6000806040838503121561124757611246611117565b5b6000611255858286016111e5565b92505060206112668582860161121b565b9150509250929050565b600061127b82611083565b9050919050565b61128b81611270565b82525050565b60006020820190506112a66000830184611282565b92915050565b6000602082840312156112c2576112c1611117565b5b60006112d0848285016111e5565b91505092915050565b6112e281611121565b82525050565b60008115159050919050565b6112fd816112e8565b82525050565b61130c816111fa565b82525050565b600060808201905061132760008301876112d9565b6113346020830186611196565b61134160408301856112f4565b61134e6060830184611303565b95945050505050565b600080fd5b600080fd5b6000601f19601f8301169050919050565b7f4e487b7100000000000000000000000000000000000000000000000000000000600052604160045260246000fd5b6113aa82611361565b810181811067ffffffffffffffff821117156113c9576113c8611372565b5b80604052505050565b60006113dc61110d565b90506113e882826113a1565b919050565b600067ffffffffffffffff82111561140857611407611372565b5b61141182611361565b9050602081019050919050565b82818337600083830152505050565b600061144061143b846113ed565b6113d2565b90508281526020810184848401111561145c5761145b61135c565b5b61146784828561141e565b509392505050565b600082601f83011261148457611483611357565b5b813561149484826020860161142d565b91505092915050565b6000806000606084860312156114b6576114b5611117565b5b60006114c48682870161121b565b93505060206114d58682870161121b565b925050604084013567ffffffffffffffff8111156114f6576114f561111c565b5b6115028682870161146f565b9150509250925092565b600060208201905061152160008301846112f4565b92915050565b6000806040838503121561153e5761153d611117565b5b600061154c858286016111e5565b925050602083013567ffffffffffffffff81111561156d5761156c61111c565b5b6115798582860161146f565b9150509250929050565b6000806000806080858703121561159d5761159c611117565b5b60006115ab878288016111e5565b94505060206115bc8782880161121b565b93505060406115cd8782880161121b565b925050606085013567ffffffffffffffff8111156115ee576115ed61111c565b5b6115fa8782880161146f565b91505092959194509250565b600060208201905061161b60008301846112d9565b92915050565b600081519050611630816111ce565b92915050565b60006020828403121561164c5761164b611117565b5b600061165a84828501611621565b91505092915050565b600082825260208201905092915050565b7f4e6f20626f6e64206465706f7369746564000000000000000000000000000000600082015250565b60006116aa601183611663565b91506116b582611674565b602082019050919050565b600060208201905081810360008301526116d98161169d565b9050919050565b60006020820190506116f56000830184611196565b92915050565b60005b838110156117195780820151818401526020810190506116fe565b60008484015250505050565b6000611738611733846113ed565b6113d2565b9050828152602081018484840111156117545761175361135c565b5b61175f8482856116fb565b509392505050565b600082601f83011261177c5761177b611357565b5b815161178c848260208601611725565b91505092915050565b6000815190506117a481611204565b92915050565b6117b3816112e8565b81146117be57600080fd5b50565b6000815190506117d0816117aa565b92915050565b6000815190506117e581611133565b92915050565b60008060008060008060c0878903121561180857611807611117565b5b600087015167ffffffffffffffff8111156118265761182561111c565b5b61183289828a01611767565b965050602061184389828a01611795565b955050604061185489828a01611621565b945050606061186589828a016117c1565b935050608061187689828a016117d6565b92505060a061188789828a01611795565b9150509295509295509295565b7f426174636820616c72656164792066696e616c697a6564000000000000000000600082015250565b60006118ca601783611663565b91506118d582611894565b602082019050919050565b600060208201905081810360008301526118f9816118bd565b9050919050565b7f4368616c6c656e676520616c7265616479207265736f6c766564000000000000600082015250565b6000611936601a83611663565b915061194182611900565b602082019050919050565b6000602082019050818103600083015261196581611929565b9050919050565b60006020820190506119816000830184611303565b92915050565b6000819050919050565b6119a261199d826111fa565b611987565b82525050565b600081519050919050565b600081905092915050565b60006119c9826119a8565b6119d381856119b3565b93506119e38185602086016116fb565b80840191505092915050565b60006119fb8285611991565b602082019150611a0b82846119be565b91508190509392505050565b600080fd5b600080fd5b60006101008284031215611a3857611a37611a17565b5b611a436101006113d2565b90506000611a5384828501611621565b6000830152506020611a6784828501611621565b6020830152506040611a7b84828501611621565b6040830152506060611a8f848285016117d6565b6060830152506080611aa384828501611621565b60808301525060a082015167ffffffffffffffff811115611ac757611ac6611a1c565b5b611ad384828501611767565b60a08301525060c0611ae784828501611621565b60c08301525060e082015167ffffffffffffffff811115611b0b57611b0a611a1c565b5b611b1784828501611767565b60e08301525092915050565b600060208284031215611b3957611b38611117565b5b600082015167ffffffffffffffff811115611b5757611b5661111c565b5b611b6384828501611a21565b91505092915050565b6000819050919050565b611b87611b828261118c565b611b6c565b82525050565b60008160601b9050919050565b6000611ba582611b8d565b9050919050565b6000611bb782611b9a565b9050919050565b611bcf611bca82611121565b611bac565b82525050565b6000611be1828a611b76565b602082019150611bf18289611b76565b602082019150611c018288611b76565b602082019150611c118287611bbe565b601482019150611c218286611b76565b602082019150611c3182856119be565b9150611c3d8284611b76565b60208201915081905098975050505050505050565b600081905092915050565b7f19457468657265756d205369676e6564204d6573736167653a0a333200000000600082015250565b6000611c93601c83611c52565b9150611c9e82611c5d565b601c82019050919050565b6000611cb482611c86565b9150611cc08284611991565b60208201915081905092915050565b600060ff82169050919050565b611ce581611ccf565b82525050565b6000608082019050611d006000830187611303565b611d0d6020830186611cdc565b611d1a6040830185611303565b611d276060830184611303565b95945050505050565b7f4e487b7100000000000000000000000000000000000000000000000000000000600052601160045260246000fd5b6000611d6a8261118c565b9150611d758361118c565b9250828202611d838161118c565b91508282048414831517611d9a57611d99611d30565b5b5092915050565b6000611dac8261118c565b9150611db78361118c565b9250828201905080821115611dcf57611dce611d30565b5b92915050565b7f4368616c6c656e676520706572696f64206e6f74206f76657200000000000000600082015250565b6000611e0b601983611663565b9150611e1682611dd5565b602082019050919050565b60006020820190508181036000830152611e3a81611dfe565b9050919050565b6000819050919050565b6000611e66611e61611e5c84611e41565b611057565b61118c565b9050919050565b611e7681611e4b565b82525050565b6000604082019050611e9160008301856112d9565b611e9e6020830184611e6d565b9392505050565b6000604082019050611eba60008301856112f4565b611ec760208301846112d9565b9392505050565b7f496e76616c6964207369676e6174757265206c656e6774680000000000000000600082015250565b6000611f04601883611663565b9150611f0f82611ece565b602082019050919050565b60006020820190508181036000830152611f3381611ef7565b905091905056fea26469706673582212204c722b4de4cc9449b31aaaa52a69d4c8ef7e46fae7645434c38ad6a8e0f6450b64736f6c63430008130033",
  "immutableReferences": {},
  "source": "// SPDX-License-Identifier: MIT\r\npragma solidity >=0.4.22 <0.9.0;\r\n\r\nimport \"./StateCommitmentChain.sol\";\r\nimport \"./CanonicalTransactionChain.sol\";\r\nimport \"./BondManager.sol\";\r\n\r\ncontract FraudVerifier {\r\n    StateCommitmentChain public stateCommitmentChain;\r\n    CanonicalTransactionChain public canonicalTransactionChain;\r\n    BondManager public bondManager;\r\n\r\n    // Challenge  : , ,   \r\n    struct Challenge {\r\n        address challenger;\r\n        uint256 timestamp;\r\n        bool resolved;\r\n        bytes32 challengedTxHash;\r\n    }\r\n\r\n    struct TransactionData {\r\n        uint256 nonce;\r\n        uint256 gasPrice;\r\n        uint256 gasLimit;\r\n        address to;\r\n        uint256 value;\r\n        bytes data;\r\n        uint256 chainId;\r\n        bytes signature; // r, s, v  \r\n    }\r\n\r\n    struct Account {\r\n        uint256 nonce;\r\n        uint256 balance;\r\n    }\r\n\r\n    mapping(address => Account) public accounts;\r\n\r\n    //   \r\n    mapping(uint256 => Challenge) public challenges;\r\n\r\n    //     \r\n    event ChallengeInitiated(uint256 indexed batchIndex, address indexed challenger, bytes32 _txHash);\r\n    //     \r\n    event ChallengeResolved(uint256 indexed batchIndex, bool success, address proposer);\r\n\r\n    uint256 constant MIN_TRANSACTION_AMOUNT = 1 wei;\r\n\r\n    // ,     \r\n    constructor(address _scc, address _ctc, address _bm) {\r\n        stateCommitmentChain = StateCommitmentChain(_scc);\r\n        canonicalTransactionChain = CanonicalTransactionChain(_ctc);\r\n        bondManager = BondManager(_bm);\r\n    }\r\n\r\n    //   \r\n    function initiateChallenge(uint256 _batchIndex, bytes32 _txHash) public {\r\n        //    \r\n        require(bondManager.bonds(msg.sender) > 0, \"No bond deposited\");\r\n        //    \r\n        (bytes memory batchData, bytes32 stateRoot, uint256 timestamp, bool finalized, address proposer, bytes32 batchId) = stateCommitmentChain.getBatch(_batchIndex);\r\n        require(!finalized, \"Batch already finalized\");\r\n        //     \r\n        \r\n        require(!challenges[_batchIndex].resolved, \"Challenge already resolved\");\r\n\r\n        //   \r\n        challenges[_batchIndex] = Challenge({\r\n            challenger: msg.sender,\r\n            timestamp: block.timestamp,\r\n            resolved: false,\r\n            challengedTxHash: bytes32(uint256(_txHash))\r\n        });\r\n\r\n        //    \r\n        emit ChallengeInitiated(_batchIndex, msg.sender, _txHash);\r\n    }\r\n\r\n       //    \r\n        function verifyStateTransition(\r\n            bytes32 _preStateRoot,\r\n            bytes32 _postStateRoot,\r\n            bytes memory _transaction\r\n        ) public pure returns (bool) {\r\n            //      \r\n            bytes32 computedPostStateRoot = keccak256(abi.encodePacked(_preStateRoot, _transaction));\r\n            //        \r\n            return computedPostStateRoot == _postStateRoot;\r\n        }\r\n\r\n     function verifyTransaction(uint256 _batchIndex, bytes memory _transaction) public view returns (bool) {\r\n        Challenge storage challenge = challenges[_batchIndex];\r\n        require(!challenge.resolved, \"Challenge already resolved\");\r\n\r\n        TransactionData memory txData = abi.decode(_transaction, (TransactionData));\r\n\r\n        bytes32 txHash = keccak256(abi.encodePacked(\r\n            txData.nonce,\r\n            txData.gasPrice,\r\n            txData.gasLimit,\r\n            txData.to,\r\n            txData.value,\r\n            txData.data,\r\n            txData.chainId\r\n        ));\r\n\r\n        if (txHash != challenge.challengedTxHash) {\r\n        return false;\r\n    }\r\n\r\n       bytes32 messageHash = keccak256(abi.encodePacked(\"\\x19Ethereum Signed Message:\\n32\", txHash));\r\n       (uint8 v, bytes32 r, bytes32 s) = splitSignature(txData.signature);\r\n       address signer = ecrecover(messageHash, v, r, s);\r\n\r\n        // 2.  \r\n        if (txData.nonce != accounts[signer].nonce) {\r\n                return false;\r\n            }\r\n        // 3.  \r\n        uint256 totalCost = txData.value + (txData.gasLimit * txData.gasPrice);\r\n        if (accounts[signer].balance < totalCost) {\r\n             return false;\r\n        }\r\n        // 4.    \r\n        if (txData.value < MIN_TRANSACTION_AMOUNT) return false;\r\n\r\n        // 5.    \r\n        if (txData.to == address(0)) return false;\r\n\r\n        // 6.     \r\n        if (signer == txData.to) return false;\r\n\r\n        // 7.  \r\n        if (txData.value + (txData.gasLimit * txData.gasPrice) < txData.value) return false;\r\n\r\n        return true;\r\n        \r\n        //return canonicalTransactionChain.isValidTransaction(_transaction);\r\n    }\r\n\r\n    function splitSignature(bytes memory sig) internal pure returns (uint8 v, bytes32 r, bytes32 s) {\r\n        require(sig.length == 65, \"Invalid signature length\");\r\n\r\n        assembly {\r\n            r := mload(add(sig, 32))\r\n            s := mload(add(sig, 64))\r\n            v := byte(0, mload(add(sig, 96)))\r\n        }\r\n    }\r\n\r\n    //   \r\n    function resolveChallenge(uint256 _batchIndex, bytes32 _preStateRoot, bytes32 _postStateRoot, bytes memory _transaction) public {\r\n        Challenge storage challenge = challenges[_batchIndex];\r\n        require(!challenge.resolved, \"Challenge already resolved\");\r\n        require(block.timestamp >= challenge.timestamp + stateCommitmentChain.challengePeriod(), \"Challenge period not over\");\r\n\r\n        (bytes memory batchData, bytes32 stateRoot, uint256 timestamp, bool finalized, address proposer, bytes32 batchId) = stateCommitmentChain.getBatch(_batchIndex);\r\n        require(!finalized, \"Batch already finalized\");\r\n\r\n        //  \r\n        bool success = verifyStateTransition(_preStateRoot, _postStateRoot, _transaction) && verifyTransaction(_batchIndex, _transaction);\r\n\r\n        //   \r\n        challenge.resolved = true;\r\n\r\n        //( , , , address proposer) = stateCommitmentChain.batches(_batchIndex);\r\n\r\n        if (success) {\r\n            //      \r\n            stateCommitmentChain.finalizeBatch(_batchIndex);\r\n            bondManager.withdraw(bondManager.bonds(challenge.challenger));\r\n            bondManager.updateBond(proposer, 0); //  \r\n        } else {\r\n            //  \r\n            bondManager.updateBond(challenge.challenger, 0);\r\n        }\r\n\r\n        //    \r\n        emit ChallengeResolved(_batchIndex, success, proposer);\r\n    }\r\n}\r\n",
  "sourcePath": "C:\\Users\\Jaewon.DESKTOP-OT1V5PK\\Desktop\\project\\rollup\\contracts\\FraudVerifier.sol",
  "compiler": {
    "name": "solc",
    "version": "0.8.19+commit.7dd6d404.Emscripten.clang"
  },
  "schemaVersion": "3.4.16",
  "updatedAt": "2024-06-30T09:49:15.930Z",
  "networkType": "ethereum",
  "devdoc": {
    "kind": "dev",
    "methods": {},
    "version": 1
  },
  "userdoc": {
    "kind": "user",
    "methods": {},
    "version": 1
  }
}