{
  "contractName": "FraudVerifier",
  "abi": [
    {
      "inputs": [
        {
          "internalType": "address",
          "name": "_scc",
          "type": "address"
        },
        {
          "internalType": "address",
          "name": "_ctc",
          "type": "address"
        },
        {
          "internalType": "address",
          "name": "_bm",
          "type": "address"
        }
      ],
      "stateMutability": "nonpayable",
      "type": "constructor"
    },
    {
      "anonymous": false,
      "inputs": [
        {
          "indexed": true,
          "internalType": "uint256",
          "name": "batchIndex",
          "type": "uint256"
        },
        {
          "indexed": true,
          "internalType": "address",
          "name": "challenger",
          "type": "address"
        },
        {
          "indexed": false,
          "internalType": "bytes32",
          "name": "_txHash",
          "type": "bytes32"
        }
      ],
      "name": "ChallengeInitiated",
      "type": "event"
    },
    {
      "anonymous": false,
      "inputs": [
        {
          "indexed": true,
          "internalType": "uint256",
          "name": "batchIndex",
          "type": "uint256"
        },
        {
          "indexed": false,
          "internalType": "bool",
          "name": "success",
          "type": "bool"
        },
        {
          "indexed": false,
          "internalType": "address",
          "name": "proposer",
          "type": "address"
        }
      ],
      "name": "ChallengeResolved",
      "type": "event"
    },
    {
      "inputs": [
        {
          "internalType": "address",
          "name": "",
          "type": "address"
        }
      ],
      "name": "accounts",
      "outputs": [
        {
          "internalType": "uint256",
          "name": "nonce",
          "type": "uint256"
        },
        {
          "internalType": "uint256",
          "name": "balance",
          "type": "uint256"
        }
      ],
      "stateMutability": "view",
      "type": "function",
      "constant": true
    },
    {
      "inputs": [],
      "name": "bondManager",
      "outputs": [
        {
          "internalType": "contract BondManager",
          "name": "",
          "type": "address"
        }
      ],
      "stateMutability": "view",
      "type": "function",
      "constant": true
    },
    {
      "inputs": [],
      "name": "canonicalTransactionChain",
      "outputs": [
        {
          "internalType": "contract CanonicalTransactionChain",
          "name": "",
          "type": "address"
        }
      ],
      "stateMutability": "view",
      "type": "function",
      "constant": true
    },
    {
      "inputs": [
        {
          "internalType": "uint256",
          "name": "",
          "type": "uint256"
        }
      ],
      "name": "challenges",
      "outputs": [
        {
          "internalType": "address",
          "name": "challenger",
          "type": "address"
        },
        {
          "internalType": "uint256",
          "name": "timestamp",
          "type": "uint256"
        },
        {
          "internalType": "bool",
          "name": "resolved",
          "type": "bool"
        },
        {
          "internalType": "bytes32",
          "name": "challengedTxHash",
          "type": "bytes32"
        }
      ],
      "stateMutability": "view",
      "type": "function",
      "constant": true
    },
    {
      "inputs": [],
      "name": "stateCommitmentChain",
      "outputs": [
        {
          "internalType": "contract StateCommitmentChain",
          "name": "",
          "type": "address"
        }
      ],
      "stateMutability": "view",
      "type": "function",
      "constant": true
    },
    {
      "inputs": [
        {
          "internalType": "uint256",
          "name": "_batchIndex",
          "type": "uint256"
        },
        {
          "internalType": "bytes32",
          "name": "_txHash",
          "type": "bytes32"
        },
        {
          "internalType": "bytes32[]",
          "name": "_merkleProof",
          "type": "bytes32[]"
        }
      ],
      "name": "initiateChallenge",
      "outputs": [],
      "stateMutability": "nonpayable",
      "type": "function"
    },
    {
      "inputs": [
        {
          "internalType": "bytes32",
          "name": "_preStateRoot",
          "type": "bytes32"
        },
        {
          "internalType": "bytes32",
          "name": "_postStateRoot",
          "type": "bytes32"
        },
        {
          "internalType": "bytes",
          "name": "_transaction",
          "type": "bytes"
        }
      ],
      "name": "verifyStateTransition",
      "outputs": [
        {
          "internalType": "bool",
          "name": "",
          "type": "bool"
        }
      ],
      "stateMutability": "pure",
      "type": "function",
      "constant": true
    },
    {
      "inputs": [
        {
          "internalType": "uint256",
          "name": "_batchIndex",
          "type": "uint256"
        },
        {
          "internalType": "bytes",
          "name": "_transaction",
          "type": "bytes"
        }
      ],
      "name": "verifyTransaction",
      "outputs": [
        {
          "internalType": "bool",
          "name": "",
          "type": "bool"
        }
      ],
      "stateMutability": "view",
      "type": "function",
      "constant": true
    },
    {
      "inputs": [
        {
          "internalType": "uint256",
          "name": "_batchIndex",
          "type": "uint256"
        },
        {
          "internalType": "bytes32",
          "name": "_preStateRoot",
          "type": "bytes32"
        },
        {
          "internalType": "bytes32",
          "name": "_postStateRoot",
          "type": "bytes32"
        },
        {
          "internalType": "bytes",
          "name": "_transaction",
          "type": "bytes"
        }
      ],
      "name": "resolveChallenge",
      "outputs": [],
      "stateMutability": "nonpayable",
      "type": "function"
    }
  ],
  "bytecode": "0x60806040523480156200001157600080fd5b50604051620025553803806200255583398181016040528101906200003791906200016c565b826000806101000a81548173ffffffffffffffffffffffffffffffffffffffff021916908373ffffffffffffffffffffffffffffffffffffffff16021790555081600160006101000a81548173ffffffffffffffffffffffffffffffffffffffff021916908373ffffffffffffffffffffffffffffffffffffffff16021790555080600260006101000a81548173ffffffffffffffffffffffffffffffffffffffff021916908373ffffffffffffffffffffffffffffffffffffffff160217905550505050620001c8565b600080fd5b600073ffffffffffffffffffffffffffffffffffffffff82169050919050565b6000620001348262000107565b9050919050565b620001468162000127565b81146200015257600080fd5b50565b60008151905062000166816200013b565b92915050565b60008060006060848603121562000188576200018762000102565b5b6000620001988682870162000155565b9350506020620001ab8682870162000155565b9250506040620001be8682870162000155565b9150509250925092565b61237d80620001d86000396000f3fe608060405234801561001057600080fd5b50600436106100935760003560e01c80638dd434dd116100665780638dd434dd146101235780638f1d37761461013f57806391b5742314610172578063d1c32b42146101a2578063e7048ffa146101d257610093565b80630f329ef814610098578063363cc427146100b65780635e5c06e2146100d4578063821b7b7314610105575b600080fd5b6100a06101ee565b6040516100ad9190611267565b60405180910390f35b6100be610212565b6040516100cb91906112a3565b60405180910390f35b6100ee60048036038101906100e99190611310565b610238565b6040516100fc929190611356565b60405180910390f35b61010d61025c565b60405161011a91906113a0565b60405180910390f35b61013d60048036038101906101389190611576565b610282565b005b610159600480360381019061015491906115e5565b6106d7565b604051610169949392919061164b565b60405180910390f35b61018c60048036038101906101879190611745565b610734565b60405161019991906117b4565b60405180910390f35b6101bc60048036038101906101b791906117cf565b61076f565b6040516101c991906117b4565b60405180910390f35b6101ec60048036038101906101e7919061182b565b610ad8565b005b60008054906101000a900473ffffffffffffffffffffffffffffffffffffffff1681565b600260009054906101000a900473ffffffffffffffffffffffffffffffffffffffff1681565b60036020528060005260406000206000915090508060000154908060010154905082565b600160009054906101000a900473ffffffffffffffffffffffffffffffffffffffff1681565b6000600260009054906101000a900473ffffffffffffffffffffffffffffffffffffffff1673ffffffffffffffffffffffffffffffffffffffff1663fe10d774336040518263ffffffff1660e01b81526004016102df91906118ae565b602060405180830381865afa1580156102fc573d6000803e3d6000fd5b505050506040513d601f19601f8201168201806040525081019061032091906118de565b11610360576040517f08c379a000000000000000000000000000000000000000000000000000000000815260040161035790611968565b60405180910390fd5b60008060008060008060008060008054906101000a900473ffffffffffffffffffffffffffffffffffffffff1673ffffffffffffffffffffffffffffffffffffffff16635ac442828c6040518263ffffffff1660e01b81526004016103c59190611988565b600060405180830381865afa1580156103e2573d6000803e3d6000fd5b505050506040513d6000823e3d601f19601f8201168201806040525081019061040b9190611a93565b97509750975097509750975097509750831561045c576040517f08c379a000000000000000000000000000000000000000000000000000000000815260040161045390611bb1565b60405180910390fd5b600460008c815260200190815260200160002060020160009054906101000a900460ff16156104c0576040517f08c379a00000000000000000000000000000000000000000000000000000000081526004016104b790611c1d565b60405180910390fd5b60008060009054906101000a900473ffffffffffffffffffffffffffffffffffffffff1673ffffffffffffffffffffffffffffffffffffffff16638cdac5078d6040518263ffffffff1660e01b815260040161051c9190611988565b602060405180830381865afa158015610539573d6000803e3d6000fd5b505050506040513d601f19601f8201168201806040525081019061055d9190611c3d565b905061056a8a828d6110ca565b6105a9576040517f08c379a00000000000000000000000000000000000000000000000000000000081526004016105a090611cb6565b60405180910390fd5b60405180608001604052803373ffffffffffffffffffffffffffffffffffffffff1681526020014281526020016000151581526020018c60001c60001b815250600460008e815260200190815260200160002060008201518160000160006101000a81548173ffffffffffffffffffffffffffffffffffffffff021916908373ffffffffffffffffffffffffffffffffffffffff1602179055506020820151816001015560408201518160020160006101000a81548160ff021916908315150217905550606082015181600301559050503373ffffffffffffffffffffffffffffffffffffffff168c7f2c04414f64cd667d580092a3c4f571baa9f27ffe4bcd8e7389e119dc7a459c1e8d6040516106c19190611cd6565b60405180910390a3505050505050505050505050565b60046020528060005260406000206000915090508060000160009054906101000a900473ffffffffffffffffffffffffffffffffffffffff16908060010154908060020160009054906101000a900460ff16908060030154905084565b600080848360405160200161074a929190611d59565b6040516020818303038152906040528051906020012090508381149150509392505050565b6000806004600085815260200190815260200160002090508060020160009054906101000a900460ff16156107d9576040517f08c379a00000000000000000000000000000000000000000000000000000000081526004016107d090611c1d565b60405180910390fd5b6000838060200190518101906107ef9190611e8d565b90506000816000015182602001518360400151846060015185608001518660a001518760c0015160405160200161082c9796959493929190611f3f565b6040516020818303038152906040528051906020012090508260030154811461085b5760009350505050610ad2565b60008160405160200161086e9190612013565b60405160208183030381529060405280519060200120905060008060006108988660e00151611180565b9250925092506000600185858585604051600081526020016040526040516108c39493929190612055565b6020604051602081039080840390855afa1580156108e5573d6000803e3d6000fd5b505050602060405103519050600360008273ffffffffffffffffffffffffffffffffffffffff1673ffffffffffffffffffffffffffffffffffffffff1681526020019081526020016000206000015487600001511461094f57600098505050505050505050610ad2565b60008760200151886040015161096591906120c9565b8860800151610974919061210b565b905080600360008473ffffffffffffffffffffffffffffffffffffffff1673ffffffffffffffffffffffffffffffffffffffff1681526020019081526020016000206001015410156109d25760009950505050505050505050610ad2565b6001886080015110156109f15760009950505050505050505050610ad2565b600073ffffffffffffffffffffffffffffffffffffffff16886060015173ffffffffffffffffffffffffffffffffffffffff1603610a3b5760009950505050505050505050610ad2565b876060015173ffffffffffffffffffffffffffffffffffffffff168273ffffffffffffffffffffffffffffffffffffffff1603610a845760009950505050505050505050610ad2565b876080015188602001518960400151610a9d91906120c9565b8960800151610aac919061210b565b1015610ac45760009950505050505050505050610ad2565b600199505050505050505050505b92915050565b60006004600086815260200190815260200160002090508060020160009054906101000a900460ff1615610b41576040517f08c379a0000000000000000000000000000000000000000000000000000000008152600401610b3890611c1d565b60405180910390fd5b60008054906101000a900473ffffffffffffffffffffffffffffffffffffffff1673ffffffffffffffffffffffffffffffffffffffff1663f3f480d96040518163ffffffff1660e01b8152600401602060405180830381865afa158015610bac573d6000803e3d6000fd5b505050506040513d601f19601f82011682018060405250810190610bd091906118de565b8160010154610bdf919061210b565b421015610c21576040517f08c379a0000000000000000000000000000000000000000000000000000000008152600401610c189061218b565b60405180910390fd5b60008060008060008060008060009054906101000a900473ffffffffffffffffffffffffffffffffffffffff1673ffffffffffffffffffffffffffffffffffffffff16635ac442828d6040518263ffffffff1660e01b8152600401610c869190611988565b600060405180830381865afa158015610ca3573d6000803e3d6000fd5b505050506040513d6000823e3d601f19601f82011682018060405250810190610ccc9190611a93565b5096509650965096509650965096508215610d1c576040517f08c379a0000000000000000000000000000000000000000000000000000000008152600401610d1390611bb1565b60405180910390fd5b6000610d298c8c8c610734565b8015610d3b5750610d3a8d8b61076f565b5b905060018960020160006101000a81548160ff0219169083151502179055508015610fcc5760008054906101000a900473ffffffffffffffffffffffffffffffffffffffff1673ffffffffffffffffffffffffffffffffffffffff1663e33491a78e6040518263ffffffff1660e01b8152600401610db99190611988565b600060405180830381600087803b158015610dd357600080fd5b505af1158015610de7573d6000803e3d6000fd5b50505050600260009054906101000a900473ffffffffffffffffffffffffffffffffffffffff1673ffffffffffffffffffffffffffffffffffffffff16632e1a7d4d600260009054906101000a900473ffffffffffffffffffffffffffffffffffffffff1673ffffffffffffffffffffffffffffffffffffffff1663fe10d7748c60000160009054906101000a900473ffffffffffffffffffffffffffffffffffffffff166040518263ffffffff1660e01b8152600401610ea891906118ae565b602060405180830381865afa158015610ec5573d6000803e3d6000fd5b505050506040513d601f19601f82011682018060405250810190610ee991906118de565b6040518263ffffffff1660e01b8152600401610f059190611988565b600060405180830381600087803b158015610f1f57600080fd5b505af1158015610f33573d6000803e3d6000fd5b50505050600260009054906101000a900473ffffffffffffffffffffffffffffffffffffffff1673ffffffffffffffffffffffffffffffffffffffff1663b53477368360006040518363ffffffff1660e01b8152600401610f959291906121e6565b600060405180830381600087803b158015610faf57600080fd5b505af1158015610fc3573d6000803e3d6000fd5b50505050611081565b600260009054906101000a900473ffffffffffffffffffffffffffffffffffffffff1673ffffffffffffffffffffffffffffffffffffffff1663b53477368a60000160009054906101000a900473ffffffffffffffffffffffffffffffffffffffff1660006040518363ffffffff1660e01b815260040161104e9291906121e6565b600060405180830381600087803b15801561106857600080fd5b505af115801561107c573d6000803e3d6000fd5b505050505b8c7f874fd3e0ba6d81d58b06aa295084dbe040084ea483a51e07e5c551498e515a3c82846040516110b392919061220f565b60405180910390a250505050505050505050505050565b60008082905060005b85518110156111725760008682815181106110f1576110f0612238565b5b60200260200101519050808311611132578281604051602001611115929190612267565b60405160208183030381529060405280519060200120925061115e565b8083604051602001611145929190612267565b6040516020818303038152906040528051906020012092505b50808061116a90612293565b9150506110d3565b508381149150509392505050565b600080600060418451146111c9576040517f08c379a00000000000000000000000000000000000000000000000000000000081526004016111c090612327565b60405180910390fd5b6020840151915060408401519050606084015160001a92509193909250565b600073ffffffffffffffffffffffffffffffffffffffff82169050919050565b6000819050919050565b600061122d611228611223846111e8565b611208565b6111e8565b9050919050565b600061123f82611212565b9050919050565b600061125182611234565b9050919050565b61126181611246565b82525050565b600060208201905061127c6000830184611258565b92915050565b600061128d82611234565b9050919050565b61129d81611282565b82525050565b60006020820190506112b86000830184611294565b92915050565b6000604051905090565b600080fd5b600080fd5b60006112dd826111e8565b9050919050565b6112ed816112d2565b81146112f857600080fd5b50565b60008135905061130a816112e4565b92915050565b600060208284031215611326576113256112c8565b5b6000611334848285016112fb565b91505092915050565b6000819050919050565b6113508161133d565b82525050565b600060408201905061136b6000830185611347565b6113786020830184611347565b9392505050565b600061138a82611234565b9050919050565b61139a8161137f565b82525050565b60006020820190506113b56000830184611391565b92915050565b6113c48161133d565b81146113cf57600080fd5b50565b6000813590506113e1816113bb565b92915050565b6000819050919050565b6113fa816113e7565b811461140557600080fd5b50565b600081359050611417816113f1565b92915050565b600080fd5b6000601f19601f8301169050919050565b7f4e487b7100000000000000000000000000000000000000000000000000000000600052604160045260246000fd5b61146b82611422565b810181811067ffffffffffffffff8211171561148a57611489611433565b5b80604052505050565b600061149d6112be565b90506114a98282611462565b919050565b600067ffffffffffffffff8211156114c9576114c8611433565b5b602082029050602081019050919050565b600080fd5b60006114f26114ed846114ae565b611493565b90508083825260208201905060208402830185811115611515576115146114da565b5b835b8181101561153e578061152a8882611408565b845260208401935050602081019050611517565b5050509392505050565b600082601f83011261155d5761155c61141d565b5b813561156d8482602086016114df565b91505092915050565b60008060006060848603121561158f5761158e6112c8565b5b600061159d868287016113d2565b93505060206115ae86828701611408565b925050604084013567ffffffffffffffff8111156115cf576115ce6112cd565b5b6115db86828701611548565b9150509250925092565b6000602082840312156115fb576115fa6112c8565b5b6000611609848285016113d2565b91505092915050565b61161b816112d2565b82525050565b60008115159050919050565b61163681611621565b82525050565b611645816113e7565b82525050565b60006080820190506116606000830187611612565b61166d6020830186611347565b61167a604083018561162d565b611687606083018461163c565b95945050505050565b600080fd5b600067ffffffffffffffff8211156116b0576116af611433565b5b6116b982611422565b9050602081019050919050565b82818337600083830152505050565b60006116e86116e384611695565b611493565b90508281526020810184848401111561170457611703611690565b5b61170f8482856116c6565b509392505050565b600082601f83011261172c5761172b61141d565b5b813561173c8482602086016116d5565b91505092915050565b60008060006060848603121561175e5761175d6112c8565b5b600061176c86828701611408565b935050602061177d86828701611408565b925050604084013567ffffffffffffffff81111561179e5761179d6112cd565b5b6117aa86828701611717565b9150509250925092565b60006020820190506117c9600083018461162d565b92915050565b600080604083850312156117e6576117e56112c8565b5b60006117f4858286016113d2565b925050602083013567ffffffffffffffff811115611815576118146112cd565b5b61182185828601611717565b9150509250929050565b60008060008060808587031215611845576118446112c8565b5b6000611853878288016113d2565b945050602061186487828801611408565b935050604061187587828801611408565b925050606085013567ffffffffffffffff811115611896576118956112cd565b5b6118a287828801611717565b91505092959194509250565b60006020820190506118c36000830184611612565b92915050565b6000815190506118d8816113bb565b92915050565b6000602082840312156118f4576118f36112c8565b5b6000611902848285016118c9565b91505092915050565b600082825260208201905092915050565b7f4e6f20626f6e64206465706f7369746564000000000000000000000000000000600082015250565b600061195260118361190b565b915061195d8261191c565b602082019050919050565b6000602082019050818103600083015261198181611945565b9050919050565b600060208201905061199d6000830184611347565b92915050565b60005b838110156119c15780820151818401526020810190506119a6565b60008484015250505050565b60006119e06119db84611695565b611493565b9050828152602081018484840111156119fc576119fb611690565b5b611a078482856119a3565b509392505050565b600082601f830112611a2457611a2361141d565b5b8151611a348482602086016119cd565b91505092915050565b600081519050611a4c816113f1565b92915050565b611a5b81611621565b8114611a6657600080fd5b50565b600081519050611a7881611a52565b92915050565b600081519050611a8d816112e4565b92915050565b600080600080600080600080610100898b031215611ab457611ab36112c8565b5b600089015167ffffffffffffffff811115611ad257611ad16112cd565b5b611ade8b828c01611a0f565b9850506020611aef8b828c01611a3d565b9750506040611b008b828c01611a3d565b9650506060611b118b828c016118c9565b9550506080611b228b828c01611a69565b94505060a0611b338b828c01611a69565b93505060c0611b448b828c01611a7e565b92505060e0611b558b828c01611a3d565b9150509295985092959890939650565b7f426174636820616c72656164792066696e616c697a6564000000000000000000600082015250565b6000611b9b60178361190b565b9150611ba682611b65565b602082019050919050565b60006020820190508181036000830152611bca81611b8e565b9050919050565b7f4368616c6c656e676520616c7265616479207265736f6c766564000000000000600082015250565b6000611c07601a8361190b565b9150611c1282611bd1565b602082019050919050565b60006020820190508181036000830152611c3681611bfa565b9050919050565b600060208284031215611c5357611c526112c8565b5b6000611c6184828501611a3d565b91505092915050565b7f496e76616c6964204d65726b6c652070726f6f66000000000000000000000000600082015250565b6000611ca060148361190b565b9150611cab82611c6a565b602082019050919050565b60006020820190508181036000830152611ccf81611c93565b9050919050565b6000602082019050611ceb600083018461163c565b92915050565b6000819050919050565b611d0c611d07826113e7565b611cf1565b82525050565b600081519050919050565b600081905092915050565b6000611d3382611d12565b611d3d8185611d1d565b9350611d4d8185602086016119a3565b80840191505092915050565b6000611d658285611cfb565b602082019150611d758284611d28565b91508190509392505050565b600080fd5b600080fd5b60006101008284031215611da257611da1611d81565b5b611dad610100611493565b90506000611dbd848285016118c9565b6000830152506020611dd1848285016118c9565b6020830152506040611de5848285016118c9565b6040830152506060611df984828501611a7e565b6060830152506080611e0d848285016118c9565b60808301525060a082015167ffffffffffffffff811115611e3157611e30611d86565b5b611e3d84828501611a0f565b60a08301525060c0611e51848285016118c9565b60c08301525060e082015167ffffffffffffffff811115611e7557611e74611d86565b5b611e8184828501611a0f565b60e08301525092915050565b600060208284031215611ea357611ea26112c8565b5b600082015167ffffffffffffffff811115611ec157611ec06112cd565b5b611ecd84828501611d8b565b91505092915050565b6000819050919050565b611ef1611eec8261133d565b611ed6565b82525050565b60008160601b9050919050565b6000611f0f82611ef7565b9050919050565b6000611f2182611f04565b9050919050565b611f39611f34826112d2565b611f16565b82525050565b6000611f4b828a611ee0565b602082019150611f5b8289611ee0565b602082019150611f6b8288611ee0565b602082019150611f7b8287611f28565b601482019150611f8b8286611ee0565b602082019150611f9b8285611d28565b9150611fa78284611ee0565b60208201915081905098975050505050505050565b600081905092915050565b7f19457468657265756d205369676e6564204d6573736167653a0a333200000000600082015250565b6000611ffd601c83611fbc565b915061200882611fc7565b601c82019050919050565b600061201e82611ff0565b915061202a8284611cfb565b60208201915081905092915050565b600060ff82169050919050565b61204f81612039565b82525050565b600060808201905061206a600083018761163c565b6120776020830186612046565b612084604083018561163c565b612091606083018461163c565b95945050505050565b7f4e487b7100000000000000000000000000000000000000000000000000000000600052601160045260246000fd5b60006120d48261133d565b91506120df8361133d565b92508282026120ed8161133d565b915082820484148315176121045761210361209a565b5b5092915050565b60006121168261133d565b91506121218361133d565b92508282019050808211156121395761213861209a565b5b92915050565b7f4368616c6c656e676520706572696f64206e6f74206f76657200000000000000600082015250565b600061217560198361190b565b91506121808261213f565b602082019050919050565b600060208201905081810360008301526121a481612168565b9050919050565b6000819050919050565b60006121d06121cb6121c6846121ab565b611208565b61133d565b9050919050565b6121e0816121b5565b82525050565b60006040820190506121fb6000830185611612565b61220860208301846121d7565b9392505050565b6000604082019050612224600083018561162d565b6122316020830184611612565b9392505050565b7f4e487b7100000000000000000000000000000000000000000000000000000000600052603260045260246000fd5b60006122738285611cfb565b6020820191506122838284611cfb565b6020820191508190509392505050565b600061229e8261133d565b91507fffffffffffffffffffffffffffffffffffffffffffffffffffffffffffffffff82036122d0576122cf61209a565b5b600182019050919050565b7f496e76616c6964207369676e6174757265206c656e6774680000000000000000600082015250565b600061231160188361190b565b915061231c826122db565b602082019050919050565b6000602082019050818103600083015261234081612304565b905091905056fea2646970667358221220d1544c0aa8159458ef84d2177ff49a94846ce513613a8a2756a2be605765bf5464736f6c63430008130033",
  "immutableReferences": {},
  "source": "// SPDX-License-Identifier: MIT\r\npragma solidity >=0.4.22 <0.9.0;\r\n\r\nimport \"./StateCommitmentChain.sol\";\r\nimport \"./CanonicalTransactionChain.sol\";\r\nimport \"./BondManager.sol\";\r\n\r\ncontract FraudVerifier {\r\n    StateCommitmentChain public stateCommitmentChain;\r\n    CanonicalTransactionChain public canonicalTransactionChain;\r\n    BondManager public bondManager;\r\n\r\n    // Challenge  : , ,   \r\n    struct Challenge {\r\n        address challenger;\r\n        uint256 timestamp;\r\n        bool resolved;\r\n        bytes32 challengedTxHash;\r\n    }\r\n\r\n    struct TransactionData {\r\n        uint256 nonce;\r\n        uint256 gasPrice;\r\n        uint256 gasLimit;\r\n        address to;\r\n        uint256 value;\r\n        bytes data;\r\n        uint256 chainId;\r\n        bytes signature; // r, s, v  \r\n    }\r\n\r\n    struct Account {\r\n        uint256 nonce;\r\n        uint256 balance;\r\n    }\r\n\r\n    mapping(address => Account) public accounts;\r\n\r\n    //   \r\n    mapping(uint256 => Challenge) public challenges;\r\n\r\n    //     \r\n    event ChallengeInitiated(uint256 indexed batchIndex, address indexed challenger, bytes32 _txHash);\r\n    //     \r\n    event ChallengeResolved(uint256 indexed batchIndex, bool success, address proposer);\r\n\r\n    uint256 constant MIN_TRANSACTION_AMOUNT = 1 wei;\r\n\r\n    // ,     \r\n    constructor(address _scc, address _ctc, address _bm) {\r\n        stateCommitmentChain = StateCommitmentChain(_scc);\r\n        canonicalTransactionChain = CanonicalTransactionChain(_ctc);\r\n        bondManager = BondManager(_bm);\r\n    }\r\n\r\n    //   \r\n    function initiateChallenge(uint256 _batchIndex, bytes32 _txHash, bytes32[] memory _merkleProof) public {\r\n        //    \r\n        require(bondManager.bonds(msg.sender) > 0, \"No bond deposited\");\r\n        //    \r\n        (bytes memory batchData, bytes32 stateRoot, bytes32 transactionRoot, uint256 timestamp, bool finalized, bool vaild, address proposer, bytes32 batchId) = stateCommitmentChain.getBatch(_batchIndex);\r\n        require(!finalized, \"Batch already finalized\");\r\n        //     \r\n        require(!challenges[_batchIndex].resolved, \"Challenge already resolved\");\r\n\r\n        bytes32 transactionsRoot = stateCommitmentChain.getBatchTransactionsRoot(_batchIndex);\r\n        require(verifyMerkleProof(_merkleProof, transactionsRoot, _txHash), \"Invalid Merkle proof\");\r\n\r\n        //   \r\n        challenges[_batchIndex] = Challenge({\r\n            challenger: msg.sender,\r\n            timestamp: block.timestamp,\r\n            resolved: false,\r\n            challengedTxHash: bytes32(uint256(_txHash))\r\n        });\r\n\r\n        //    \r\n        emit ChallengeInitiated(_batchIndex, msg.sender, _txHash);\r\n    }\r\n\r\n       //    \r\n        function verifyStateTransition(\r\n            bytes32 _preStateRoot,\r\n            bytes32 _postStateRoot,\r\n            bytes memory _transaction\r\n        ) public pure returns (bool) {\r\n            //      \r\n            bytes32 computedPostStateRoot = keccak256(abi.encodePacked(_preStateRoot, _transaction));\r\n            //        \r\n            return computedPostStateRoot == _postStateRoot;\r\n        }\r\n\r\n  \r\n\r\n     function verifyTransaction(uint256 _batchIndex, bytes memory _transaction) public view returns (bool) {\r\n        Challenge storage challenge = challenges[_batchIndex];\r\n        require(!challenge.resolved, \"Challenge already resolved\");\r\n\r\n        TransactionData memory txData = abi.decode(_transaction, (TransactionData));\r\n\r\n        bytes32 txHash = keccak256(abi.encodePacked(\r\n            txData.nonce,\r\n            txData.gasPrice,\r\n            txData.gasLimit,\r\n            txData.to,\r\n            txData.value,\r\n            txData.data,\r\n            txData.chainId\r\n        ));\r\n\r\n        if (txHash != challenge.challengedTxHash) {\r\n        return false;\r\n        }\r\n\r\n       bytes32 messageHash = keccak256(abi.encodePacked(\"\\x19Ethereum Signed Message:\\n32\", txHash));\r\n       (uint8 v, bytes32 r, bytes32 s) = splitSignature(txData.signature);\r\n       address signer = ecrecover(messageHash, v, r, s);\r\n\r\n        // 2.  \r\n        if (txData.nonce != accounts[signer].nonce) {\r\n                return false;\r\n            }\r\n        // 3.  \r\n        uint256 totalCost = txData.value + (txData.gasLimit * txData.gasPrice);\r\n        if (accounts[signer].balance < totalCost) {\r\n             return false;\r\n        }\r\n        // 4.    \r\n        if (txData.value < MIN_TRANSACTION_AMOUNT) return false;\r\n\r\n        // 5.    \r\n        if (txData.to == address(0)) return false;\r\n\r\n        // 6.     \r\n        if (signer == txData.to) return false;\r\n\r\n        // 7.  \r\n        if (txData.value + (txData.gasLimit * txData.gasPrice) < txData.value) return false;\r\n\r\n        return true;\r\n        \r\n    }\r\n\r\n    function splitSignature(bytes memory sig) internal pure returns (uint8 v, bytes32 r, bytes32 s) {\r\n        require(sig.length == 65, \"Invalid signature length\");\r\n\r\n        assembly {\r\n            r := mload(add(sig, 32))\r\n            s := mload(add(sig, 64))\r\n            v := byte(0, mload(add(sig, 96)))\r\n        }\r\n    }\r\n\r\n    //   \r\n    function resolveChallenge(uint256 _batchIndex, bytes32 _preStateRoot, bytes32 _postStateRoot, bytes memory _transaction) public {\r\n        Challenge storage challenge = challenges[_batchIndex];\r\n        require(!challenge.resolved, \"Challenge already resolved\");\r\n        require(block.timestamp >= challenge.timestamp + stateCommitmentChain.challengePeriod(), \"Challenge period not over\");\r\n\r\n        (bytes memory batchData, bytes32 stateRoot, bytes32 transactionRoot, uint256 timestamp, bool finalized, bool vaild, address proposer,) = stateCommitmentChain.getBatch(_batchIndex);\r\n        require(!finalized, \"Batch already finalized\");\r\n\r\n        //  \r\n        bool success = \r\n            verifyStateTransition(_preStateRoot, _postStateRoot, _transaction) \r\n            && verifyTransaction(_batchIndex, _transaction);\r\n\r\n        //   \r\n        challenge.resolved = true;\r\n\r\n        //( , , , address proposer) = stateCommitmentChain.batches(_batchIndex);\r\n\r\n        if (success) {\r\n            //      \r\n            stateCommitmentChain.finalizeBatch(_batchIndex);\r\n            bondManager.withdraw(bondManager.bonds(challenge.challenger));\r\n            bondManager.updateBond(proposer, 0); //  \r\n        } else {\r\n            //  \r\n            bondManager.updateBond(challenge.challenger, 0);\r\n        }\r\n\r\n        //    \r\n        emit ChallengeResolved(_batchIndex, success, proposer);\r\n    }\r\n\r\n     function executeFullBatch(uint256 _batchIndex) internal returns (bytes32) {\r\n        (bytes memory batchData, bytes32 stateRoot, bytes32 transactionRoot, uint256 timestamp, bool finalized, bool vaild, address proposer,) \r\n        = stateCommitmentChain.getBatch(_batchIndex);       \r\n        uint256 txCount = canonicalTransactionChain.getBatchTransactionCount(_batchIndex);\r\n\r\n        bytes32 currentStateRoot = stateRoot;\r\n\r\n        for (uint256 i = 0; i < txCount; i++) {\r\n            bytes memory txData = canonicalTransactionChain.getTransaction(_batchIndex, i);\r\n            TransactionData memory tx = abi.decode(txData, (TransactionData));\r\n            \r\n            executeTransaction(tx);\r\n\r\n            \r\n            currentStateRoot = keccak256(abi.encodePacked(currentStateRoot, txData));\r\n        }\r\n\r\n        return stateRoot;\r\n    }\r\n\r\n    function executeTransaction(TransactionData memory _tx) internal {\r\n        // Simplified transaction execution logic\r\n        require(_tx.value >= MIN_TRANSACTION_AMOUNT, \"Transaction value too low\");\r\n        require(_tx.to != address(0), \"Invalid recipient\");\r\n        require(_tx.to != msg.sender, \"Cannot send to self\");\r\n\r\n        Account storage sender = accounts[msg.sender];\r\n        Account storage recipient = accounts[_tx.to];\r\n\r\n        require(sender.nonce == _tx.nonce, \"Invalid nonce\");\r\n        require(sender.balance >= _tx.value + (_tx.gasLimit * _tx.gasPrice), \"Insufficient balance\");\r\n\r\n        sender.balance -= _tx.value + (_tx.gasLimit * _tx.gasPrice);\r\n        recipient.balance += _tx.value;\r\n        sender.nonce++;\r\n    }\r\n\r\n    function verifyMerkleProof(bytes32[] memory proof, bytes32 root, bytes32 leaf) internal pure returns (bool) {\r\n        bytes32 computedHash = leaf;\r\n        for (uint256 i = 0; i < proof.length; i++) {\r\n            bytes32 proofElement = proof[i];\r\n            if (computedHash <= proofElement) {\r\n                computedHash = keccak256(abi.encodePacked(computedHash, proofElement));\r\n            } else {\r\n                computedHash = keccak256(abi.encodePacked(proofElement, computedHash));\r\n            }\r\n        }\r\n        return computedHash == root;\r\n    }\r\n}\r\n",
  "sourcePath": "C:\\Users\\Jaewon.DESKTOP-OT1V5PK\\Desktop\\project\\rollup\\contracts\\FraudVerifier.sol",
  "compiler": {
    "name": "solc",
    "version": "0.8.19+commit.7dd6d404.Emscripten.clang"
  },
  "schemaVersion": "3.4.16",
  "updatedAt": "2024-07-03T01:17:37.302Z",
  "networkType": "ethereum",
  "devdoc": {
    "kind": "dev",
    "methods": {},
    "version": 1
  },
  "userdoc": {
    "kind": "user",
    "methods": {},
    "version": 1
  }
}