{
  "contractName": "FraudVerifier",
  "abi": [
    {
      "inputs": [
        {
          "internalType": "address",
          "name": "_scc",
          "type": "address"
        },
        {
          "internalType": "address",
          "name": "_ctc",
          "type": "address"
        },
        {
          "internalType": "address",
          "name": "_bm",
          "type": "address"
        }
      ],
      "stateMutability": "nonpayable",
      "type": "constructor"
    },
    {
      "anonymous": false,
      "inputs": [
        {
          "indexed": true,
          "internalType": "bytes32",
          "name": "batchId",
          "type": "bytes32"
        },
        {
          "indexed": true,
          "internalType": "address",
          "name": "challenger",
          "type": "address"
        },
        {
          "indexed": false,
          "internalType": "bytes32",
          "name": "_txHash",
          "type": "bytes32"
        }
      ],
      "name": "ChallengeInitiated",
      "type": "event"
    },
    {
      "anonymous": false,
      "inputs": [
        {
          "indexed": true,
          "internalType": "bytes32",
          "name": "batchId",
          "type": "bytes32"
        },
        {
          "indexed": false,
          "internalType": "bool",
          "name": "success",
          "type": "bool"
        },
        {
          "indexed": false,
          "internalType": "address",
          "name": "proposer",
          "type": "address"
        }
      ],
      "name": "ChallengeResolved",
      "type": "event"
    },
    {
      "inputs": [
        {
          "internalType": "address",
          "name": "",
          "type": "address"
        }
      ],
      "name": "accounts",
      "outputs": [
        {
          "internalType": "uint256",
          "name": "nonce",
          "type": "uint256"
        },
        {
          "internalType": "uint256",
          "name": "balance",
          "type": "uint256"
        }
      ],
      "stateMutability": "view",
      "type": "function",
      "constant": true
    },
    {
      "inputs": [],
      "name": "bondManager",
      "outputs": [
        {
          "internalType": "contract BondManager",
          "name": "",
          "type": "address"
        }
      ],
      "stateMutability": "view",
      "type": "function",
      "constant": true
    },
    {
      "inputs": [],
      "name": "canonicalTransactionChain",
      "outputs": [
        {
          "internalType": "contract CanonicalTransactionChain",
          "name": "",
          "type": "address"
        }
      ],
      "stateMutability": "view",
      "type": "function",
      "constant": true
    },
    {
      "inputs": [
        {
          "internalType": "bytes32",
          "name": "",
          "type": "bytes32"
        }
      ],
      "name": "challenges",
      "outputs": [
        {
          "internalType": "address",
          "name": "challenger",
          "type": "address"
        },
        {
          "internalType": "uint256",
          "name": "timestamp",
          "type": "uint256"
        },
        {
          "internalType": "bool",
          "name": "resolved",
          "type": "bool"
        },
        {
          "internalType": "bytes32",
          "name": "challengedTxHash",
          "type": "bytes32"
        }
      ],
      "stateMutability": "view",
      "type": "function",
      "constant": true
    },
    {
      "inputs": [],
      "name": "stateCommitmentChain",
      "outputs": [
        {
          "internalType": "contract StateCommitmentChain",
          "name": "",
          "type": "address"
        }
      ],
      "stateMutability": "view",
      "type": "function",
      "constant": true
    },
    {
      "inputs": [
        {
          "internalType": "bytes32",
          "name": "_batchId",
          "type": "bytes32"
        },
        {
          "internalType": "bytes32",
          "name": "_txHash",
          "type": "bytes32"
        },
        {
          "internalType": "bytes32[]",
          "name": "_merkleProof",
          "type": "bytes32[]"
        }
      ],
      "name": "initiateChallenge",
      "outputs": [],
      "stateMutability": "nonpayable",
      "type": "function"
    },
    {
      "inputs": [
        {
          "internalType": "bytes32",
          "name": "_preStateRoot",
          "type": "bytes32"
        },
        {
          "internalType": "bytes32",
          "name": "_postStateRoot",
          "type": "bytes32"
        },
        {
          "internalType": "bytes",
          "name": "_transaction",
          "type": "bytes"
        }
      ],
      "name": "verifyStateTransition",
      "outputs": [
        {
          "internalType": "bool",
          "name": "",
          "type": "bool"
        }
      ],
      "stateMutability": "pure",
      "type": "function",
      "constant": true
    },
    {
      "inputs": [
        {
          "internalType": "bytes32",
          "name": "_batchId",
          "type": "bytes32"
        },
        {
          "internalType": "bytes",
          "name": "_transaction",
          "type": "bytes"
        }
      ],
      "name": "verifyTransaction",
      "outputs": [
        {
          "internalType": "bool",
          "name": "",
          "type": "bool"
        }
      ],
      "stateMutability": "view",
      "type": "function",
      "constant": true
    },
    {
      "inputs": [
        {
          "internalType": "bytes32",
          "name": "_batchId",
          "type": "bytes32"
        },
        {
          "internalType": "bytes32",
          "name": "_preStateRoot",
          "type": "bytes32"
        },
        {
          "internalType": "bytes32",
          "name": "_postStateRoot",
          "type": "bytes32"
        },
        {
          "internalType": "bytes",
          "name": "_transaction",
          "type": "bytes"
        }
      ],
      "name": "resolveChallenge",
      "outputs": [],
      "stateMutability": "nonpayable",
      "type": "function"
    },
    {
      "inputs": [
        {
          "internalType": "bytes32",
          "name": "_batchId",
          "type": "bytes32"
        },
        {
          "internalType": "bytes[]",
          "name": "transactions",
          "type": "bytes[]"
        },
        {
          "internalType": "bytes32",
          "name": "_txHash",
          "type": "bytes32"
        }
      ],
      "name": "executeFullBatch",
      "outputs": [
        {
          "internalType": "bytes32",
          "name": "",
          "type": "bytes32"
        }
      ],
      "stateMutability": "nonpayable",
      "type": "function"
    }
  ],
  "bytecode": "0x60806040523480156200001157600080fd5b50604051620030a6380380620030a683398181016040528101906200003791906200016c565b826000806101000a81548173ffffffffffffffffffffffffffffffffffffffff021916908373ffffffffffffffffffffffffffffffffffffffff16021790555081600160006101000a81548173ffffffffffffffffffffffffffffffffffffffff021916908373ffffffffffffffffffffffffffffffffffffffff16021790555080600260006101000a81548173ffffffffffffffffffffffffffffffffffffffff021916908373ffffffffffffffffffffffffffffffffffffffff160217905550505050620001c8565b600080fd5b600073ffffffffffffffffffffffffffffffffffffffff82169050919050565b6000620001348262000107565b9050919050565b620001468162000127565b81146200015257600080fd5b50565b60008151905062000166816200013b565b92915050565b60008060006060848603121562000188576200018762000102565b5b6000620001988682870162000155565b9350506020620001ab8682870162000155565b9250506040620001be8682870162000155565b9150509250925092565b612ece80620001d86000396000f3fe608060405234801561001057600080fd5b506004361061009e5760003560e01c806390903f741161006657806390903f741461014a57806391b574231461017a578063b4cd8cde146101aa578063c1e69b66146101da578063d02939501461020d5761009e565b806309645b8f146100a35780630f329ef8146100bf578063363cc427146100dd5780635e5c06e2146100fb578063821b7b731461012c575b600080fd5b6100bd60048036038101906100b891906119c0565b610229565b005b6100c7610823565b6040516100d49190611ac2565b60405180910390f35b6100e5610847565b6040516100f29190611afe565b60405180910390f35b61011560048036038101906101109190611b57565b61086d565b604051610123929190611b9d565b60405180910390f35b610134610891565b6040516101419190611be7565b60405180910390f35b610164600480360381019061015f9190611c02565b6108b7565b6040516101719190611c79565b60405180910390f35b610194600480360381019061018f9190611c94565b610c20565b6040516101a19190611c79565b60405180910390f35b6101c460048036038101906101bf9190611de9565b610c5b565b6040516101d19190611e67565b60405180910390f35b6101f460048036038101906101ef9190611e82565b610f7b565b6040516102049493929190611ebe565b60405180910390f35b61022760048036038101906102229190611fc6565b610fd8565b005b60006004600086815260200190815260200160002090508060020160009054906101000a900460ff1615610292576040517f08c379a000000000000000000000000000000000000000000000000000000000815260040161028990612092565b60405180910390fd5b60008054906101000a900473ffffffffffffffffffffffffffffffffffffffff1673ffffffffffffffffffffffffffffffffffffffff1663f3f480d96040518163ffffffff1660e01b8152600401602060405180830381865afa1580156102fd573d6000803e3d6000fd5b505050506040513d601f19601f8201168201806040525081019061032191906120de565b8160010154610330919061213a565b421015610372576040517f08c379a0000000000000000000000000000000000000000000000000000000008152600401610369906121ba565b60405180910390fd5b60008060008060008060008060008060009054906101000a900473ffffffffffffffffffffffffffffffffffffffff1673ffffffffffffffffffffffffffffffffffffffff16633a5a0d878f6040518263ffffffff1660e01b81526004016103da9190611e67565b600060405180830381865afa1580156103f7573d6000803e3d6000fd5b505050506040513d6000823e3d601f19601f8201168201806040525081019061042091906122ca565b9850985098509850985098509850985098508415610473576040517f08c379a000000000000000000000000000000000000000000000000000000000815260040161046a906123fc565b60405180910390fd5b60006104808e8e8e610c20565b801561049257506104918f8d6108b7565b5b905060018b60020160006101000a81548160ff02191690831515021790555080156107235760008054906101000a900473ffffffffffffffffffffffffffffffffffffffff1673ffffffffffffffffffffffffffffffffffffffff1663e33491a7836040518263ffffffff1660e01b8152600401610510919061241c565b600060405180830381600087803b15801561052a57600080fd5b505af115801561053e573d6000803e3d6000fd5b50505050600260009054906101000a900473ffffffffffffffffffffffffffffffffffffffff1673ffffffffffffffffffffffffffffffffffffffff16632e1a7d4d600260009054906101000a900473ffffffffffffffffffffffffffffffffffffffff1673ffffffffffffffffffffffffffffffffffffffff1663fe10d7748e60000160009054906101000a900473ffffffffffffffffffffffffffffffffffffffff166040518263ffffffff1660e01b81526004016105ff9190612437565b602060405180830381865afa15801561061c573d6000803e3d6000fd5b505050506040513d601f19601f8201168201806040525081019061064091906120de565b6040518263ffffffff1660e01b815260040161065c919061241c565b600060405180830381600087803b15801561067657600080fd5b505af115801561068a573d6000803e3d6000fd5b50505050600260009054906101000a900473ffffffffffffffffffffffffffffffffffffffff1673ffffffffffffffffffffffffffffffffffffffff1663b53477368560006040518363ffffffff1660e01b81526004016106ec92919061248d565b600060405180830381600087803b15801561070657600080fd5b505af115801561071a573d6000803e3d6000fd5b505050506107d8565b600260009054906101000a900473ffffffffffffffffffffffffffffffffffffffff1673ffffffffffffffffffffffffffffffffffffffff1663b53477368c60000160009054906101000a900473ffffffffffffffffffffffffffffffffffffffff1660006040518363ffffffff1660e01b81526004016107a592919061248d565b600060405180830381600087803b1580156107bf57600080fd5b505af11580156107d3573d6000803e3d6000fd5b505050505b8e7f92380ceb902abc1fa2ff7d6bafebd3e32c266fbfd953d057aad8db65c014a9ef828660405161080a9291906124b6565b60405180910390a2505050505050505050505050505050565b60008054906101000a900473ffffffffffffffffffffffffffffffffffffffff1681565b600260009054906101000a900473ffffffffffffffffffffffffffffffffffffffff1681565b60036020528060005260406000206000915090508060000154908060010154905082565b600160009054906101000a900473ffffffffffffffffffffffffffffffffffffffff1681565b6000806004600085815260200190815260200160002090508060020160009054906101000a900460ff1615610921576040517f08c379a000000000000000000000000000000000000000000000000000000000815260040161091890612092565b60405180910390fd5b60008380602001905181019061093791906125eb565b90506000816000015182602001518360400151846060015185608001518660a001518760c0015160405160200161097497969594939291906126e4565b604051602081830303815290604052805190602001209050826003015481146109a35760009350505050610c1a565b6000816040516020016109b691906127d9565b60405160208183030381529060405280519060200120905060008060006109e08660e0015161142d565b925092509250600060018585858560405160008152602001604052604051610a0b949392919061281b565b6020604051602081039080840390855afa158015610a2d573d6000803e3d6000fd5b505050602060405103519050600360008273ffffffffffffffffffffffffffffffffffffffff1673ffffffffffffffffffffffffffffffffffffffff16815260200190815260200160002060000154876000015114610a9757600098505050505050505050610c1a565b600087602001518860400151610aad9190612860565b8860800151610abc919061213a565b905080600360008473ffffffffffffffffffffffffffffffffffffffff1673ffffffffffffffffffffffffffffffffffffffff168152602001908152602001600020600101541015610b1a5760009950505050505050505050610c1a565b600188608001511015610b395760009950505050505050505050610c1a565b600073ffffffffffffffffffffffffffffffffffffffff16886060015173ffffffffffffffffffffffffffffffffffffffff1603610b835760009950505050505050505050610c1a565b876060015173ffffffffffffffffffffffffffffffffffffffff168273ffffffffffffffffffffffffffffffffffffffff1603610bcc5760009950505050505050505050610c1a565b876080015188602001518960400151610be59190612860565b8960800151610bf4919061213a565b1015610c0c5760009950505050505050505050610c1a565b600199505050505050505050505b92915050565b6000808483604051602001610c369291906128a2565b6040516020818303038152906040528051906020012090508381149150509392505050565b60008060008060008060008060008060008054906101000a900473ffffffffffffffffffffffffffffffffffffffff1673ffffffffffffffffffffffffffffffffffffffff16633a5a0d878e6040518263ffffffff1660e01b8152600401610cc39190611e67565b600060405180830381865afa158015610ce0573d6000803e3d6000fd5b505050506040513d6000823e3d601f19601f82011682018060405250810190610d0991906122ca565b98509850985098509850985098509850985060008060009054906101000a900473ffffffffffffffffffffffffffffffffffffffff1673ffffffffffffffffffffffffffffffffffffffff16633057076d8f6040518263ffffffff1660e01b8152600401610d779190611e67565b602060405180830381865afa158015610d94573d6000803e3d6000fd5b505050506040513d601f19601f82011682018060405250810190610db891906128ca565b905060008060001b905060005b8e51811015610eb15760008f8281518110610de357610de26128f7565b5b6020026020010151806020019051810190610dfe91906125eb565b9050610e0981611495565b8381604051602001610e1b9190612a45565b604051602081830303815290604052604051602001610e3b9291906128a2565b6040516020818303038152906040528051906020012093508281604051602001610e659190612a45565b604051602081830303815290604052604051602001610e859291906128a2565b604051602081830303815290604052805190602001209250508080610ea990612a67565b915050610dc5565b508982141580610ec15750888114155b15610f655760008054906101000a900473ffffffffffffffffffffffffffffffffffffffff1673ffffffffffffffffffffffffffffffffffffffff166212d7c1848f6040518363ffffffff1660e01b8152600401610f20929190612aaf565b600060405180830381600087803b158015610f3a57600080fd5b505af1158015610f4e573d6000803e3d6000fd5b50505050819b505050505050505050505050610f74565b899b5050505050505050505050505b9392505050565b60046020528060005260406000206000915090508060000160009054906101000a900473ffffffffffffffffffffffffffffffffffffffff16908060010154908060020160009054906101000a900460ff16908060030154905084565b6000600260009054906101000a900473ffffffffffffffffffffffffffffffffffffffff1673ffffffffffffffffffffffffffffffffffffffff1663fe10d774336040518263ffffffff1660e01b81526004016110359190612437565b602060405180830381865afa158015611052573d6000803e3d6000fd5b505050506040513d601f19601f8201168201806040525081019061107691906120de565b116110b6576040517f08c379a00000000000000000000000000000000000000000000000000000000081526004016110ad90612b24565b60405180910390fd5b60008060008060008060008060008060009054906101000a900473ffffffffffffffffffffffffffffffffffffffff1673ffffffffffffffffffffffffffffffffffffffff16633a5a0d878d6040518263ffffffff1660e01b815260040161111e9190611e67565b600060405180830381865afa15801561113b573d6000803e3d6000fd5b505050506040513d6000823e3d601f19601f8201168201806040525081019061116491906122ca565b98509850985098509850985098509850985084156111b7576040517f08c379a00000000000000000000000000000000000000000000000000000000081526004016111ae906123fc565b60405180910390fd5b600460008d815260200190815260200160002060020160009054906101000a900460ff161561121b576040517f08c379a000000000000000000000000000000000000000000000000000000000815260040161121290612092565b60405180910390fd5b60008060009054906101000a900473ffffffffffffffffffffffffffffffffffffffff1673ffffffffffffffffffffffffffffffffffffffff1663983479f58e6040518263ffffffff1660e01b81526004016112779190611e67565b602060405180830381865afa158015611294573d6000803e3d6000fd5b505050506040513d601f19601f820116820180604052508101906112b891906128ca565b90506112c58b828e61177a565b611304576040517f08c379a00000000000000000000000000000000000000000000000000000000081526004016112fb90612b90565b60405180910390fd5b60405180608001604052803373ffffffffffffffffffffffffffffffffffffffff1681526020014281526020016000151581526020018d815250600460008f815260200190815260200160002060008201518160000160006101000a81548173ffffffffffffffffffffffffffffffffffffffff021916908373ffffffffffffffffffffffffffffffffffffffff1602179055506020820151816001015560408201518160020160006101000a81548160ff021916908315150217905550606082015181600301559050503373ffffffffffffffffffffffffffffffffffffffff168d7f65eac71e286b1f2370c5aefaec61245199380cbfa45f2a64e3f3156f9400edfc8e6040516114169190611e67565b60405180910390a350505050505050505050505050565b60008060006041845114611476576040517f08c379a000000000000000000000000000000000000000000000000000000000815260040161146d90612bfc565b60405180910390fd5b6020840151915060408401519050606084015160001a92509193909250565b6001816080015110156114dd576040517f08c379a00000000000000000000000000000000000000000000000000000000081526004016114d490612c68565b60405180910390fd5b600073ffffffffffffffffffffffffffffffffffffffff16816060015173ffffffffffffffffffffffffffffffffffffffff1603611550576040517f08c379a000000000000000000000000000000000000000000000000000000000815260040161154790612cd4565b60405180910390fd5b3373ffffffffffffffffffffffffffffffffffffffff16816060015173ffffffffffffffffffffffffffffffffffffffff16036115c2576040517f08c379a00000000000000000000000000000000000000000000000000000000081526004016115b990612d40565b60405180910390fd5b6000600360003373ffffffffffffffffffffffffffffffffffffffff1673ffffffffffffffffffffffffffffffffffffffff1681526020019081526020016000209050600060036000846060015173ffffffffffffffffffffffffffffffffffffffff1673ffffffffffffffffffffffffffffffffffffffff16815260200190815260200160002090508260000151826000015414611696576040517f08c379a000000000000000000000000000000000000000000000000000000000815260040161168d90612dac565b60405180910390fd5b826020015183604001516116aa9190612860565b83608001516116b9919061213a565b826001015410156116ff576040517f08c379a00000000000000000000000000000000000000000000000000000000081526004016116f690612e18565b60405180910390fd5b826020015183604001516117139190612860565b8360800151611722919061213a565b8260010160008282546117359190612e38565b925050819055508260800151816001016000828254611754919061213a565b9250508190555081600001600081548092919061177090612a67565b9190505550505050565b60008082905060005b85518110156118225760008682815181106117a1576117a06128f7565b5b602002602001015190508083116117e25782816040516020016117c5929190612e6c565b60405160208183030381529060405280519060200120925061180e565b80836040516020016117f5929190612e6c565b6040516020818303038152906040528051906020012092505b50808061181a90612a67565b915050611783565b508381149150509392505050565b6000604051905090565b600080fd5b600080fd5b6000819050919050565b61185781611844565b811461186257600080fd5b50565b6000813590506118748161184e565b92915050565b600080fd5b600080fd5b6000601f19601f8301169050919050565b7f4e487b7100000000000000000000000000000000000000000000000000000000600052604160045260246000fd5b6118cd82611884565b810181811067ffffffffffffffff821117156118ec576118eb611895565b5b80604052505050565b60006118ff611830565b905061190b82826118c4565b919050565b600067ffffffffffffffff82111561192b5761192a611895565b5b61193482611884565b9050602081019050919050565b82818337600083830152505050565b600061196361195e84611910565b6118f5565b90508281526020810184848401111561197f5761197e61187f565b5b61198a848285611941565b509392505050565b600082601f8301126119a7576119a661187a565b5b81356119b7848260208601611950565b91505092915050565b600080600080608085870312156119da576119d961183a565b5b60006119e887828801611865565b94505060206119f987828801611865565b9350506040611a0a87828801611865565b925050606085013567ffffffffffffffff811115611a2b57611a2a61183f565b5b611a3787828801611992565b91505092959194509250565b600073ffffffffffffffffffffffffffffffffffffffff82169050919050565b6000819050919050565b6000611a88611a83611a7e84611a43565b611a63565b611a43565b9050919050565b6000611a9a82611a6d565b9050919050565b6000611aac82611a8f565b9050919050565b611abc81611aa1565b82525050565b6000602082019050611ad76000830184611ab3565b92915050565b6000611ae882611a8f565b9050919050565b611af881611add565b82525050565b6000602082019050611b136000830184611aef565b92915050565b6000611b2482611a43565b9050919050565b611b3481611b19565b8114611b3f57600080fd5b50565b600081359050611b5181611b2b565b92915050565b600060208284031215611b6d57611b6c61183a565b5b6000611b7b84828501611b42565b91505092915050565b6000819050919050565b611b9781611b84565b82525050565b6000604082019050611bb26000830185611b8e565b611bbf6020830184611b8e565b9392505050565b6000611bd182611a8f565b9050919050565b611be181611bc6565b82525050565b6000602082019050611bfc6000830184611bd8565b92915050565b60008060408385031215611c1957611c1861183a565b5b6000611c2785828601611865565b925050602083013567ffffffffffffffff811115611c4857611c4761183f565b5b611c5485828601611992565b9150509250929050565b60008115159050919050565b611c7381611c5e565b82525050565b6000602082019050611c8e6000830184611c6a565b92915050565b600080600060608486031215611cad57611cac61183a565b5b6000611cbb86828701611865565b9350506020611ccc86828701611865565b925050604084013567ffffffffffffffff811115611ced57611cec61183f565b5b611cf986828701611992565b9150509250925092565b600067ffffffffffffffff821115611d1e57611d1d611895565b5b602082029050602081019050919050565b600080fd5b6000611d47611d4284611d03565b6118f5565b90508083825260208201905060208402830185811115611d6a57611d69611d2f565b5b835b81811015611db157803567ffffffffffffffff811115611d8f57611d8e61187a565b5b808601611d9c8982611992565b85526020850194505050602081019050611d6c565b5050509392505050565b600082601f830112611dd057611dcf61187a565b5b8135611de0848260208601611d34565b91505092915050565b600080600060608486031215611e0257611e0161183a565b5b6000611e1086828701611865565b935050602084013567ffffffffffffffff811115611e3157611e3061183f565b5b611e3d86828701611dbb565b9250506040611e4e86828701611865565b9150509250925092565b611e6181611844565b82525050565b6000602082019050611e7c6000830184611e58565b92915050565b600060208284031215611e9857611e9761183a565b5b6000611ea684828501611865565b91505092915050565b611eb881611b19565b82525050565b6000608082019050611ed36000830187611eaf565b611ee06020830186611b8e565b611eed6040830185611c6a565b611efa6060830184611e58565b95945050505050565b600067ffffffffffffffff821115611f1e57611f1d611895565b5b602082029050602081019050919050565b6000611f42611f3d84611f03565b6118f5565b90508083825260208201905060208402830185811115611f6557611f64611d2f565b5b835b81811015611f8e5780611f7a8882611865565b845260208401935050602081019050611f67565b5050509392505050565b600082601f830112611fad57611fac61187a565b5b8135611fbd848260208601611f2f565b91505092915050565b600080600060608486031215611fdf57611fde61183a565b5b6000611fed86828701611865565b9350506020611ffe86828701611865565b925050604084013567ffffffffffffffff81111561201f5761201e61183f565b5b61202b86828701611f98565b9150509250925092565b600082825260208201905092915050565b7f4368616c6c656e676520616c7265616479207265736f6c766564000000000000600082015250565b600061207c601a83612035565b915061208782612046565b602082019050919050565b600060208201905081810360008301526120ab8161206f565b9050919050565b6120bb81611b84565b81146120c657600080fd5b50565b6000815190506120d8816120b2565b92915050565b6000602082840312156120f4576120f361183a565b5b6000612102848285016120c9565b91505092915050565b7f4e487b7100000000000000000000000000000000000000000000000000000000600052601160045260246000fd5b600061214582611b84565b915061215083611b84565b92508282019050808211156121685761216761210b565b5b92915050565b7f4368616c6c656e676520706572696f64206e6f74206f76657200000000000000600082015250565b60006121a4601983612035565b91506121af8261216e565b602082019050919050565b600060208201905081810360008301526121d381612197565b9050919050565b60005b838110156121f85780820151818401526020810190506121dd565b60008484015250505050565b600061221761221284611910565b6118f5565b9050828152602081018484840111156122335761223261187f565b5b61223e8482856121da565b509392505050565b600082601f83011261225b5761225a61187a565b5b815161226b848260208601612204565b91505092915050565b6000815190506122838161184e565b92915050565b61229281611c5e565b811461229d57600080fd5b50565b6000815190506122af81612289565b92915050565b6000815190506122c481611b2b565b92915050565b60008060008060008060008060006101208a8c0312156122ed576122ec61183a565b5b60008a015167ffffffffffffffff81111561230b5761230a61183f565b5b6123178c828d01612246565b99505060206123288c828d01612274565b98505060406123398c828d01612274565b975050606061234a8c828d016120c9565b965050608061235b8c828d016122a0565b95505060a061236c8c828d016122a0565b94505060c061237d8c828d016122b5565b93505060e061238e8c828d01612274565b9250506101006123a08c828d016120c9565b9150509295985092959850929598565b7f426174636820616c72656164792066696e616c697a6564000000000000000000600082015250565b60006123e6601783612035565b91506123f1826123b0565b602082019050919050565b60006020820190508181036000830152612415816123d9565b9050919050565b60006020820190506124316000830184611b8e565b92915050565b600060208201905061244c6000830184611eaf565b92915050565b6000819050919050565b600061247761247261246d84612452565b611a63565b611b84565b9050919050565b6124878161245c565b82525050565b60006040820190506124a26000830185611eaf565b6124af602083018461247e565b9392505050565b60006040820190506124cb6000830185611c6a565b6124d86020830184611eaf565b9392505050565b600080fd5b600080fd5b60006101008284031215612500576124ff6124df565b5b61250b6101006118f5565b9050600061251b848285016120c9565b600083015250602061252f848285016120c9565b6020830152506040612543848285016120c9565b6040830152506060612557848285016122b5565b606083015250608061256b848285016120c9565b60808301525060a082015167ffffffffffffffff81111561258f5761258e6124e4565b5b61259b84828501612246565b60a08301525060c06125af848285016120c9565b60c08301525060e082015167ffffffffffffffff8111156125d3576125d26124e4565b5b6125df84828501612246565b60e08301525092915050565b6000602082840312156126015761260061183a565b5b600082015167ffffffffffffffff81111561261f5761261e61183f565b5b61262b848285016124e9565b91505092915050565b6000819050919050565b61264f61264a82611b84565b612634565b82525050565b60008160601b9050919050565b600061266d82612655565b9050919050565b600061267f82612662565b9050919050565b61269761269282611b19565b612674565b82525050565b600081519050919050565b600081905092915050565b60006126be8261269d565b6126c881856126a8565b93506126d88185602086016121da565b80840191505092915050565b60006126f0828a61263e565b602082019150612700828961263e565b602082019150612710828861263e565b6020820191506127208287612686565b601482019150612730828661263e565b60208201915061274082856126b3565b915061274c828461263e565b60208201915081905098975050505050505050565b600081905092915050565b7f19457468657265756d205369676e6564204d6573736167653a0a333200000000600082015250565b60006127a2601c83612761565b91506127ad8261276c565b601c82019050919050565b6000819050919050565b6127d36127ce82611844565b6127b8565b82525050565b60006127e482612795565b91506127f082846127c2565b60208201915081905092915050565b600060ff82169050919050565b612815816127ff565b82525050565b60006080820190506128306000830187611e58565b61283d602083018661280c565b61284a6040830185611e58565b6128576060830184611e58565b95945050505050565b600061286b82611b84565b915061287683611b84565b925082820261288481611b84565b9150828204841483151761289b5761289a61210b565b5b5092915050565b60006128ae82856127c2565b6020820191506128be82846126b3565b91508190509392505050565b6000602082840312156128e0576128df61183a565b5b60006128ee84828501612274565b91505092915050565b7f4e487b7100000000000000000000000000000000000000000000000000000000600052603260045260246000fd5b61292f81611b84565b82525050565b61293e81611b19565b82525050565b600082825260208201905092915050565b60006129608261269d565b61296a8185612944565b935061297a8185602086016121da565b61298381611884565b840191505092915050565b6000610100830160008301516129a76000860182612926565b5060208301516129ba6020860182612926565b5060408301516129cd6040860182612926565b5060608301516129e06060860182612935565b5060808301516129f36080860182612926565b5060a083015184820360a0860152612a0b8282612955565b91505060c0830151612a2060c0860182612926565b5060e083015184820360e0860152612a388282612955565b9150508091505092915050565b60006020820190508181036000830152612a5f818461298e565b905092915050565b6000612a7282611b84565b91507fffffffffffffffffffffffffffffffffffffffffffffffffffffffffffffffff8203612aa457612aa361210b565b5b600182019050919050565b6000604082019050612ac46000830185611b8e565b612ad16020830184611e58565b9392505050565b7f4e6f20626f6e64206465706f7369746564000000000000000000000000000000600082015250565b6000612b0e601183612035565b9150612b1982612ad8565b602082019050919050565b60006020820190508181036000830152612b3d81612b01565b9050919050565b7f496e76616c6964204d65726b6c652070726f6f66000000000000000000000000600082015250565b6000612b7a601483612035565b9150612b8582612b44565b602082019050919050565b60006020820190508181036000830152612ba981612b6d565b9050919050565b7f496e76616c6964207369676e6174757265206c656e6774680000000000000000600082015250565b6000612be6601883612035565b9150612bf182612bb0565b602082019050919050565b60006020820190508181036000830152612c1581612bd9565b9050919050565b7f5472616e73616374696f6e2076616c756520746f6f206c6f7700000000000000600082015250565b6000612c52601983612035565b9150612c5d82612c1c565b602082019050919050565b60006020820190508181036000830152612c8181612c45565b9050919050565b7f496e76616c696420726563697069656e74000000000000000000000000000000600082015250565b6000612cbe601183612035565b9150612cc982612c88565b602082019050919050565b60006020820190508181036000830152612ced81612cb1565b9050919050565b7f43616e6e6f742073656e6420746f2073656c6600000000000000000000000000600082015250565b6000612d2a601383612035565b9150612d3582612cf4565b602082019050919050565b60006020820190508181036000830152612d5981612d1d565b9050919050565b7f496e76616c6964206e6f6e636500000000000000000000000000000000000000600082015250565b6000612d96600d83612035565b9150612da182612d60565b602082019050919050565b60006020820190508181036000830152612dc581612d89565b9050919050565b7f496e73756666696369656e742062616c616e6365000000000000000000000000600082015250565b6000612e02601483612035565b9150612e0d82612dcc565b602082019050919050565b60006020820190508181036000830152612e3181612df5565b9050919050565b6000612e4382611b84565b9150612e4e83611b84565b9250828203905081811115612e6657612e6561210b565b5b92915050565b6000612e7882856127c2565b602082019150612e8882846127c2565b602082019150819050939250505056fea264697066735822122014cc013f935d3148b1cd5550af9bdd7532d37b9fab9aac65f0171249308468e964736f6c63430008130033",
  "immutableReferences": {},
  "source": "// SPDX-License-Identifier: MIT\r\npragma solidity >=0.4.22 <0.9.0;\r\n\r\nimport \"./StateCommitmentChain.sol\";\r\nimport \"./CanonicalTransactionChain.sol\";\r\nimport \"./BondManager.sol\";\r\n\r\ncontract FraudVerifier {\r\n    StateCommitmentChain public stateCommitmentChain;\r\n    CanonicalTransactionChain public canonicalTransactionChain;\r\n    BondManager public bondManager;\r\n\r\n    // Challenge  : , ,  ,   (     )\r\n    struct Challenge {\r\n        address challenger;\r\n        uint256 timestamp;\r\n        bool resolved;\r\n        bytes32 challengedTxHash;\r\n    }\r\n\r\n    struct TransactionData {\r\n        uint256 nonce;\r\n        uint256 gasPrice;\r\n        uint256 gasLimit;\r\n        address to;\r\n        uint256 value;\r\n        bytes data;\r\n        uint256 chainId;\r\n        bytes signature; // r, s, v  \r\n    }\r\n\r\n    struct Account {\r\n        uint256 nonce;\r\n        uint256 balance;\r\n    }\r\n\r\n    mapping(address => Account) public accounts;\r\n\r\n    //   \r\n    mapping(bytes32 => Challenge) public challenges;\r\n\r\n    //     \r\n    event ChallengeInitiated(bytes32 indexed batchId, address indexed challenger, bytes32 _txHash);\r\n    //     \r\n    event ChallengeResolved(bytes32 indexed batchId, bool success, address proposer);\r\n\r\n    uint256 constant MIN_TRANSACTION_AMOUNT = 1 wei;\r\n\r\n    \r\n    constructor(address _scc, address _ctc, address _bm) {\r\n        stateCommitmentChain = StateCommitmentChain(_scc);\r\n        canonicalTransactionChain = CanonicalTransactionChain(_ctc);\r\n        bondManager = BondManager(_bm);\r\n    }\r\n\r\n    //   \r\n    function initiateChallenge(bytes32 _batchId, bytes32 _txHash, bytes32[] memory _merkleProof) public {\r\n        //    \r\n        require(bondManager.bonds(msg.sender) > 0, \"No bond deposited\");\r\n        //    \r\n        (bytes memory batchData, bytes32 stateRoot, bytes32 transactionRoot, uint256 timestamp, bool finalized, bool valid, address proposer, bytes32 batchId ,uint256 batchIndex) = stateCommitmentChain.getBatchByBatchId(_batchId);\r\n        require(!finalized, \"Batch already finalized\");\r\n        //     \r\n        require(!challenges[_batchId].resolved, \"Challenge already resolved\");\r\n\r\n        bytes32 transactionsRoot = stateCommitmentChain.getBatchTransactionsRoot(_batchId);\r\n        require(verifyMerkleProof(_merkleProof, transactionsRoot, _txHash), \"Invalid Merkle proof\");\r\n        //verifier     proof \r\n\r\n        //   \r\n        challenges[_batchId] = Challenge({\r\n            challenger: msg.sender,\r\n            timestamp: block.timestamp,\r\n            resolved: false,\r\n            challengedTxHash: _txHash\r\n        });\r\n\r\n        //    \r\n        emit ChallengeInitiated(_batchId, msg.sender, _txHash);\r\n\r\n        \r\n    }\r\n\r\n    //    \r\n    function verifyStateTransition(\r\n        bytes32 _preStateRoot,\r\n        bytes32 _postStateRoot,\r\n        bytes memory _transaction\r\n    ) public pure returns (bool) {\r\n        //      \r\n        bytes32 computedPostStateRoot = keccak256(abi.encodePacked(_preStateRoot, _transaction));\r\n        //        \r\n        return computedPostStateRoot == _postStateRoot;\r\n    }\r\n\r\n    //   \r\n    function verifyTransaction(bytes32 _batchId, bytes memory _transaction) public view returns (bool) {\r\n        Challenge storage challenge = challenges[_batchId];\r\n        require(!challenge.resolved, \"Challenge already resolved\");\r\n\r\n        TransactionData memory txData = abi.decode(_transaction, (TransactionData));\r\n\r\n        bytes32 txHash = keccak256(abi.encodePacked(\r\n            txData.nonce,\r\n            txData.gasPrice,\r\n            txData.gasLimit,\r\n            txData.to,\r\n            txData.value,\r\n            txData.data,\r\n            txData.chainId\r\n        ));\r\n\r\n        if (txHash != challenge.challengedTxHash) {\r\n            return false;\r\n        }\r\n\r\n        bytes32 messageHash = keccak256(abi.encodePacked(\"\\x19Ethereum Signed Message:\\n32\", txHash));\r\n        (uint8 v, bytes32 r, bytes32 s) = splitSignature(txData.signature);\r\n        address signer = ecrecover(messageHash, v, r, s);\r\n\r\n        // 2.  \r\n        if (txData.nonce != accounts[signer].nonce) {\r\n            return false;\r\n        }\r\n        // 3.  \r\n        uint256 totalCost = txData.value + (txData.gasLimit * txData.gasPrice);\r\n        if (accounts[signer].balance < totalCost) {\r\n            return false;\r\n        }\r\n        // 4.    \r\n        if (txData.value < MIN_TRANSACTION_AMOUNT) return false;\r\n\r\n        // 5.    \r\n        if (txData.to == address(0)) return false;\r\n\r\n        // 6.     \r\n        if (signer == txData.to) return false;\r\n\r\n        // 7.  \r\n        if (txData.value + (txData.gasLimit * txData.gasPrice) < txData.value) return false;\r\n\r\n        return true;\r\n    }\r\n\r\n    function splitSignature(bytes memory sig) internal pure returns (uint8 v, bytes32 r, bytes32 s) {\r\n        require(sig.length == 65, \"Invalid signature length\");\r\n\r\n        assembly {\r\n            r := mload(add(sig, 32))\r\n            s := mload(add(sig, 64))\r\n            v := byte(0, mload(add(sig, 96)))\r\n        }\r\n    }\r\n\r\n    //   \r\n    function resolveChallenge(bytes32 _batchId, bytes32 _preStateRoot, bytes32 _postStateRoot, bytes memory _transaction) public {\r\n        Challenge storage challenge = challenges[_batchId];\r\n        require(!challenge.resolved, \"Challenge already resolved\");\r\n        require(block.timestamp >= challenge.timestamp + stateCommitmentChain.challengePeriod(), \"Challenge period not over\");\r\n    \r\n        (bytes memory batchData, bytes32 stateRoot, bytes32 transactionRoot, uint256 timestamp, bool finalized, bool valid, address proposer, bytes32 batchId, uint256 batchIndex) = stateCommitmentChain.getBatchByBatchId(_batchId);\r\n        require(!finalized, \"Batch already finalized\");\r\n    \r\n        //   \r\n        bool success = \r\n            verifyStateTransition(_preStateRoot, _postStateRoot, _transaction) \r\n            && verifyTransaction(_batchId, _transaction);\r\n    \r\n        //   \r\n        challenge.resolved = true;\r\n    \r\n        if (success) {\r\n            //      ,   finalize      \r\n            stateCommitmentChain.finalizeBatch(batchIndex);\r\n            bondManager.withdraw(bondManager.bonds(challenge.challenger));\r\n            bondManager.updateBond(proposer, 0); //  \r\n        } else {\r\n            //  \r\n            bondManager.updateBond(challenge.challenger, 0);\r\n        }\r\n    \r\n        //    \r\n        emit ChallengeResolved(_batchId, success, proposer);\r\n    }\r\n\r\n    //      ,   L1  \r\n    function executeFullBatch(bytes32 _batchId, bytes[] memory transactions, bytes32 _txHash) external returns (bytes32) {\r\n        (bytes memory batchData, bytes32 stateRoot, bytes32 transactionRoot, uint256 timestamp, bool finalized, bool valid, address proposer, bytes32 batchId, uint256 batchIndex) \r\n        = stateCommitmentChain.getBatchByBatchId(_batchId);       \r\n       // uint256 txCount = canonicalTransactionChain.getBatchTransactionCount(batchIndex);\r\n\r\n        bytes32 currentStateRoot = stateCommitmentChain.getPreviousStateRoot(_batchId);\r\n        bytes32 computedTransactionsRoot = bytes32(0);\r\n\r\n\r\n        for (uint256 i = 0; i < transactions.length; i++) {\r\n            TransactionData memory tx = abi.decode(transactions[i], (TransactionData));            \r\n            //  \r\n            executeTransaction(tx);\r\n\r\n            //    \r\n            currentStateRoot = keccak256(abi.encodePacked(currentStateRoot, abi.encode(tx)));\r\n\r\n            //      \r\n            computedTransactionsRoot = keccak256(abi.encodePacked(computedTransactionsRoot, abi.encode(tx)));\r\n        }\r\n\r\n        \r\n        if (currentStateRoot != stateRoot || computedTransactionsRoot != transactionRoot) {\r\n        //  ,  \r\n            stateCommitmentChain.invalidateBatch(batchIndex, _txHash);\r\n\r\n            return currentStateRoot;\r\n        }   \r\n\r\n        //   ,  \r\n        //emit BatchValidated(batchIndex);\r\n        return stateRoot;\r\n    }\r\n\r\n    //   ,   \r\n    function executeTransaction(TransactionData memory _tx) internal {\r\n        // Simplified transaction execution logic\r\n        require(_tx.value >= MIN_TRANSACTION_AMOUNT, \"Transaction value too low\");\r\n        require(_tx.to != address(0), \"Invalid recipient\");\r\n        require(_tx.to != msg.sender, \"Cannot send to self\");\r\n\r\n        Account storage sender = accounts[msg.sender];\r\n        Account storage recipient = accounts[_tx.to];\r\n\r\n        require(sender.nonce == _tx.nonce, \"Invalid nonce\");\r\n        require(sender.balance >= _tx.value + (_tx.gasLimit * _tx.gasPrice), \"Insufficient balance\");\r\n\r\n        sender.balance -= _tx.value + (_tx.gasLimit * _tx.gasPrice);\r\n        recipient.balance += _tx.value;\r\n        sender.nonce++;\r\n    }\r\n\r\n    //    \r\n    function verifyMerkleProof(bytes32[] memory proof, bytes32 root, bytes32 leaf) internal pure returns (bool) {\r\n        bytes32 computedHash = leaf;\r\n        for (uint256 i = 0; i < proof.length; i++) {\r\n            bytes32 proofElement = proof[i];\r\n            if (computedHash <= proofElement) {\r\n                computedHash = keccak256(abi.encodePacked(computedHash, proofElement));\r\n            } else {\r\n                computedHash = keccak256(abi.encodePacked(proofElement, computedHash));\r\n            }\r\n        }\r\n        return computedHash == root;\r\n    }\r\n}\r\n",
  "sourcePath": "C:\\Users\\Jaewon.DESKTOP-OT1V5PK\\Desktop\\project\\rollup\\contracts\\FraudVerifier.sol",
  "compiler": {
    "name": "solc",
    "version": "0.8.19+commit.7dd6d404.Emscripten.clang"
  },
  "schemaVersion": "3.4.16",
  "updatedAt": "2024-07-09T18:16:09.088Z",
  "networkType": "ethereum",
  "devdoc": {
    "kind": "dev",
    "methods": {},
    "version": 1
  },
  "userdoc": {
    "kind": "user",
    "methods": {},
    "version": 1
  }
}