{
  "contractName": "FraudVerifier",
  "abi": [
    {
      "inputs": [
        {
          "internalType": "address",
          "name": "_scc",
          "type": "address"
        },
        {
          "internalType": "address",
          "name": "_ctc",
          "type": "address"
        },
        {
          "internalType": "address",
          "name": "_bm",
          "type": "address"
        }
      ],
      "stateMutability": "nonpayable",
      "type": "constructor"
    },
    {
      "anonymous": false,
      "inputs": [
        {
          "indexed": true,
          "internalType": "uint256",
          "name": "batchIndex",
          "type": "uint256"
        },
        {
          "indexed": true,
          "internalType": "address",
          "name": "challenger",
          "type": "address"
        },
        {
          "indexed": false,
          "internalType": "bytes32",
          "name": "_txHash",
          "type": "bytes32"
        }
      ],
      "name": "ChallengeInitiated",
      "type": "event"
    },
    {
      "anonymous": false,
      "inputs": [
        {
          "indexed": true,
          "internalType": "uint256",
          "name": "batchIndex",
          "type": "uint256"
        },
        {
          "indexed": false,
          "internalType": "bool",
          "name": "success",
          "type": "bool"
        },
        {
          "indexed": false,
          "internalType": "address",
          "name": "proposer",
          "type": "address"
        }
      ],
      "name": "ChallengeResolved",
      "type": "event"
    },
    {
      "inputs": [
        {
          "internalType": "address",
          "name": "",
          "type": "address"
        }
      ],
      "name": "accounts",
      "outputs": [
        {
          "internalType": "uint256",
          "name": "nonce",
          "type": "uint256"
        },
        {
          "internalType": "uint256",
          "name": "balance",
          "type": "uint256"
        }
      ],
      "stateMutability": "view",
      "type": "function",
      "constant": true
    },
    {
      "inputs": [],
      "name": "bondManager",
      "outputs": [
        {
          "internalType": "contract BondManager",
          "name": "",
          "type": "address"
        }
      ],
      "stateMutability": "view",
      "type": "function",
      "constant": true
    },
    {
      "inputs": [],
      "name": "canonicalTransactionChain",
      "outputs": [
        {
          "internalType": "contract CanonicalTransactionChain",
          "name": "",
          "type": "address"
        }
      ],
      "stateMutability": "view",
      "type": "function",
      "constant": true
    },
    {
      "inputs": [
        {
          "internalType": "uint256",
          "name": "",
          "type": "uint256"
        }
      ],
      "name": "challenges",
      "outputs": [
        {
          "internalType": "address",
          "name": "challenger",
          "type": "address"
        },
        {
          "internalType": "uint256",
          "name": "timestamp",
          "type": "uint256"
        },
        {
          "internalType": "bool",
          "name": "resolved",
          "type": "bool"
        },
        {
          "internalType": "bytes32",
          "name": "challengedTxHash",
          "type": "bytes32"
        }
      ],
      "stateMutability": "view",
      "type": "function",
      "constant": true
    },
    {
      "inputs": [],
      "name": "stateCommitmentChain",
      "outputs": [
        {
          "internalType": "contract StateCommitmentChain",
          "name": "",
          "type": "address"
        }
      ],
      "stateMutability": "view",
      "type": "function",
      "constant": true
    },
    {
      "inputs": [
        {
          "internalType": "uint256",
          "name": "_batchIndex",
          "type": "uint256"
        },
        {
          "internalType": "bytes32",
          "name": "_txHash",
          "type": "bytes32"
        }
      ],
      "name": "initiateChallenge",
      "outputs": [],
      "stateMutability": "nonpayable",
      "type": "function"
    },
    {
      "inputs": [
        {
          "internalType": "bytes32",
          "name": "_preStateRoot",
          "type": "bytes32"
        },
        {
          "internalType": "bytes32",
          "name": "_postStateRoot",
          "type": "bytes32"
        },
        {
          "internalType": "bytes",
          "name": "_transaction",
          "type": "bytes"
        }
      ],
      "name": "verifyStateTransition",
      "outputs": [
        {
          "internalType": "bool",
          "name": "",
          "type": "bool"
        }
      ],
      "stateMutability": "nonpayable",
      "type": "function"
    },
    {
      "inputs": [
        {
          "internalType": "uint256",
          "name": "_batchIndex",
          "type": "uint256"
        },
        {
          "internalType": "bytes",
          "name": "_transaction",
          "type": "bytes"
        }
      ],
      "name": "verifyTransaction",
      "outputs": [
        {
          "internalType": "bool",
          "name": "",
          "type": "bool"
        }
      ],
      "stateMutability": "view",
      "type": "function",
      "constant": true
    },
    {
      "inputs": [
        {
          "internalType": "uint256",
          "name": "_batchIndex",
          "type": "uint256"
        },
        {
          "internalType": "bytes32",
          "name": "_preStateRoot",
          "type": "bytes32"
        },
        {
          "internalType": "bytes32",
          "name": "_postStateRoot",
          "type": "bytes32"
        },
        {
          "internalType": "bytes",
          "name": "_transaction",
          "type": "bytes"
        }
      ],
      "name": "resolveChallenge",
      "outputs": [],
      "stateMutability": "nonpayable",
      "type": "function"
    }
  ],
  "bytecode": "0x60806040523480156200001157600080fd5b506040516200209a3803806200209a83398181016040528101906200003791906200016c565b826000806101000a81548173ffffffffffffffffffffffffffffffffffffffff021916908373ffffffffffffffffffffffffffffffffffffffff16021790555081600160006101000a81548173ffffffffffffffffffffffffffffffffffffffff021916908373ffffffffffffffffffffffffffffffffffffffff16021790555080600260006101000a81548173ffffffffffffffffffffffffffffffffffffffff021916908373ffffffffffffffffffffffffffffffffffffffff160217905550505050620001c8565b600080fd5b600073ffffffffffffffffffffffffffffffffffffffff82169050919050565b6000620001348262000107565b9050919050565b620001468162000127565b81146200015257600080fd5b50565b60008151905062000166816200013b565b92915050565b60008060006060848603121562000188576200018762000102565b5b6000620001988682870162000155565b9350506020620001ab8682870162000155565b9250506040620001be8682870162000155565b9150509250925092565b611ec280620001d86000396000f3fe608060405234801561001057600080fd5b50600436106100935760003560e01c8063821b7b7311610066578063821b7b73146101215780638f1d37761461013f57806391b5742314610172578063d1c32b42146101a2578063e7048ffa146101d257610093565b80630f329ef814610098578063363cc427146100b65780635e5c06e2146100d457806361d44b2e14610105575b600080fd5b6100a06101ee565b6040516100ad919061104a565b60405180910390f35b6100be610212565b6040516100cb9190611086565b60405180910390f35b6100ee60048036038101906100e991906110f3565b610238565b6040516100fc929190611139565b60405180910390f35b61011f600480360381019061011a91906111c4565b61025c565b005b6101296105a9565b6040516101369190611225565b60405180910390f35b61015960048036038101906101549190611240565b6105cf565b60405161016994939291906112a6565b60405180910390f35b61018c60048036038101906101879190611431565b61062c565b60405161019991906114a0565b60405180910390f35b6101bc60048036038101906101b791906114bb565b610667565b6040516101c991906114a0565b60405180910390f35b6101ec60048036038101906101e79190611517565b6109d0565b005b60008054906101000a900473ffffffffffffffffffffffffffffffffffffffff1681565b600260009054906101000a900473ffffffffffffffffffffffffffffffffffffffff1681565b60036020528060005260406000206000915090508060000154908060010154905082565b6000600260009054906101000a900473ffffffffffffffffffffffffffffffffffffffff1673ffffffffffffffffffffffffffffffffffffffff1663fe10d774336040518263ffffffff1660e01b81526004016102b9919061159a565b602060405180830381865afa1580156102d6573d6000803e3d6000fd5b505050506040513d601f19601f820116820180604052508101906102fa91906115ca565b1161033a576040517f08c379a000000000000000000000000000000000000000000000000000000000815260040161033190611654565b60405180910390fd5b60008060008060008054906101000a900473ffffffffffffffffffffffffffffffffffffffff1673ffffffffffffffffffffffffffffffffffffffff1663b32c4d8d876040518263ffffffff1660e01b81526004016103999190611674565b608060405180830381865afa1580156103b6573d6000803e3d6000fd5b505050506040513d601f19601f820116820180604052508101906103da91906116e5565b93509350935093508115610423576040517f08c379a000000000000000000000000000000000000000000000000000000000815260040161041a90611798565b60405180910390fd5b6004600087815260200190815260200160002060020160009054906101000a900460ff1615610487576040517f08c379a000000000000000000000000000000000000000000000000000000000815260040161047e90611804565b60405180910390fd5b60405180608001604052803373ffffffffffffffffffffffffffffffffffffffff168152602001428152602001600015158152602001868152506004600088815260200190815260200160002060008201518160000160006101000a81548173ffffffffffffffffffffffffffffffffffffffff021916908373ffffffffffffffffffffffffffffffffffffffff1602179055506020820151816001015560408201518160020160006101000a81548160ff021916908315150217905550606082015181600301559050503373ffffffffffffffffffffffffffffffffffffffff16867f2c04414f64cd667d580092a3c4f571baa9f27ffe4bcd8e7389e119dc7a459c1e876040516105999190611824565b60405180910390a3505050505050565b600160009054906101000a900473ffffffffffffffffffffffffffffffffffffffff1681565b60046020528060005260406000206000915090508060000160009054906101000a900473ffffffffffffffffffffffffffffffffffffffff16908060010154908060020160009054906101000a900460ff16908060030154905084565b60008084836040516020016106429291906118d1565b6040516020818303038152906040528051906020012090508381149150509392505050565b6000806004600085815260200190815260200160002090508060020160009054906101000a900460ff16156106d1576040517f08c379a00000000000000000000000000000000000000000000000000000000081526004016106c890611804565b60405180910390fd5b6000838060200190518101906106e79190611a75565b90506000816000015182602001518360400151846060015185608001518660a001518760c001516040516020016107249796959493929190611b27565b6040516020818303038152906040528051906020012090508260030154811461075357600093505050506109ca565b6000816040516020016107669190611bfb565b60405160208183030381529060405280519060200120905060008060006107908660e00151610f63565b9250925092506000600185858585604051600081526020016040526040516107bb9493929190611c3d565b6020604051602081039080840390855afa1580156107dd573d6000803e3d6000fd5b505050602060405103519050600360008273ffffffffffffffffffffffffffffffffffffffff1673ffffffffffffffffffffffffffffffffffffffff16815260200190815260200160002060000154876000015114610847576000985050505050505050506109ca565b60008760200151886040015161085d9190611cb1565b886080015161086c9190611cf3565b905080600360008473ffffffffffffffffffffffffffffffffffffffff1673ffffffffffffffffffffffffffffffffffffffff1681526020019081526020016000206001015410156108ca57600099505050505050505050506109ca565b6001886080015110156108e957600099505050505050505050506109ca565b600073ffffffffffffffffffffffffffffffffffffffff16886060015173ffffffffffffffffffffffffffffffffffffffff160361093357600099505050505050505050506109ca565b876060015173ffffffffffffffffffffffffffffffffffffffff168273ffffffffffffffffffffffffffffffffffffffff160361097c57600099505050505050505050506109ca565b8760800151886020015189604001516109959190611cb1565b89608001516109a49190611cf3565b10156109bc57600099505050505050505050506109ca565b600199505050505050505050505b92915050565b60006004600086815260200190815260200160002090508060020160009054906101000a900460ff1615610a39576040517f08c379a0000000000000000000000000000000000000000000000000000000008152600401610a3090611804565b60405180910390fd5b60008054906101000a900473ffffffffffffffffffffffffffffffffffffffff1673ffffffffffffffffffffffffffffffffffffffff1663f3f480d96040518163ffffffff1660e01b8152600401602060405180830381865afa158015610aa4573d6000803e3d6000fd5b505050506040513d601f19601f82011682018060405250810190610ac891906115ca565b8160010154610ad79190611cf3565b421015610b19576040517f08c379a0000000000000000000000000000000000000000000000000000000008152600401610b1090611d73565b60405180910390fd5b6000610b2685858561062c565b8015610b385750610b378684610667565b5b905060018260020160006101000a81548160ff02191690831515021790555060008060009054906101000a900473ffffffffffffffffffffffffffffffffffffffff1673ffffffffffffffffffffffffffffffffffffffff1663b32c4d8d886040518263ffffffff1660e01b8152600401610bb39190611674565b608060405180830381865afa158015610bd0573d6000803e3d6000fd5b505050506040513d601f19601f82011682018060405250810190610bf491906116e5565b93505050508115610e6b5760008054906101000a900473ffffffffffffffffffffffffffffffffffffffff1673ffffffffffffffffffffffffffffffffffffffff1663e33491a7886040518263ffffffff1660e01b8152600401610c589190611674565b600060405180830381600087803b158015610c7257600080fd5b505af1158015610c86573d6000803e3d6000fd5b50505050600260009054906101000a900473ffffffffffffffffffffffffffffffffffffffff1673ffffffffffffffffffffffffffffffffffffffff16632e1a7d4d600260009054906101000a900473ffffffffffffffffffffffffffffffffffffffff1673ffffffffffffffffffffffffffffffffffffffff1663fe10d7748660000160009054906101000a900473ffffffffffffffffffffffffffffffffffffffff166040518263ffffffff1660e01b8152600401610d47919061159a565b602060405180830381865afa158015610d64573d6000803e3d6000fd5b505050506040513d601f19601f82011682018060405250810190610d8891906115ca565b6040518263ffffffff1660e01b8152600401610da49190611674565b600060405180830381600087803b158015610dbe57600080fd5b505af1158015610dd2573d6000803e3d6000fd5b50505050600260009054906101000a900473ffffffffffffffffffffffffffffffffffffffff1673ffffffffffffffffffffffffffffffffffffffff1663b53477368260006040518363ffffffff1660e01b8152600401610e34929190611dce565b600060405180830381600087803b158015610e4e57600080fd5b505af1158015610e62573d6000803e3d6000fd5b50505050610f20565b600260009054906101000a900473ffffffffffffffffffffffffffffffffffffffff1673ffffffffffffffffffffffffffffffffffffffff1663b53477368460000160009054906101000a900473ffffffffffffffffffffffffffffffffffffffff1660006040518363ffffffff1660e01b8152600401610eed929190611dce565b600060405180830381600087803b158015610f0757600080fd5b505af1158015610f1b573d6000803e3d6000fd5b505050505b867f874fd3e0ba6d81d58b06aa295084dbe040084ea483a51e07e5c551498e515a3c8383604051610f52929190611df7565b60405180910390a250505050505050565b60008060006041845114610fac576040517f08c379a0000000000000000000000000000000000000000000000000000000008152600401610fa390611e6c565b60405180910390fd5b6020840151915060408401519050606084015160001a92509193909250565b600073ffffffffffffffffffffffffffffffffffffffff82169050919050565b6000819050919050565b600061101061100b61100684610fcb565b610feb565b610fcb565b9050919050565b600061102282610ff5565b9050919050565b600061103482611017565b9050919050565b61104481611029565b82525050565b600060208201905061105f600083018461103b565b92915050565b600061107082611017565b9050919050565b61108081611065565b82525050565b600060208201905061109b6000830184611077565b92915050565b6000604051905090565b600080fd5b600080fd5b60006110c082610fcb565b9050919050565b6110d0816110b5565b81146110db57600080fd5b50565b6000813590506110ed816110c7565b92915050565b600060208284031215611109576111086110ab565b5b6000611117848285016110de565b91505092915050565b6000819050919050565b61113381611120565b82525050565b600060408201905061114e600083018561112a565b61115b602083018461112a565b9392505050565b61116b81611120565b811461117657600080fd5b50565b60008135905061118881611162565b92915050565b6000819050919050565b6111a18161118e565b81146111ac57600080fd5b50565b6000813590506111be81611198565b92915050565b600080604083850312156111db576111da6110ab565b5b60006111e985828601611179565b92505060206111fa858286016111af565b9150509250929050565b600061120f82611017565b9050919050565b61121f81611204565b82525050565b600060208201905061123a6000830184611216565b92915050565b600060208284031215611256576112556110ab565b5b600061126484828501611179565b91505092915050565b611276816110b5565b82525050565b60008115159050919050565b6112918161127c565b82525050565b6112a08161118e565b82525050565b60006080820190506112bb600083018761126d565b6112c8602083018661112a565b6112d56040830185611288565b6112e26060830184611297565b95945050505050565b600080fd5b600080fd5b6000601f19601f8301169050919050565b7f4e487b7100000000000000000000000000000000000000000000000000000000600052604160045260246000fd5b61133e826112f5565b810181811067ffffffffffffffff8211171561135d5761135c611306565b5b80604052505050565b60006113706110a1565b905061137c8282611335565b919050565b600067ffffffffffffffff82111561139c5761139b611306565b5b6113a5826112f5565b9050602081019050919050565b82818337600083830152505050565b60006113d46113cf84611381565b611366565b9050828152602081018484840111156113f0576113ef6112f0565b5b6113fb8482856113b2565b509392505050565b600082601f830112611418576114176112eb565b5b81356114288482602086016113c1565b91505092915050565b60008060006060848603121561144a576114496110ab565b5b6000611458868287016111af565b9350506020611469868287016111af565b925050604084013567ffffffffffffffff81111561148a576114896110b0565b5b61149686828701611403565b9150509250925092565b60006020820190506114b56000830184611288565b92915050565b600080604083850312156114d2576114d16110ab565b5b60006114e085828601611179565b925050602083013567ffffffffffffffff811115611501576115006110b0565b5b61150d85828601611403565b9150509250929050565b60008060008060808587031215611531576115306110ab565b5b600061153f87828801611179565b9450506020611550878288016111af565b9350506040611561878288016111af565b925050606085013567ffffffffffffffff811115611582576115816110b0565b5b61158e87828801611403565b91505092959194509250565b60006020820190506115af600083018461126d565b92915050565b6000815190506115c481611162565b92915050565b6000602082840312156115e0576115df6110ab565b5b60006115ee848285016115b5565b91505092915050565b600082825260208201905092915050565b7f4e6f20626f6e64206465706f7369746564000000000000000000000000000000600082015250565b600061163e6011836115f7565b915061164982611608565b602082019050919050565b6000602082019050818103600083015261166d81611631565b9050919050565b6000602082019050611689600083018461112a565b92915050565b60008151905061169e81611198565b92915050565b6116ad8161127c565b81146116b857600080fd5b50565b6000815190506116ca816116a4565b92915050565b6000815190506116df816110c7565b92915050565b600080600080608085870312156116ff576116fe6110ab565b5b600061170d8782880161168f565b945050602061171e878288016115b5565b935050604061172f878288016116bb565b9250506060611740878288016116d0565b91505092959194509250565b7f426174636820616c72656164792066696e616c697a6564000000000000000000600082015250565b60006117826017836115f7565b915061178d8261174c565b602082019050919050565b600060208201905081810360008301526117b181611775565b9050919050565b7f4368616c6c656e676520616c7265616479207265736f6c766564000000000000600082015250565b60006117ee601a836115f7565b91506117f9826117b8565b602082019050919050565b6000602082019050818103600083015261181d816117e1565b9050919050565b60006020820190506118396000830184611297565b92915050565b6000819050919050565b61185a6118558261118e565b61183f565b82525050565b600081519050919050565b600081905092915050565b60005b83811015611894578082015181840152602081019050611879565b60008484015250505050565b60006118ab82611860565b6118b5818561186b565b93506118c5818560208601611876565b80840191505092915050565b60006118dd8285611849565b6020820191506118ed82846118a0565b91508190509392505050565b600080fd5b600080fd5b600061191661191184611381565b611366565b905082815260208101848484011115611932576119316112f0565b5b61193d848285611876565b509392505050565b600082601f83011261195a576119596112eb565b5b815161196a848260208601611903565b91505092915050565b6000610100828403121561198a576119896118f9565b5b611995610100611366565b905060006119a5848285016115b5565b60008301525060206119b9848285016115b5565b60208301525060406119cd848285016115b5565b60408301525060606119e1848285016116d0565b60608301525060806119f5848285016115b5565b60808301525060a082015167ffffffffffffffff811115611a1957611a186118fe565b5b611a2584828501611945565b60a08301525060c0611a39848285016115b5565b60c08301525060e082015167ffffffffffffffff811115611a5d57611a5c6118fe565b5b611a6984828501611945565b60e08301525092915050565b600060208284031215611a8b57611a8a6110ab565b5b600082015167ffffffffffffffff811115611aa957611aa86110b0565b5b611ab584828501611973565b91505092915050565b6000819050919050565b611ad9611ad482611120565b611abe565b82525050565b60008160601b9050919050565b6000611af782611adf565b9050919050565b6000611b0982611aec565b9050919050565b611b21611b1c826110b5565b611afe565b82525050565b6000611b33828a611ac8565b602082019150611b438289611ac8565b602082019150611b538288611ac8565b602082019150611b638287611b10565b601482019150611b738286611ac8565b602082019150611b8382856118a0565b9150611b8f8284611ac8565b60208201915081905098975050505050505050565b600081905092915050565b7f19457468657265756d205369676e6564204d6573736167653a0a333200000000600082015250565b6000611be5601c83611ba4565b9150611bf082611baf565b601c82019050919050565b6000611c0682611bd8565b9150611c128284611849565b60208201915081905092915050565b600060ff82169050919050565b611c3781611c21565b82525050565b6000608082019050611c526000830187611297565b611c5f6020830186611c2e565b611c6c6040830185611297565b611c796060830184611297565b95945050505050565b7f4e487b7100000000000000000000000000000000000000000000000000000000600052601160045260246000fd5b6000611cbc82611120565b9150611cc783611120565b9250828202611cd581611120565b91508282048414831517611cec57611ceb611c82565b5b5092915050565b6000611cfe82611120565b9150611d0983611120565b9250828201905080821115611d2157611d20611c82565b5b92915050565b7f4368616c6c656e676520706572696f64206e6f74206f76657200000000000000600082015250565b6000611d5d6019836115f7565b9150611d6882611d27565b602082019050919050565b60006020820190508181036000830152611d8c81611d50565b9050919050565b6000819050919050565b6000611db8611db3611dae84611d93565b610feb565b611120565b9050919050565b611dc881611d9d565b82525050565b6000604082019050611de3600083018561126d565b611df06020830184611dbf565b9392505050565b6000604082019050611e0c6000830185611288565b611e19602083018461126d565b9392505050565b7f496e76616c6964207369676e6174757265206c656e6774680000000000000000600082015250565b6000611e566018836115f7565b9150611e6182611e20565b602082019050919050565b60006020820190508181036000830152611e8581611e49565b905091905056fea26469706673582212206df48b6fad7f118d501ed30fc1531012548f6c8694e4429ee2d8ebfd0da21dcf64736f6c63430008130033",
  "immutableReferences": {},
  "source": "// SPDX-License-Identifier: MIT\r\npragma solidity >=0.4.22 <0.9.0;\r\n\r\nimport \"./StateCommitmentChain.sol\";\r\nimport \"./CanonicalTransactionChain.sol\";\r\nimport \"./BondManager.sol\";\r\n\r\ncontract FraudVerifier {\r\n    StateCommitmentChain public stateCommitmentChain;\r\n    CanonicalTransactionChain public canonicalTransactionChain;\r\n    BondManager public bondManager;\r\n\r\n    // Challenge  : , ,   \r\n    struct Challenge {\r\n        address challenger;\r\n        uint256 timestamp;\r\n        bool resolved;\r\n        bytes32 challengedTxHash;\r\n    }\r\n\r\n    struct TransactionData {\r\n        uint256 nonce;\r\n        uint256 gasPrice;\r\n        uint256 gasLimit;\r\n        address to;\r\n        uint256 value;\r\n        bytes data;\r\n        uint256 chainId;\r\n        bytes signature; // r, s, v  \r\n    }\r\n\r\n    struct Account {\r\n        uint256 nonce;\r\n        uint256 balance;\r\n    }\r\n\r\n    mapping(address => Account) public accounts;\r\n\r\n    //   \r\n    mapping(uint256 => Challenge) public challenges;\r\n\r\n    //     \r\n    event ChallengeInitiated(uint256 indexed batchIndex, address indexed challenger, bytes32 _txHash);\r\n    //     \r\n    event ChallengeResolved(uint256 indexed batchIndex, bool success, address proposer);\r\n\r\n    uint256 constant MIN_TRANSACTION_AMOUNT = 1 wei;\r\n\r\n    // ,     \r\n    constructor(address _scc, address _ctc, address _bm) {\r\n        stateCommitmentChain = StateCommitmentChain(_scc);\r\n        canonicalTransactionChain = CanonicalTransactionChain(_ctc);\r\n        bondManager = BondManager(_bm);\r\n    }\r\n\r\n    //   \r\n    function initiateChallenge(uint256 _batchIndex, bytes32 _txHash) public {\r\n        //    \r\n        require(bondManager.bonds(msg.sender) > 0, \"No bond deposited\");\r\n        //    \r\n        (bytes32 stateRoot, uint256 timestamp, bool finalized, address proposer) = stateCommitmentChain.batches(_batchIndex);        //    \r\n        require(!finalized, \"Batch already finalized\");\r\n        //     \r\n        \r\n        require(!challenges[_batchIndex].resolved, \"Challenge already resolved\");\r\n\r\n        //   \r\n        challenges[_batchIndex] = Challenge({\r\n            challenger: msg.sender,\r\n            timestamp: block.timestamp,\r\n            resolved: false,\r\n            challengedTxHash: _txHash\r\n        });\r\n\r\n        //    \r\n        emit ChallengeInitiated(_batchIndex, msg.sender, _txHash);\r\n    }\r\n\r\n       //    \r\n        function verifyStateTransition(\r\n            bytes32 _preStateRoot,\r\n            bytes32 _postStateRoot,\r\n            bytes memory _transaction\r\n        ) public returns (bool) {\r\n            //      \r\n            bytes32 computedPostStateRoot = keccak256(abi.encodePacked(_preStateRoot, _transaction));\r\n            //        \r\n            return computedPostStateRoot == _postStateRoot;\r\n        }\r\n\r\n     function verifyTransaction(uint256 _batchIndex, bytes memory _transaction) public view returns (bool) {\r\n        Challenge storage challenge = challenges[_batchIndex];\r\n        require(!challenge.resolved, \"Challenge already resolved\");\r\n\r\n        TransactionData memory txData = abi.decode(_transaction, (TransactionData));\r\n\r\n        bytes32 txHash = keccak256(abi.encodePacked(\r\n            txData.nonce,\r\n            txData.gasPrice,\r\n            txData.gasLimit,\r\n            txData.to,\r\n            txData.value,\r\n            txData.data,\r\n            txData.chainId\r\n        ));\r\n\r\n        if (txHash != challenge.challengedTxHash) {\r\n        return false;\r\n    }\r\n\r\n       bytes32 messageHash = keccak256(abi.encodePacked(\"\\x19Ethereum Signed Message:\\n32\", txHash));\r\n       (uint8 v, bytes32 r, bytes32 s) = splitSignature(txData.signature);\r\n       address signer = ecrecover(messageHash, v, r, s);\r\n\r\n        // 2.  \r\n        if (txData.nonce != accounts[signer].nonce) {\r\n                return false;\r\n            }\r\n        // 3.  \r\n        uint256 totalCost = txData.value + (txData.gasLimit * txData.gasPrice);\r\n        if (accounts[signer].balance < totalCost) {\r\n             return false;\r\n        }\r\n        // 4.    \r\n        if (txData.value < MIN_TRANSACTION_AMOUNT) return false;\r\n\r\n        // 5.    \r\n        if (txData.to == address(0)) return false;\r\n\r\n        // 6.     \r\n        if (signer == txData.to) return false;\r\n\r\n        // 7.  \r\n        if (txData.value + (txData.gasLimit * txData.gasPrice) < txData.value) return false;\r\n\r\n        return true;\r\n        \r\n        //return canonicalTransactionChain.isValidTransaction(_transaction);\r\n    }\r\n\r\n    function splitSignature(bytes memory sig) internal pure returns (uint8 v, bytes32 r, bytes32 s) {\r\n        require(sig.length == 65, \"Invalid signature length\");\r\n\r\n        assembly {\r\n            r := mload(add(sig, 32))\r\n            s := mload(add(sig, 64))\r\n            v := byte(0, mload(add(sig, 96)))\r\n        }\r\n    }\r\n\r\n    //   \r\n    function resolveChallenge(uint256 _batchIndex, bytes32 _preStateRoot, bytes32 _postStateRoot, bytes memory _transaction) public {\r\n        Challenge storage challenge = challenges[_batchIndex];\r\n        require(!challenge.resolved, \"Challenge already resolved\");\r\n        require(block.timestamp >= challenge.timestamp + stateCommitmentChain.challengePeriod(), \"Challenge period not over\");\r\n\r\n        //  \r\n        bool success = verifyStateTransition(_preStateRoot, _postStateRoot, _transaction) && verifyTransaction(_batchIndex, _transaction);\r\n\r\n        //   \r\n        challenge.resolved = true;\r\n\r\n        ( , , , address proposer) = stateCommitmentChain.batches(_batchIndex);\r\n\r\n        if (success) {\r\n            //      \r\n            stateCommitmentChain.finalizeBatch(_batchIndex);\r\n            bondManager.withdraw(bondManager.bonds(challenge.challenger));\r\n            bondManager.updateBond(proposer, 0); //  \r\n        } else {\r\n            //  \r\n            bondManager.updateBond(challenge.challenger, 0);\r\n        }\r\n\r\n        //    \r\n        emit ChallengeResolved(_batchIndex, success, proposer);\r\n    }\r\n}\r\n",
  "sourcePath": "C:\\Users\\Jaewon.DESKTOP-OT1V5PK\\Desktop\\project\\rollup\\contracts\\FraudVerifier.sol",
  "compiler": {
    "name": "solc",
    "version": "0.8.19+commit.7dd6d404.Emscripten.clang"
  },
  "schemaVersion": "3.4.16",
  "updatedAt": "2024-06-26T06:43:13.983Z",
  "networkType": "ethereum",
  "devdoc": {
    "kind": "dev",
    "methods": {},
    "version": 1
  },
  "userdoc": {
    "kind": "user",
    "methods": {},
    "version": 1
  }
}