{
  "contractName": "FraudVerifier",
  "abi": [
    {
      "inputs": [
        {
          "internalType": "address",
          "name": "_scc",
          "type": "address"
        },
        {
          "internalType": "address",
          "name": "_ctc",
          "type": "address"
        },
        {
          "internalType": "address",
          "name": "_bm",
          "type": "address"
        }
      ],
      "stateMutability": "nonpayable",
      "type": "constructor"
    },
    {
      "anonymous": false,
      "inputs": [
        {
          "indexed": true,
          "internalType": "uint256",
          "name": "batchIndex",
          "type": "uint256"
        },
        {
          "indexed": true,
          "internalType": "address",
          "name": "challenger",
          "type": "address"
        },
        {
          "indexed": false,
          "internalType": "bytes32",
          "name": "_txHash",
          "type": "bytes32"
        }
      ],
      "name": "ChallengeInitiated",
      "type": "event"
    },
    {
      "anonymous": false,
      "inputs": [
        {
          "indexed": true,
          "internalType": "uint256",
          "name": "batchIndex",
          "type": "uint256"
        },
        {
          "indexed": false,
          "internalType": "bool",
          "name": "success",
          "type": "bool"
        },
        {
          "indexed": false,
          "internalType": "address",
          "name": "proposer",
          "type": "address"
        }
      ],
      "name": "ChallengeResolved",
      "type": "event"
    },
    {
      "inputs": [
        {
          "internalType": "address",
          "name": "",
          "type": "address"
        }
      ],
      "name": "accounts",
      "outputs": [
        {
          "internalType": "uint256",
          "name": "nonce",
          "type": "uint256"
        },
        {
          "internalType": "uint256",
          "name": "balance",
          "type": "uint256"
        }
      ],
      "stateMutability": "view",
      "type": "function",
      "constant": true
    },
    {
      "inputs": [],
      "name": "bondManager",
      "outputs": [
        {
          "internalType": "contract BondManager",
          "name": "",
          "type": "address"
        }
      ],
      "stateMutability": "view",
      "type": "function",
      "constant": true
    },
    {
      "inputs": [],
      "name": "canonicalTransactionChain",
      "outputs": [
        {
          "internalType": "contract CanonicalTransactionChain",
          "name": "",
          "type": "address"
        }
      ],
      "stateMutability": "view",
      "type": "function",
      "constant": true
    },
    {
      "inputs": [
        {
          "internalType": "uint256",
          "name": "",
          "type": "uint256"
        }
      ],
      "name": "challenges",
      "outputs": [
        {
          "internalType": "address",
          "name": "challenger",
          "type": "address"
        },
        {
          "internalType": "uint256",
          "name": "timestamp",
          "type": "uint256"
        },
        {
          "internalType": "bool",
          "name": "resolved",
          "type": "bool"
        },
        {
          "internalType": "bytes32",
          "name": "challengedTxHash",
          "type": "bytes32"
        }
      ],
      "stateMutability": "view",
      "type": "function",
      "constant": true
    },
    {
      "inputs": [],
      "name": "stateCommitmentChain",
      "outputs": [
        {
          "internalType": "contract StateCommitmentChain",
          "name": "",
          "type": "address"
        }
      ],
      "stateMutability": "view",
      "type": "function",
      "constant": true
    },
    {
      "inputs": [
        {
          "internalType": "uint256",
          "name": "_batchIndex",
          "type": "uint256"
        },
        {
          "internalType": "bytes32",
          "name": "_txHash",
          "type": "bytes32"
        }
      ],
      "name": "initiateChallenge",
      "outputs": [],
      "stateMutability": "nonpayable",
      "type": "function"
    },
    {
      "inputs": [
        {
          "internalType": "bytes32",
          "name": "_preStateRoot",
          "type": "bytes32"
        },
        {
          "internalType": "bytes32",
          "name": "_postStateRoot",
          "type": "bytes32"
        },
        {
          "internalType": "bytes",
          "name": "_transaction",
          "type": "bytes"
        }
      ],
      "name": "verifyStateTransition",
      "outputs": [
        {
          "internalType": "bool",
          "name": "",
          "type": "bool"
        }
      ],
      "stateMutability": "pure",
      "type": "function",
      "constant": true
    },
    {
      "inputs": [
        {
          "internalType": "uint256",
          "name": "_batchIndex",
          "type": "uint256"
        },
        {
          "internalType": "bytes",
          "name": "_transaction",
          "type": "bytes"
        }
      ],
      "name": "verifyTransaction",
      "outputs": [
        {
          "internalType": "bool",
          "name": "",
          "type": "bool"
        }
      ],
      "stateMutability": "view",
      "type": "function",
      "constant": true
    },
    {
      "inputs": [
        {
          "internalType": "bytes32",
          "name": "_batchId",
          "type": "bytes32"
        },
        {
          "internalType": "bytes32",
          "name": "_preStateRoot",
          "type": "bytes32"
        },
        {
          "internalType": "bytes32",
          "name": "_postStateRoot",
          "type": "bytes32"
        },
        {
          "internalType": "bytes",
          "name": "_transaction",
          "type": "bytes"
        },
        {
          "internalType": "bytes32",
          "name": "_stateRoot",
          "type": "bytes32"
        },
        {
          "internalType": "uint256",
          "name": "_timestamp",
          "type": "uint256"
        },
        {
          "internalType": "address",
          "name": "_proposer",
          "type": "address"
        }
      ],
      "name": "resolveChallenge",
      "outputs": [],
      "stateMutability": "nonpayable",
      "type": "function"
    }
  ],
  "bytecode": "0x60806040523480156200001157600080fd5b50604051620020523803806200205283398181016040528101906200003791906200016c565b826000806101000a81548173ffffffffffffffffffffffffffffffffffffffff021916908373ffffffffffffffffffffffffffffffffffffffff16021790555081600160006101000a81548173ffffffffffffffffffffffffffffffffffffffff021916908373ffffffffffffffffffffffffffffffffffffffff16021790555080600260006101000a81548173ffffffffffffffffffffffffffffffffffffffff021916908373ffffffffffffffffffffffffffffffffffffffff160217905550505050620001c8565b600080fd5b600073ffffffffffffffffffffffffffffffffffffffff82169050919050565b6000620001348262000107565b9050919050565b620001468162000127565b81146200015257600080fd5b50565b60008151905062000166816200013b565b92915050565b60008060006060848603121562000188576200018762000102565b5b6000620001988682870162000155565b9350506020620001ab8682870162000155565b9250506040620001be8682870162000155565b9150509250925092565b611e7a80620001d86000396000f3fe608060405234801561001057600080fd5b50600436106100935760003560e01c806361d44b2e1161006657806361d44b2e14610121578063821b7b731461013d5780638f1d37761461015b57806391b574231461018e578063d1c32b42146101be57610093565b80630f329ef8146100985780631fe9031c146100b6578063363cc427146100d25780635e5c06e2146100f0575b600080fd5b6100a06101ee565b6040516100ad9190610f6e565b60405180910390f35b6100d060048036038101906100cb919061118d565b610212565b005b6100da610714565b6040516100e7919061126c565b60405180910390f35b61010a60048036038101906101059190611287565b61073a565b6040516101189291906112c3565b60405180910390f35b61013b600480360381019061013691906112ec565b61075e565b005b610145610aa3565b604051610152919061134d565b60405180910390f35b61017560048036038101906101709190611368565b610ac9565b60405161018594939291906113ce565b60405180910390f35b6101a860048036038101906101a39190611413565b610b26565b6040516101b59190611482565b60405180910390f35b6101d860048036038101906101d3919061149d565b610b61565b6040516101e59190611482565b60405180910390f35b60008054906101000a900473ffffffffffffffffffffffffffffffffffffffff1681565b6000600460008960001c815260200190815260200160002090508060020160009054906101000a900460ff161561027e576040517f08c379a000000000000000000000000000000000000000000000000000000000815260040161027590611556565b60405180910390fd5b60008054906101000a900473ffffffffffffffffffffffffffffffffffffffff1673ffffffffffffffffffffffffffffffffffffffff1663f3f480d96040518163ffffffff1660e01b8152600401602060405180830381865afa1580156102e9573d6000803e3d6000fd5b505050506040513d601f19601f8201168201806040525081019061030d919061158b565b816001015461031c91906115e7565b42101561035e576040517f08c379a000000000000000000000000000000000000000000000000000000000815260040161035590611667565b60405180910390fd5b600061036b888888610b26565b8015610380575061037f8960001c87610b61565b5b905060018260020160006101000a81548160ff02191690831515021790555080156106175760008054906101000a900473ffffffffffffffffffffffffffffffffffffffff1673ffffffffffffffffffffffffffffffffffffffff16636665b1ca8a8787876040518563ffffffff1660e01b81526004016104049493929190611687565b600060405180830381600087803b15801561041e57600080fd5b505af1158015610432573d6000803e3d6000fd5b50505050600260009054906101000a900473ffffffffffffffffffffffffffffffffffffffff1673ffffffffffffffffffffffffffffffffffffffff16632e1a7d4d600260009054906101000a900473ffffffffffffffffffffffffffffffffffffffff1673ffffffffffffffffffffffffffffffffffffffff1663fe10d7748560000160009054906101000a900473ffffffffffffffffffffffffffffffffffffffff166040518263ffffffff1660e01b81526004016104f391906116cc565b602060405180830381865afa158015610510573d6000803e3d6000fd5b505050506040513d601f19601f82011682018060405250810190610534919061158b565b6040518263ffffffff1660e01b815260040161055091906116e7565b600060405180830381600087803b15801561056a57600080fd5b505af115801561057e573d6000803e3d6000fd5b50505050600260009054906101000a900473ffffffffffffffffffffffffffffffffffffffff1673ffffffffffffffffffffffffffffffffffffffff1663b53477368460006040518363ffffffff1660e01b81526004016105e092919061173d565b600060405180830381600087803b1580156105fa57600080fd5b505af115801561060e573d6000803e3d6000fd5b505050506106cc565b600260009054906101000a900473ffffffffffffffffffffffffffffffffffffffff1673ffffffffffffffffffffffffffffffffffffffff1663b53477368360000160009054906101000a900473ffffffffffffffffffffffffffffffffffffffff1660006040518363ffffffff1660e01b815260040161069992919061173d565b600060405180830381600087803b1580156106b357600080fd5b505af11580156106c7573d6000803e3d6000fd5b505050505b8860001c7f874fd3e0ba6d81d58b06aa295084dbe040084ea483a51e07e5c551498e515a3c8285604051610701929190611766565b60405180910390a2505050505050505050565b600260009054906101000a900473ffffffffffffffffffffffffffffffffffffffff1681565b60036020528060005260406000206000915090508060000154908060010154905082565b6000600260009054906101000a900473ffffffffffffffffffffffffffffffffffffffff1673ffffffffffffffffffffffffffffffffffffffff1663fe10d774336040518263ffffffff1660e01b81526004016107bb91906116cc565b602060405180830381865afa1580156107d8573d6000803e3d6000fd5b505050506040513d601f19601f820116820180604052508101906107fc919061158b565b1161083c576040517f08c379a0000000000000000000000000000000000000000000000000000000008152600401610833906117db565b60405180910390fd5b60008060009054906101000a900473ffffffffffffffffffffffffffffffffffffffff1673ffffffffffffffffffffffffffffffffffffffff16635ac44282846040518263ffffffff1660e01b815260040161089891906116e7565b60a060405180830381865afa1580156108b5573d6000803e3d6000fd5b505050506040513d601f19601f820116820180604052508101906108d99190611851565b5050925050508015610920576040517f08c379a000000000000000000000000000000000000000000000000000000000815260040161091790611918565b60405180910390fd5b6004600084815260200190815260200160002060020160009054906101000a900460ff1615610984576040517f08c379a000000000000000000000000000000000000000000000000000000000815260040161097b90611556565b60405180910390fd5b60405180608001604052803373ffffffffffffffffffffffffffffffffffffffff168152602001428152602001600015158152602001838152506004600085815260200190815260200160002060008201518160000160006101000a81548173ffffffffffffffffffffffffffffffffffffffff021916908373ffffffffffffffffffffffffffffffffffffffff1602179055506020820151816001015560408201518160020160006101000a81548160ff021916908315150217905550606082015181600301559050503373ffffffffffffffffffffffffffffffffffffffff16837f2c04414f64cd667d580092a3c4f571baa9f27ffe4bcd8e7389e119dc7a459c1e84604051610a969190611938565b60405180910390a3505050565b600160009054906101000a900473ffffffffffffffffffffffffffffffffffffffff1681565b60046020528060005260406000206000915090508060000160009054906101000a900473ffffffffffffffffffffffffffffffffffffffff16908060010154908060020160009054906101000a900460ff16908060030154905084565b6000808483604051602001610b3c9291906119e5565b6040516020818303038152906040528051906020012090508381149150509392505050565b6000806004600085815260200190815260200160002090508060020160009054906101000a900460ff1615610bcb576040517f08c379a0000000000000000000000000000000000000000000000000000000008152600401610bc290611556565b60405180910390fd5b600083806020019051810190610be19190611b89565b90506000816000015182602001518360400151846060015185608001518660a001518760c00151604051602001610c1e9796959493929190611c3b565b60405160208183030381529060405280519060200120905082600301548114610c4d5760009350505050610e81565b600081604051602001610c609190611d0f565b6040516020818303038152906040528051906020012090506000806000610c8a8660e00151610e87565b925092509250600060018585858560405160008152602001604052604051610cb59493929190611d51565b6020604051602081039080840390855afa158015610cd7573d6000803e3d6000fd5b505050602060405103519050600360008273ffffffffffffffffffffffffffffffffffffffff1673ffffffffffffffffffffffffffffffffffffffff168152602001908152602001600020600001548760000151141580610d9b575086602001518760400151610d479190611d96565b8760800151610d5691906115e7565b600360008373ffffffffffffffffffffffffffffffffffffffff1673ffffffffffffffffffffffffffffffffffffffff16815260200190815260200160002060010154105b15610db157600098505050505050505050610e81565b600187608001511080610df45750600073ffffffffffffffffffffffffffffffffffffffff16876060015173ffffffffffffffffffffffffffffffffffffffff16145b80610e2e5750866060015173ffffffffffffffffffffffffffffffffffffffff168173ffffffffffffffffffffffffffffffffffffffff16145b80610e5e5750866080015187602001518860400151610e4d9190611d96565b8860800151610e5c91906115e7565b105b15610e7457600098505050505050505050610e81565b6001985050505050505050505b92915050565b60008060006041845114610ed0576040517f08c379a0000000000000000000000000000000000000000000000000000000008152600401610ec790611e24565b60405180910390fd5b6020840151915060408401519050606084015160001a92509193909250565b600073ffffffffffffffffffffffffffffffffffffffff82169050919050565b6000819050919050565b6000610f34610f2f610f2a84610eef565b610f0f565b610eef565b9050919050565b6000610f4682610f19565b9050919050565b6000610f5882610f3b565b9050919050565b610f6881610f4d565b82525050565b6000602082019050610f836000830184610f5f565b92915050565b6000604051905090565b600080fd5b600080fd5b6000819050919050565b610fb081610f9d565b8114610fbb57600080fd5b50565b600081359050610fcd81610fa7565b92915050565b600080fd5b600080fd5b6000601f19601f8301169050919050565b7f4e487b7100000000000000000000000000000000000000000000000000000000600052604160045260246000fd5b61102682610fdd565b810181811067ffffffffffffffff8211171561104557611044610fee565b5b80604052505050565b6000611058610f89565b9050611064828261101d565b919050565b600067ffffffffffffffff82111561108457611083610fee565b5b61108d82610fdd565b9050602081019050919050565b82818337600083830152505050565b60006110bc6110b784611069565b61104e565b9050828152602081018484840111156110d8576110d7610fd8565b5b6110e384828561109a565b509392505050565b600082601f830112611100576110ff610fd3565b5b81356111108482602086016110a9565b91505092915050565b6000819050919050565b61112c81611119565b811461113757600080fd5b50565b60008135905061114981611123565b92915050565b600061115a82610eef565b9050919050565b61116a8161114f565b811461117557600080fd5b50565b60008135905061118781611161565b92915050565b600080600080600080600060e0888a0312156111ac576111ab610f93565b5b60006111ba8a828b01610fbe565b97505060206111cb8a828b01610fbe565b96505060406111dc8a828b01610fbe565b955050606088013567ffffffffffffffff8111156111fd576111fc610f98565b5b6112098a828b016110eb565b945050608061121a8a828b01610fbe565b93505060a061122b8a828b0161113a565b92505060c061123c8a828b01611178565b91505092959891949750929550565b600061125682610f3b565b9050919050565b6112668161124b565b82525050565b6000602082019050611281600083018461125d565b92915050565b60006020828403121561129d5761129c610f93565b5b60006112ab84828501611178565b91505092915050565b6112bd81611119565b82525050565b60006040820190506112d860008301856112b4565b6112e560208301846112b4565b9392505050565b6000806040838503121561130357611302610f93565b5b60006113118582860161113a565b925050602061132285828601610fbe565b9150509250929050565b600061133782610f3b565b9050919050565b6113478161132c565b82525050565b6000602082019050611362600083018461133e565b92915050565b60006020828403121561137e5761137d610f93565b5b600061138c8482850161113a565b91505092915050565b61139e8161114f565b82525050565b60008115159050919050565b6113b9816113a4565b82525050565b6113c881610f9d565b82525050565b60006080820190506113e36000830187611395565b6113f060208301866112b4565b6113fd60408301856113b0565b61140a60608301846113bf565b95945050505050565b60008060006060848603121561142c5761142b610f93565b5b600061143a86828701610fbe565b935050602061144b86828701610fbe565b925050604084013567ffffffffffffffff81111561146c5761146b610f98565b5b611478868287016110eb565b9150509250925092565b600060208201905061149760008301846113b0565b92915050565b600080604083850312156114b4576114b3610f93565b5b60006114c28582860161113a565b925050602083013567ffffffffffffffff8111156114e3576114e2610f98565b5b6114ef858286016110eb565b9150509250929050565b600082825260208201905092915050565b7f4368616c6c656e676520616c7265616479207265736f6c766564000000000000600082015250565b6000611540601a836114f9565b915061154b8261150a565b602082019050919050565b6000602082019050818103600083015261156f81611533565b9050919050565b60008151905061158581611123565b92915050565b6000602082840312156115a1576115a0610f93565b5b60006115af84828501611576565b91505092915050565b7f4e487b7100000000000000000000000000000000000000000000000000000000600052601160045260246000fd5b60006115f282611119565b91506115fd83611119565b9250828201905080821115611615576116146115b8565b5b92915050565b7f4368616c6c656e676520706572696f64206e6f74206f76657200000000000000600082015250565b60006116516019836114f9565b915061165c8261161b565b602082019050919050565b6000602082019050818103600083015261168081611644565b9050919050565b600060808201905061169c60008301876113bf565b6116a960208301866113bf565b6116b660408301856112b4565b6116c36060830184611395565b95945050505050565b60006020820190506116e16000830184611395565b92915050565b60006020820190506116fc60008301846112b4565b92915050565b6000819050919050565b600061172761172261171d84611702565b610f0f565b611119565b9050919050565b6117378161170c565b82525050565b60006040820190506117526000830185611395565b61175f602083018461172e565b9392505050565b600060408201905061177b60008301856113b0565b6117886020830184611395565b9392505050565b7f4e6f20626f6e64206465706f7369746564000000000000000000000000000000600082015250565b60006117c56011836114f9565b91506117d08261178f565b602082019050919050565b600060208201905081810360008301526117f4816117b8565b9050919050565b60008151905061180a81610fa7565b92915050565b611819816113a4565b811461182457600080fd5b50565b60008151905061183681611810565b92915050565b60008151905061184b81611161565b92915050565b600080600080600060a0868803121561186d5761186c610f93565b5b600061187b888289016117fb565b955050602061188c88828901611576565b945050604061189d88828901611827565b93505060606118ae8882890161183c565b92505060806118bf888289016117fb565b9150509295509295909350565b7f426174636820616c72656164792066696e616c697a6564000000000000000000600082015250565b60006119026017836114f9565b915061190d826118cc565b602082019050919050565b60006020820190508181036000830152611931816118f5565b9050919050565b600060208201905061194d60008301846113bf565b92915050565b6000819050919050565b61196e61196982610f9d565b611953565b82525050565b600081519050919050565b600081905092915050565b60005b838110156119a857808201518184015260208101905061198d565b60008484015250505050565b60006119bf82611974565b6119c9818561197f565b93506119d981856020860161198a565b80840191505092915050565b60006119f1828561195d565b602082019150611a0182846119b4565b91508190509392505050565b600080fd5b600080fd5b6000611a2a611a2584611069565b61104e565b905082815260208101848484011115611a4657611a45610fd8565b5b611a5184828561198a565b509392505050565b600082601f830112611a6e57611a6d610fd3565b5b8151611a7e848260208601611a17565b91505092915050565b60006101008284031215611a9e57611a9d611a0d565b5b611aa961010061104e565b90506000611ab984828501611576565b6000830152506020611acd84828501611576565b6020830152506040611ae184828501611576565b6040830152506060611af58482850161183c565b6060830152506080611b0984828501611576565b60808301525060a082015167ffffffffffffffff811115611b2d57611b2c611a12565b5b611b3984828501611a59565b60a08301525060c0611b4d84828501611576565b60c08301525060e082015167ffffffffffffffff811115611b7157611b70611a12565b5b611b7d84828501611a59565b60e08301525092915050565b600060208284031215611b9f57611b9e610f93565b5b600082015167ffffffffffffffff811115611bbd57611bbc610f98565b5b611bc984828501611a87565b91505092915050565b6000819050919050565b611bed611be882611119565b611bd2565b82525050565b60008160601b9050919050565b6000611c0b82611bf3565b9050919050565b6000611c1d82611c00565b9050919050565b611c35611c308261114f565b611c12565b82525050565b6000611c47828a611bdc565b602082019150611c578289611bdc565b602082019150611c678288611bdc565b602082019150611c778287611c24565b601482019150611c878286611bdc565b602082019150611c9782856119b4565b9150611ca38284611bdc565b60208201915081905098975050505050505050565b600081905092915050565b7f19457468657265756d205369676e6564204d6573736167653a0a333200000000600082015250565b6000611cf9601c83611cb8565b9150611d0482611cc3565b601c82019050919050565b6000611d1a82611cec565b9150611d26828461195d565b60208201915081905092915050565b600060ff82169050919050565b611d4b81611d35565b82525050565b6000608082019050611d6660008301876113bf565b611d736020830186611d42565b611d8060408301856113bf565b611d8d60608301846113bf565b95945050505050565b6000611da182611119565b9150611dac83611119565b9250828202611dba81611119565b91508282048414831517611dd157611dd06115b8565b5b5092915050565b7f496e76616c6964207369676e6174757265206c656e6774680000000000000000600082015250565b6000611e0e6018836114f9565b9150611e1982611dd8565b602082019050919050565b60006020820190508181036000830152611e3d81611e01565b905091905056fea2646970667358221220a17c400429e65fc7da8e946fba98b576c1a213b84572af4e196daf6cd3221c3a64736f6c63430008130033",
  "immutableReferences": {},
  "source": "// SPDX-License-Identifier: MIT\r\npragma solidity >=0.4.22 <0.9.0;\r\n\r\nimport \"./StateCommitmentChain.sol\";\r\nimport \"./CanonicalTransactionChain.sol\";\r\nimport \"./BondManager.sol\";\r\n\r\ncontract FraudVerifier {\r\n    StateCommitmentChain public stateCommitmentChain;\r\n    CanonicalTransactionChain public canonicalTransactionChain;\r\n    BondManager public bondManager;\r\n\r\n    struct Challenge {\r\n        address challenger;\r\n        uint256 timestamp;\r\n        bool resolved;\r\n        bytes32 challengedTxHash;\r\n    }\r\n\r\n    struct TransactionData {\r\n        uint256 nonce;\r\n        uint256 gasPrice;\r\n        uint256 gasLimit;\r\n        address to;\r\n        uint256 value;\r\n        bytes data;\r\n        uint256 chainId;\r\n        bytes signature; // r, s, v  \r\n    }\r\n\r\n    struct Account {\r\n        uint256 nonce;\r\n        uint256 balance;\r\n    }\r\n\r\n    mapping(address => Account) public accounts;\r\n    mapping(uint256 => Challenge) public challenges;\r\n\r\n    event ChallengeInitiated(uint256 indexed batchIndex, address indexed challenger, bytes32 _txHash);\r\n    event ChallengeResolved(uint256 indexed batchIndex, bool success, address proposer);\r\n\r\n    uint256 constant MIN_TRANSACTION_AMOUNT = 1 wei;\r\n\r\n    constructor(address _scc, address _ctc, address _bm) {\r\n        stateCommitmentChain = StateCommitmentChain(_scc);\r\n        canonicalTransactionChain = CanonicalTransactionChain(_ctc);\r\n        bondManager = BondManager(_bm);\r\n    }\r\n\r\n    function initiateChallenge(uint256 _batchIndex, bytes32 _txHash) public {\r\n        require(bondManager.bonds(msg.sender) > 0, \"No bond deposited\");\r\n        (, , bool finalized, , ) = stateCommitmentChain.getBatch(_batchIndex);\r\n        require(!finalized, \"Batch already finalized\");\r\n        require(!challenges[_batchIndex].resolved, \"Challenge already resolved\");\r\n\r\n        challenges[_batchIndex] = Challenge({\r\n            challenger: msg.sender,\r\n            timestamp: block.timestamp,\r\n            resolved: false,\r\n            challengedTxHash: _txHash\r\n        });\r\n\r\n        emit ChallengeInitiated(_batchIndex, msg.sender, _txHash);\r\n    }\r\n\r\n    function verifyStateTransition(bytes32 _preStateRoot, bytes32 _postStateRoot, bytes memory _transaction) public pure returns (bool) {\r\n        bytes32 computedPostStateRoot = keccak256(abi.encodePacked(_preStateRoot, _transaction));\r\n        return computedPostStateRoot == _postStateRoot;\r\n    }\r\n\r\n    function verifyTransaction(uint256 _batchIndex, bytes memory _transaction) public view returns (bool) {\r\n        Challenge storage challenge = challenges[_batchIndex];\r\n        require(!challenge.resolved, \"Challenge already resolved\");\r\n\r\n        TransactionData memory txData = abi.decode(_transaction, (TransactionData));\r\n\r\n        bytes32 txHash = keccak256(abi.encodePacked(\r\n            txData.nonce,\r\n            txData.gasPrice,\r\n            txData.gasLimit,\r\n            txData.to,\r\n            txData.value,\r\n            txData.data,\r\n            txData.chainId\r\n        ));\r\n\r\n        if (txHash != challenge.challengedTxHash) {\r\n            return false;\r\n        }\r\n\r\n        bytes32 messageHash = keccak256(abi.encodePacked(\"\\x19Ethereum Signed Message:\\n32\", txHash));\r\n        (uint8 v, bytes32 r, bytes32 s) = splitSignature(txData.signature);\r\n        address signer = ecrecover(messageHash, v, r, s);\r\n\r\n        if (txData.nonce != accounts[signer].nonce || accounts[signer].balance < (txData.value + (txData.gasLimit * txData.gasPrice))) {\r\n            return false;\r\n        }\r\n\r\n        if (txData.value < MIN_TRANSACTION_AMOUNT || txData.to == address(0) || signer == txData.to || txData.value + (txData.gasLimit * txData.gasPrice) < txData.value) {\r\n            return false;\r\n        }\r\n\r\n        return true;\r\n    }\r\n\r\n    function splitSignature(bytes memory sig) internal pure returns (uint8 v, bytes32 r, bytes32 s) {\r\n        require(sig.length == 65, \"Invalid signature length\");\r\n\r\n        assembly {\r\n            r := mload(add(sig, 32))\r\n            s := mload(add(sig, 64))\r\n            v := byte(0, mload(add(sig, 96)))\r\n        }\r\n    }\r\n\r\n    function resolveChallenge(bytes32 _batchId, bytes32 _preStateRoot, bytes32 _postStateRoot, bytes memory _transaction, bytes32 _stateRoot, uint256 _timestamp, address _proposer) public {\r\n        Challenge storage challenge = challenges[uint256(_batchId)];\r\n        require(!challenge.resolved, \"Challenge already resolved\");\r\n        require(block.timestamp >= challenge.timestamp + stateCommitmentChain.challengePeriod(), \"Challenge period not over\");\r\n\r\n        bool success = verifyStateTransition(_preStateRoot, _postStateRoot, _transaction) && verifyTransaction(uint256(_batchId), _transaction);\r\n\r\n        challenge.resolved = true;\r\n\r\n        if (success) {\r\n            stateCommitmentChain.finalizeBatch(_batchId, _stateRoot, _timestamp, _proposer);\r\n            bondManager.withdraw(bondManager.bonds(challenge.challenger));\r\n            bondManager.updateBond(_proposer, 0);\r\n        } else {\r\n            bondManager.updateBond(challenge.challenger, 0);\r\n        }\r\n\r\n        emit ChallengeResolved(uint256(_batchId), success, _proposer);\r\n    }\r\n}\r\n",
  "sourcePath": "C:\\Users\\Jaewon.DESKTOP-OT1V5PK\\Desktop\\project\\rollup\\contracts\\FraudVerifier.sol",
  "compiler": {
    "name": "solc",
    "version": "0.8.19+commit.7dd6d404.Emscripten.clang"
  },
  "schemaVersion": "3.4.16",
  "updatedAt": "2024-06-30T15:00:58.629Z",
  "networkType": "ethereum",
  "devdoc": {
    "kind": "dev",
    "methods": {},
    "version": 1
  },
  "userdoc": {
    "kind": "user",
    "methods": {},
    "version": 1
  }
}