{
  "contractName": "StateCommitmentChain",
  "abi": [
    {
      "inputs": [],
      "stateMutability": "nonpayable",
      "type": "constructor"
    },
    {
      "anonymous": false,
      "inputs": [
        {
          "indexed": true,
          "internalType": "bytes32",
          "name": "batchId",
          "type": "bytes32"
        },
        {
          "indexed": false,
          "internalType": "bytes",
          "name": "batchData",
          "type": "bytes"
        },
        {
          "indexed": false,
          "internalType": "bytes32",
          "name": "stateRoot",
          "type": "bytes32"
        },
        {
          "indexed": false,
          "internalType": "address",
          "name": "proposer",
          "type": "address"
        }
      ],
      "name": "StateBatchAppended",
      "type": "event"
    },
    {
      "anonymous": false,
      "inputs": [
        {
          "indexed": true,
          "internalType": "uint256",
          "name": "batchIndex",
          "type": "uint256"
        },
        {
          "indexed": false,
          "internalType": "bytes32",
          "name": "batchId",
          "type": "bytes32"
        }
      ],
      "name": "StateBatchFinalized",
      "type": "event"
    },
    {
      "inputs": [
        {
          "internalType": "uint256",
          "name": "",
          "type": "uint256"
        }
      ],
      "name": "batches",
      "outputs": [
        {
          "internalType": "bytes32",
          "name": "stateRoot",
          "type": "bytes32"
        },
        {
          "internalType": "uint256",
          "name": "timestamp",
          "type": "uint256"
        },
        {
          "internalType": "bool",
          "name": "finalized",
          "type": "bool"
        },
        {
          "internalType": "address",
          "name": "proposer",
          "type": "address"
        },
        {
          "internalType": "bytes32",
          "name": "batchId",
          "type": "bytes32"
        }
      ],
      "stateMutability": "view",
      "type": "function",
      "constant": true
    },
    {
      "inputs": [],
      "name": "challengePeriod",
      "outputs": [
        {
          "internalType": "uint256",
          "name": "",
          "type": "uint256"
        }
      ],
      "stateMutability": "view",
      "type": "function",
      "constant": true
    },
    {
      "inputs": [
        {
          "internalType": "uint256",
          "name": "",
          "type": "uint256"
        }
      ],
      "name": "finalizedBatches",
      "outputs": [
        {
          "internalType": "bytes32",
          "name": "stateRoot",
          "type": "bytes32"
        },
        {
          "internalType": "uint256",
          "name": "timestamp",
          "type": "uint256"
        },
        {
          "internalType": "bool",
          "name": "finalized",
          "type": "bool"
        },
        {
          "internalType": "address",
          "name": "proposer",
          "type": "address"
        },
        {
          "internalType": "bytes32",
          "name": "batchId",
          "type": "bytes32"
        }
      ],
      "stateMutability": "view",
      "type": "function",
      "constant": true
    },
    {
      "inputs": [
        {
          "internalType": "bytes32",
          "name": "",
          "type": "bytes32"
        }
      ],
      "name": "pendingBatches",
      "outputs": [
        {
          "internalType": "bytes32",
          "name": "stateRoot",
          "type": "bytes32"
        },
        {
          "internalType": "uint256",
          "name": "timestamp",
          "type": "uint256"
        },
        {
          "internalType": "bool",
          "name": "finalized",
          "type": "bool"
        },
        {
          "internalType": "address",
          "name": "proposer",
          "type": "address"
        },
        {
          "internalType": "bytes32",
          "name": "batchId",
          "type": "bytes32"
        }
      ],
      "stateMutability": "view",
      "type": "function",
      "constant": true
    },
    {
      "inputs": [
        {
          "internalType": "bytes",
          "name": "_calldata",
          "type": "bytes"
        },
        {
          "internalType": "bytes32",
          "name": "_stateRoot",
          "type": "bytes32"
        },
        {
          "internalType": "address",
          "name": "_proposer",
          "type": "address"
        },
        {
          "internalType": "bytes32",
          "name": "_batchId",
          "type": "bytes32"
        }
      ],
      "name": "appendStateBatch",
      "outputs": [],
      "stateMutability": "nonpayable",
      "type": "function"
    },
    {
      "inputs": [
        {
          "internalType": "bytes32",
          "name": "_batchId",
          "type": "bytes32"
        },
        {
          "internalType": "bytes32",
          "name": "_stateRoot",
          "type": "bytes32"
        },
        {
          "internalType": "uint256",
          "name": "_timestamp",
          "type": "uint256"
        },
        {
          "internalType": "address",
          "name": "_proposer",
          "type": "address"
        }
      ],
      "name": "finalizeBatch",
      "outputs": [],
      "stateMutability": "nonpayable",
      "type": "function"
    },
    {
      "inputs": [],
      "name": "getFinalizedBatchCount",
      "outputs": [
        {
          "internalType": "uint256",
          "name": "",
          "type": "uint256"
        }
      ],
      "stateMutability": "view",
      "type": "function",
      "constant": true
    },
    {
      "inputs": [
        {
          "internalType": "uint256",
          "name": "_index",
          "type": "uint256"
        }
      ],
      "name": "getBatch",
      "outputs": [
        {
          "internalType": "bytes32",
          "name": "stateRoot",
          "type": "bytes32"
        },
        {
          "internalType": "uint256",
          "name": "timestamp",
          "type": "uint256"
        },
        {
          "internalType": "bool",
          "name": "finalized",
          "type": "bool"
        },
        {
          "internalType": "address",
          "name": "proposer",
          "type": "address"
        },
        {
          "internalType": "bytes32",
          "name": "batchId",
          "type": "bytes32"
        }
      ],
      "stateMutability": "view",
      "type": "function",
      "constant": true
    }
  ],
  "bytecode": "0x608060405261025860035534801561001657600080fd5b50610ed9806100266000396000f3fe608060405234801561001057600080fd5b50600436106100885760003560e01c8063b32c4d8d1161005b578063b32c4d8d1461012d578063be38f08514610161578063f3f480d914610195578063f6e6b746146101b357610088565b80630e1445ab1461008d57806345b6df2b146100c15780635ac44282146100dd5780636665b1ca14610111575b600080fd5b6100a760048036038101906100a291906107ff565b6101d1565b6040516100b89594939291906108b0565b60405180910390f35b6100db60048036038101906100d69190610994565b610234565b005b6100f760048036038101906100f29190610a48565b61038c565b6040516101089594939291906108b0565b60405180910390f35b61012b60048036038101906101269190610a75565b6104c8565b005b61014760048036038101906101429190610a48565b6106c6565b6040516101589594939291906108b0565b60405180910390f35b61017b60048036038101906101769190610a48565b610739565b60405161018c9594939291906108b0565b60405180910390f35b61019d6107ac565b6040516101aa9190610adc565b60405180910390f35b6101bb6107b2565b6040516101c89190610adc565b60405180910390f35b60006020528060005260406000206000915090508060000154908060010154908060020160009054906101000a900460ff16908060020160019054906101000a900473ffffffffffffffffffffffffffffffffffffffff16908060030154905085565b6000858590501161027a576040517f08c379a000000000000000000000000000000000000000000000000000000000815260040161027190610b54565b60405180910390fd5b600073ffffffffffffffffffffffffffffffffffffffff168273ffffffffffffffffffffffffffffffffffffffff16036102e9576040517f08c379a00000000000000000000000000000000000000000000000000000000081526004016102e090610bc0565b60405180910390fd5b60008060008381526020019081526020016000206001015414610341576040517f08c379a000000000000000000000000000000000000000000000000000000000815260040161033890610c2c565b60405180910390fd5b6000429050817f8908cba4e9c64801b10d0575d1b5f250a16a06d9ebb0343c8ea74e2e309f26248787878760405161037c9493929190610caa565b60405180910390a2505050505050565b600080600080600060018054905086106103db576040517f08c379a00000000000000000000000000000000000000000000000000000000081526004016103d290610d36565b60405180910390fd5b6000600187815481106103f1576103f0610d56565b5b90600052602060002090600402016040518060a001604052908160008201548152602001600182015481526020016002820160009054906101000a900460ff161515151581526020016002820160019054906101000a900473ffffffffffffffffffffffffffffffffffffffff1673ffffffffffffffffffffffffffffffffffffffff1673ffffffffffffffffffffffffffffffffffffffff168152602001600382015481525050905080600001518160200151826040015183606001518460800151955095509550955095505091939590929450565b600354826104d69190610db4565b421015610518576040517f08c379a000000000000000000000000000000000000000000000000000000000815260040161050f90610e34565b60405180910390fd5b60006040518060a001604052808581526020018481526020016001151581526020018373ffffffffffffffffffffffffffffffffffffffff1681526020018681525090506001819080600181540180825580915050600190039060005260206000209060040201600090919091909150600082015181600001556020820151816001015560408201518160020160006101000a81548160ff02191690831515021790555060608201518160020160016101000a81548173ffffffffffffffffffffffffffffffffffffffff021916908373ffffffffffffffffffffffffffffffffffffffff160217905550608082015181600301555050600180805490506106209190610e54565b7f7e5f76b9f25103c4c0a6c92f626ee18d835ce48d5a27353815b96a853d635bfc8660405161064f9190610e88565b60405180910390a260008086815260200190815260200160002060008082016000905560018201600090556002820160006101000a81549060ff02191690556002820160016101000a81549073ffffffffffffffffffffffffffffffffffffffff0219169055600382016000905550505050505050565b600281815481106106d657600080fd5b90600052602060002090600402016000915090508060000154908060010154908060020160009054906101000a900460ff16908060020160019054906101000a900473ffffffffffffffffffffffffffffffffffffffff16908060030154905085565b6001818154811061074957600080fd5b90600052602060002090600402016000915090508060000154908060010154908060020160009054906101000a900460ff16908060020160019054906101000a900473ffffffffffffffffffffffffffffffffffffffff16908060030154905085565b60035481565b6000600180549050905090565b600080fd5b600080fd5b6000819050919050565b6107dc816107c9565b81146107e757600080fd5b50565b6000813590506107f9816107d3565b92915050565b600060208284031215610815576108146107bf565b5b6000610823848285016107ea565b91505092915050565b610835816107c9565b82525050565b6000819050919050565b61084e8161083b565b82525050565b60008115159050919050565b61086981610854565b82525050565b600073ffffffffffffffffffffffffffffffffffffffff82169050919050565b600061089a8261086f565b9050919050565b6108aa8161088f565b82525050565b600060a0820190506108c5600083018861082c565b6108d26020830187610845565b6108df6040830186610860565b6108ec60608301856108a1565b6108f9608083018461082c565b9695505050505050565b600080fd5b600080fd5b600080fd5b60008083601f84011261092857610927610903565b5b8235905067ffffffffffffffff81111561094557610944610908565b5b6020830191508360018202830111156109615761096061090d565b5b9250929050565b6109718161088f565b811461097c57600080fd5b50565b60008135905061098e81610968565b92915050565b6000806000806000608086880312156109b0576109af6107bf565b5b600086013567ffffffffffffffff8111156109ce576109cd6107c4565b5b6109da88828901610912565b955095505060206109ed888289016107ea565b93505060406109fe8882890161097f565b9250506060610a0f888289016107ea565b9150509295509295909350565b610a258161083b565b8114610a3057600080fd5b50565b600081359050610a4281610a1c565b92915050565b600060208284031215610a5e57610a5d6107bf565b5b6000610a6c84828501610a33565b91505092915050565b60008060008060808587031215610a8f57610a8e6107bf565b5b6000610a9d878288016107ea565b9450506020610aae878288016107ea565b9350506040610abf87828801610a33565b9250506060610ad08782880161097f565b91505092959194509250565b6000602082019050610af16000830184610845565b92915050565b600082825260208201905092915050565b7f43616c6c646174612063616e6e6f7420626520656d7074790000000000000000600082015250565b6000610b3e601883610af7565b9150610b4982610b08565b602082019050919050565b60006020820190508181036000830152610b6d81610b31565b9050919050565b7f50726f706f73657220616464726573732063616e6e6f74206265207a65726f00600082015250565b6000610baa601f83610af7565b9150610bb582610b74565b602082019050919050565b60006020820190508181036000830152610bd981610b9d565b9050919050565b7f426174636820494420616c726561647920657869737473000000000000000000600082015250565b6000610c16601783610af7565b9150610c2182610be0565b602082019050919050565b60006020820190508181036000830152610c4581610c09565b9050919050565b600082825260208201905092915050565b82818337600083830152505050565b6000601f19601f8301169050919050565b6000610c898385610c4c565b9350610c96838584610c5d565b610c9f83610c6c565b840190509392505050565b60006060820190508181036000830152610cc5818688610c7d565b9050610cd4602083018561082c565b610ce160408301846108a1565b95945050505050565b7f426174636820696e646578206f7574206f6620626f756e647300000000000000600082015250565b6000610d20601983610af7565b9150610d2b82610cea565b602082019050919050565b60006020820190508181036000830152610d4f81610d13565b9050919050565b7f4e487b7100000000000000000000000000000000000000000000000000000000600052603260045260246000fd5b7f4e487b7100000000000000000000000000000000000000000000000000000000600052601160045260246000fd5b6000610dbf8261083b565b9150610dca8361083b565b9250828201905080821115610de257610de1610d85565b5b92915050565b7f4368616c6c656e676520706572696f64206e6f74206f76657200000000000000600082015250565b6000610e1e601983610af7565b9150610e2982610de8565b602082019050919050565b60006020820190508181036000830152610e4d81610e11565b9050919050565b6000610e5f8261083b565b9150610e6a8361083b565b9250828203905081811115610e8257610e81610d85565b5b92915050565b6000602082019050610e9d600083018461082c565b9291505056fea2646970667358221220296b95b6ab660ea49bc2ad1a90ac80bba0863006259c4111821d1e3ad7c389ff64736f6c63430008130033",
  "immutableReferences": {},
  "source": "// SPDX-License-Identifier: MIT\r\npragma solidity >=0.4.22 <0.9.0;\r\n\r\ncontract StateCommitmentChain {\r\n    struct BatchInfo {\r\n        bytes32 stateRoot;\r\n        uint256 timestamp;\r\n        bool finalized;\r\n        address proposer;\r\n        bytes32 batchId;\r\n    }\r\n\r\n    //  \r\n    mapping(bytes32 => BatchInfo) public pendingBatches;\r\n    //   \r\n    BatchInfo[] public finalizedBatches;\r\n\r\n    BatchInfo[] public batches;\r\n    uint256 public challengePeriod = 10 minutes;\r\n\r\n    event StateBatchAppended(bytes32 indexed batchId, bytes batchData, bytes32 stateRoot, address proposer);\r\n    event StateBatchFinalized(uint256 indexed batchIndex, bytes32 batchId);\r\n\r\n    constructor() {}\r\n\r\n    function appendStateBatch(bytes calldata _calldata, bytes32 _stateRoot, address _proposer, bytes32 _batchId) public {\r\n        require(_calldata.length > 0, \"Calldata cannot be empty\");\r\n        require(_proposer != address(0), \"Proposer address cannot be zero\");\r\n        require(pendingBatches[_batchId].timestamp == 0, \"Batch ID already exists\");\r\n\r\n        uint256 timestamp = block.timestamp;\r\n\r\n        \r\n        emit StateBatchAppended(_batchId, _calldata, _stateRoot, _proposer);\r\n    }\r\n\r\n    function finalizeBatch(bytes32 _batchId, bytes32 _stateRoot, uint256 _timestamp, address _proposer) public {\r\n        // BatchInfo storage batch = pendingBatches[_batchId];\r\n        // require(batch.timestamp != 0,   \"Batch does not exist\");\r\n        // require(!batch.finalized, \"Batch already finalized\");\r\n        // require(block.timestamp >= batch.timestamp + challengePeriod, \"Challenge period not over\");\r\n\r\n        require(block.timestamp >= _timestamp + challengePeriod, \"Challenge period not over\");\r\n\r\n        BatchInfo memory newBatch = BatchInfo({\r\n            stateRoot: _stateRoot,\r\n            timestamp: _timestamp,\r\n            finalized: true,\r\n            proposer: _proposer,\r\n            batchId: _batchId\r\n        });\r\n\r\n        finalizedBatches.push(newBatch);\r\n        emit StateBatchFinalized(finalizedBatches.length - 1, _batchId);\r\n\r\n        delete pendingBatches[_batchId];\r\n    }\r\n\r\n    function getFinalizedBatchCount() public view returns (uint256) {\r\n        return finalizedBatches.length;\r\n    }\r\n\r\n    function getBatch(uint256 _index) public view returns (bytes32 stateRoot, uint256 timestamp, bool finalized, address proposer, bytes32 batchId) {\r\n        require(_index < finalizedBatches.length, \"Batch index out of bounds\");\r\n        BatchInfo memory batch = finalizedBatches[_index];\r\n        return (batch.stateRoot, batch.timestamp, batch.finalized, batch.proposer, batch.batchId);\r\n    }\r\n}",
  "sourcePath": "C:\\Users\\Jaewon.DESKTOP-OT1V5PK\\Desktop\\project\\rollup\\contracts\\StateCommitmentChain.sol",
  "compiler": {
    "name": "solc",
    "version": "0.8.19+commit.7dd6d404.Emscripten.clang"
  },
  "schemaVersion": "3.4.16",
  "updatedAt": "2024-06-30T15:00:58.566Z",
  "networkType": "ethereum",
  "devdoc": {
    "kind": "dev",
    "methods": {},
    "version": 1
  },
  "userdoc": {
    "kind": "user",
    "methods": {},
    "version": 1
  }
}