{
  "contractName": "StateCommitmentChain",
  "abi": [
    {
      "anonymous": false,
      "inputs": [
        {
          "indexed": true,
          "internalType": "uint256",
          "name": "batchIndex",
          "type": "uint256"
        }
      ],
      "name": "BatchInvalidated",
      "type": "event"
    },
    {
      "anonymous": false,
      "inputs": [
        {
          "indexed": false,
          "internalType": "uint256",
          "name": "newChallengePeriod",
          "type": "uint256"
        }
      ],
      "name": "ChallengePeriodUpdated",
      "type": "event"
    },
    {
      "anonymous": false,
      "inputs": [
        {
          "indexed": true,
          "internalType": "uint256",
          "name": "batchIndex",
          "type": "uint256"
        },
        {
          "indexed": false,
          "internalType": "bytes",
          "name": "batchData",
          "type": "bytes"
        },
        {
          "indexed": false,
          "internalType": "bytes32",
          "name": "stateRoot",
          "type": "bytes32"
        },
        {
          "indexed": false,
          "internalType": "bytes32",
          "name": "transactionsRoot",
          "type": "bytes32"
        },
        {
          "indexed": false,
          "internalType": "address",
          "name": "proposer",
          "type": "address"
        },
        {
          "indexed": false,
          "internalType": "bytes32",
          "name": "batchId",
          "type": "bytes32"
        }
      ],
      "name": "StateBatchAppended",
      "type": "event"
    },
    {
      "anonymous": false,
      "inputs": [
        {
          "indexed": true,
          "internalType": "uint256",
          "name": "batchIndex",
          "type": "uint256"
        }
      ],
      "name": "StateBatchFinalized",
      "type": "event"
    },
    {
      "inputs": [
        {
          "internalType": "uint256",
          "name": "",
          "type": "uint256"
        }
      ],
      "name": "batches",
      "outputs": [
        {
          "internalType": "bytes",
          "name": "batchData",
          "type": "bytes"
        },
        {
          "internalType": "bytes32",
          "name": "stateRoot",
          "type": "bytes32"
        },
        {
          "internalType": "bytes32",
          "name": "transactionsRoot",
          "type": "bytes32"
        },
        {
          "internalType": "uint256",
          "name": "timestamp",
          "type": "uint256"
        },
        {
          "internalType": "bool",
          "name": "finalized",
          "type": "bool"
        },
        {
          "internalType": "bool",
          "name": "valid",
          "type": "bool"
        },
        {
          "internalType": "address",
          "name": "proposer",
          "type": "address"
        },
        {
          "internalType": "bytes32",
          "name": "batchId",
          "type": "bytes32"
        },
        {
          "internalType": "uint256",
          "name": "batchIndex",
          "type": "uint256"
        }
      ],
      "stateMutability": "view",
      "type": "function",
      "constant": true
    },
    {
      "inputs": [],
      "name": "challengePeriod",
      "outputs": [
        {
          "internalType": "uint256",
          "name": "",
          "type": "uint256"
        }
      ],
      "stateMutability": "view",
      "type": "function",
      "constant": true
    },
    {
      "inputs": [],
      "name": "latestValidBatch",
      "outputs": [
        {
          "internalType": "uint256",
          "name": "",
          "type": "uint256"
        }
      ],
      "stateMutability": "view",
      "type": "function",
      "constant": true
    },
    {
      "inputs": [
        {
          "internalType": "bytes",
          "name": "_calldata",
          "type": "bytes"
        },
        {
          "internalType": "bytes32",
          "name": "_stateRoot",
          "type": "bytes32"
        },
        {
          "internalType": "bytes32",
          "name": "_transactionsRoot",
          "type": "bytes32"
        },
        {
          "internalType": "address",
          "name": "_proposer",
          "type": "address"
        },
        {
          "internalType": "bytes32",
          "name": "_batchId",
          "type": "bytes32"
        }
      ],
      "name": "appendStateBatch",
      "outputs": [],
      "stateMutability": "nonpayable",
      "type": "function"
    },
    {
      "inputs": [
        {
          "internalType": "uint256",
          "name": "_batchIndex",
          "type": "uint256"
        }
      ],
      "name": "finalizeBatch",
      "outputs": [],
      "stateMutability": "nonpayable",
      "type": "function"
    },
    {
      "inputs": [
        {
          "internalType": "uint256",
          "name": "_batchIndex",
          "type": "uint256"
        }
      ],
      "name": "invalidateBatch",
      "outputs": [],
      "stateMutability": "nonpayable",
      "type": "function"
    },
    {
      "inputs": [
        {
          "internalType": "uint256",
          "name": "_index",
          "type": "uint256"
        }
      ],
      "name": "getBatch",
      "outputs": [
        {
          "internalType": "bytes",
          "name": "batchData",
          "type": "bytes"
        },
        {
          "internalType": "bytes32",
          "name": "stateRoot",
          "type": "bytes32"
        },
        {
          "internalType": "bytes32",
          "name": "transactionsRoot",
          "type": "bytes32"
        },
        {
          "internalType": "uint256",
          "name": "timestamp",
          "type": "uint256"
        },
        {
          "internalType": "bool",
          "name": "finalized",
          "type": "bool"
        },
        {
          "internalType": "bool",
          "name": "valid",
          "type": "bool"
        },
        {
          "internalType": "address",
          "name": "proposer",
          "type": "address"
        },
        {
          "internalType": "bytes32",
          "name": "batchId",
          "type": "bytes32"
        },
        {
          "internalType": "uint256",
          "name": "batchIndex",
          "type": "uint256"
        }
      ],
      "stateMutability": "view",
      "type": "function",
      "constant": true
    },
    {
      "inputs": [
        {
          "internalType": "bytes32",
          "name": "_batchId",
          "type": "bytes32"
        }
      ],
      "name": "getBatchByBatchId",
      "outputs": [
        {
          "internalType": "bytes",
          "name": "batchData",
          "type": "bytes"
        },
        {
          "internalType": "bytes32",
          "name": "stateRoot",
          "type": "bytes32"
        },
        {
          "internalType": "bytes32",
          "name": "transactionsRoot",
          "type": "bytes32"
        },
        {
          "internalType": "uint256",
          "name": "timestamp",
          "type": "uint256"
        },
        {
          "internalType": "bool",
          "name": "finalized",
          "type": "bool"
        },
        {
          "internalType": "bool",
          "name": "valid",
          "type": "bool"
        },
        {
          "internalType": "address",
          "name": "proposer",
          "type": "address"
        },
        {
          "internalType": "bytes32",
          "name": "batchId",
          "type": "bytes32"
        },
        {
          "internalType": "uint256",
          "name": "batchIndex",
          "type": "uint256"
        }
      ],
      "stateMutability": "view",
      "type": "function",
      "constant": true
    },
    {
      "inputs": [],
      "name": "getLatestValidBatch",
      "outputs": [
        {
          "internalType": "uint256",
          "name": "",
          "type": "uint256"
        }
      ],
      "stateMutability": "view",
      "type": "function",
      "constant": true
    },
    {
      "inputs": [
        {
          "internalType": "bytes32",
          "name": "_batchId",
          "type": "bytes32"
        }
      ],
      "name": "getBatchTransactionsRoot",
      "outputs": [
        {
          "internalType": "bytes32",
          "name": "",
          "type": "bytes32"
        }
      ],
      "stateMutability": "view",
      "type": "function",
      "constant": true
    },
    {
      "inputs": [
        {
          "internalType": "bytes32",
          "name": "_batchId",
          "type": "bytes32"
        }
      ],
      "name": "getBatchStateRoot",
      "outputs": [
        {
          "internalType": "bytes32",
          "name": "",
          "type": "bytes32"
        }
      ],
      "stateMutability": "view",
      "type": "function",
      "constant": true
    },
    {
      "inputs": [
        {
          "internalType": "bytes32",
          "name": "_batchId",
          "type": "bytes32"
        }
      ],
      "name": "getPreviousStateRoot",
      "outputs": [
        {
          "internalType": "bytes32",
          "name": "",
          "type": "bytes32"
        }
      ],
      "stateMutability": "view",
      "type": "function",
      "constant": true
    }
  ],
  "bytecode": "0x608060405262093a8060025534801561001757600080fd5b50611f45806100276000396000f3fe608060405234801561001057600080fd5b50600436106100b45760003560e01c8063983479f511610071578063983479f5146101af578063adcb83f4146101df578063b32c4d8d146101fd578063b44cebb714610235578063e33491a714610265578063f3f480d914610281576100b4565b8063257717d0146100b9578063277576a6146100d55780633057076d146100f35780633a5a0d87146101235780635ac442821461015b578063777e6d5b14610193575b600080fd5b6100d360048036038101906100ce91906111f5565b61029f565b005b6100dd6104a9565b6040516100ea9190611231565b60405180910390f35b61010d60048036038101906101089190611282565b6104af565b60405161011a91906112be565b60405180910390f35b61013d60048036038101906101389190611282565b61063b565b604051610152999897969594939291906113c5565b60405180910390f35b610175600480360381019061017091906111f5565b6108a9565b60405161018a999897969594939291906113c5565b60405180910390f35b6101ad60048036038101906101a891906115ba565b610acd565b005b6101c960048036038101906101c49190611282565b610ce6565b6040516101d691906112be565b60405180910390f35b6101e7610da9565b6040516101f49190611231565b60405180910390f35b610217600480360381019061021291906111f5565b610db3565b60405161022c999897969594939291906113c5565b60405180910390f35b61024f600480360381019061024a9190611282565b610ed3565b60405161025c91906112be565b60405180910390f35b61027f600480360381019061027a91906111f5565b610f96565b005b6102896111a5565b6040516102969190611231565b60405180910390f35b60008054905081106102e6576040517f08c379a00000000000000000000000000000000000000000000000000000000081526004016102dd906116ae565b60405180910390fd5b600081815481106102fa576102f96116ce565b5b906000526020600020906007020160040160009054906101000a900460ff1615610359576040517f08c379a00000000000000000000000000000000000000000000000000000000081526004016103509061176f565b60405180910390fd5b6000818154811061036d5761036c6116ce565b5b906000526020600020906007020160040160019054906101000a900460ff166103cb576040517f08c379a00000000000000000000000000000000000000000000000000000000081526004016103c2906117db565b60405180910390fd5b60008082815481106103e0576103df6116ce565b5b906000526020600020906007020160040160016101000a81548160ff0219169083151502179055506001548103610479575b60006001541180156104565750600060015481548110610435576104346116ce565b5b906000526020600020906007020160040160019054906101000a900460ff16155b15610478576001600081548092919061046e9061182a565b9190505550610412565b5b807fab8ba19422ae2e5756776d00c39b05c444a4a4cd1dc79cd2c678cccaa7f4602e60405160405180910390a250565b60015481565b600080600080549050905060005b6000805490508110156105115783600082815481106104df576104de6116ce565b5b906000526020600020906007020160050154036104fe57809150610511565b808061050990611853565b9150506104bd565b506000805490508110610559576040517f08c379a00000000000000000000000000000000000000000000000000000000081526004016105509061190d565b60405180910390fd5b60008190505b60008111156105fa576000600182610577919061192d565b81548110610588576105876116ce565b5b906000526020600020906007020160040160019054906101000a900460ff16156105e75760006001826105bb919061192d565b815481106105cc576105cb6116ce565b5b90600052602060002090600702016001015492505050610636565b80806105f29061182a565b91505061055f565b506040517f08c379a000000000000000000000000000000000000000000000000000000000815260040161062d906119d3565b60405180910390fd5b919050565b606060008060008060008060008060005b600080549050811015610860578a6000828154811061066e5761066d6116ce565b5b9060005260206000209060070201600501540361084d57600080828154811061069a576106996116ce565b5b9060005260206000209060070201604051806101200160405290816000820180546106c490611a22565b80601f01602080910402602001604051908101604052809291908181526020018280546106f090611a22565b801561073d5780601f106107125761010080835404028352916020019161073d565b820191906000526020600020905b81548152906001019060200180831161072057829003601f168201915b505050505081526020016001820154815260200160028201548152602001600382015481526020016004820160009054906101000a900460ff161515151581526020016004820160019054906101000a900460ff161515151581526020016004820160029054906101000a900473ffffffffffffffffffffffffffffffffffffffff1673ffffffffffffffffffffffffffffffffffffffff1673ffffffffffffffffffffffffffffffffffffffff168152602001600582015481526020016006820154815250509050806000015181602001518260400151836060015184608001518560a001518660c001518760e001518861010001519a509a509a509a509a509a509a509a509a50505061089c565b808061085890611853565b91505061064c565b506040517f08c379a000000000000000000000000000000000000000000000000000000000815260040161089390611a9f565b60405180910390fd5b9193959799909294969850565b60606000806000806000806000806000805490508a106108fe576040517f08c379a00000000000000000000000000000000000000000000000000000000081526004016108f5906116ae565b60405180910390fd5b6000808b81548110610913576109126116ce565b5b90600052602060002090600702016040518061012001604052908160008201805461093d90611a22565b80601f016020809104026020016040519081016040528092919081815260200182805461096990611a22565b80156109b65780601f1061098b576101008083540402835291602001916109b6565b820191906000526020600020905b81548152906001019060200180831161099957829003601f168201915b505050505081526020016001820154815260200160028201548152602001600382015481526020016004820160009054906101000a900460ff161515151581526020016004820160019054906101000a900460ff161515151581526020016004820160029054906101000a900473ffffffffffffffffffffffffffffffffffffffff1673ffffffffffffffffffffffffffffffffffffffff1673ffffffffffffffffffffffffffffffffffffffff168152602001600582015481526020016006820154815250509050806000015181602001518260400151836060015184608001518560a001518660c001518760e00151886101000151995099509950995099509950995099509950509193959799909294969850565b60006040518061012001604052808781526020018681526020018581526020014281526020016000151581526020016001151581526020018473ffffffffffffffffffffffffffffffffffffffff168152602001838152602001600080549050815250905060008190806001815401808255809150506001900390600052602060002090600702016000909190919091506000820151816000019081610b739190611c6b565b5060208201518160010155604082015181600201556060820151816003015560808201518160040160006101000a81548160ff02191690831515021790555060a08201518160040160016101000a81548160ff02191690831515021790555060c08201518160040160026101000a81548173ffffffffffffffffffffffffffffffffffffffff021916908373ffffffffffffffffffffffffffffffffffffffff16021790555060e082015181600501556101008201518160060155505060006001600080549050610c44919061192d565b90506000811480610c9057506000600182610c5f919061192d565b81548110610c7057610c6f6116ce565b5b906000526020600020906007020160040160019054906101000a900460ff165b15610c9d57806001819055505b807f367de8cb818e81532c9a246406700bc1f47d489e3bb31d3cdb75b629b522ce618888888888604051610cd5959493929190611d3d565b60405180910390a250505050505050565b600080600090505b600080549050811015610d68578260008281548110610d1057610d0f6116ce565b5b90600052602060002090600702016005015403610d555760008181548110610d3b57610d3a6116ce565b5b906000526020600020906007020160020154915050610da4565b8080610d6090611853565b915050610cee565b506040517f08c379a0000000000000000000000000000000000000000000000000000000008152600401610d9b90611a9f565b60405180910390fd5b919050565b6000600154905090565b60008181548110610dc357600080fd5b9060005260206000209060070201600091509050806000018054610de690611a22565b80601f0160208091040260200160405190810160405280929190818152602001828054610e1290611a22565b8015610e5f5780601f10610e3457610100808354040283529160200191610e5f565b820191906000526020600020905b815481529060010190602001808311610e4257829003601f168201915b5050505050908060010154908060020154908060030154908060040160009054906101000a900460ff16908060040160019054906101000a900460ff16908060040160029054906101000a900473ffffffffffffffffffffffffffffffffffffffff16908060050154908060060154905089565b600080600090505b600080549050811015610f55578260008281548110610efd57610efc6116ce565b5b90600052602060002090600702016005015403610f425760008181548110610f2857610f276116ce565b5b906000526020600020906007020160010154915050610f91565b8080610f4d90611853565b915050610edb565b506040517f08c379a0000000000000000000000000000000000000000000000000000000008152600401610f8890611a9f565b60405180910390fd5b919050565b6000805490508110610fdd576040517f08c379a0000000000000000000000000000000000000000000000000000000008152600401610fd4906116ae565b60405180910390fd5b60008181548110610ff157610ff06116ce565b5b906000526020600020906007020160040160009054906101000a900460ff1615611050576040517f08c379a000000000000000000000000000000000000000000000000000000000815260040161104790611de3565b60405180910390fd5b60008181548110611064576110636116ce565b5b906000526020600020906007020160040160019054906101000a900460ff166110c2576040517f08c379a00000000000000000000000000000000000000000000000000000000081526004016110b990611e4f565b60405180910390fd5b600254600082815481106110d9576110d86116ce565b5b9060005260206000209060070201600301546110f59190611e6f565b421015611137576040517f08c379a000000000000000000000000000000000000000000000000000000000815260040161112e90611eef565b60405180910390fd5b60016000828154811061114d5761114c6116ce565b5b906000526020600020906007020160040160006101000a81548160ff021916908315150217905550807fbb803f4b9749d4fb1acf2a4e008dee4cd8d1443f16bc6c88c4e9d7310d5dd4ac60405160405180910390a250565b60025481565b6000604051905090565b600080fd5b600080fd5b6000819050919050565b6111d2816111bf565b81146111dd57600080fd5b50565b6000813590506111ef816111c9565b92915050565b60006020828403121561120b5761120a6111b5565b5b6000611219848285016111e0565b91505092915050565b61122b816111bf565b82525050565b60006020820190506112466000830184611222565b92915050565b6000819050919050565b61125f8161124c565b811461126a57600080fd5b50565b60008135905061127c81611256565b92915050565b600060208284031215611298576112976111b5565b5b60006112a68482850161126d565b91505092915050565b6112b88161124c565b82525050565b60006020820190506112d360008301846112af565b92915050565b600081519050919050565b600082825260208201905092915050565b60005b838110156113135780820151818401526020810190506112f8565b60008484015250505050565b6000601f19601f8301169050919050565b600061133b826112d9565b61134581856112e4565b93506113558185602086016112f5565b61135e8161131f565b840191505092915050565b60008115159050919050565b61137e81611369565b82525050565b600073ffffffffffffffffffffffffffffffffffffffff82169050919050565b60006113af82611384565b9050919050565b6113bf816113a4565b82525050565b60006101208201905081810360008301526113e0818c611330565b90506113ef602083018b6112af565b6113fc604083018a6112af565b6114096060830189611222565b6114166080830188611375565b61142360a0830187611375565b61143060c08301866113b6565b61143d60e08301856112af565b61144b610100830184611222565b9a9950505050505050505050565b600080fd5b600080fd5b7f4e487b7100000000000000000000000000000000000000000000000000000000600052604160045260246000fd5b61149b8261131f565b810181811067ffffffffffffffff821117156114ba576114b9611463565b5b80604052505050565b60006114cd6111ab565b90506114d98282611492565b919050565b600067ffffffffffffffff8211156114f9576114f8611463565b5b6115028261131f565b9050602081019050919050565b82818337600083830152505050565b600061153161152c846114de565b6114c3565b90508281526020810184848401111561154d5761154c61145e565b5b61155884828561150f565b509392505050565b600082601f83011261157557611574611459565b5b813561158584826020860161151e565b91505092915050565b611597816113a4565b81146115a257600080fd5b50565b6000813590506115b48161158e565b92915050565b600080600080600060a086880312156115d6576115d56111b5565b5b600086013567ffffffffffffffff8111156115f4576115f36111ba565b5b61160088828901611560565b95505060206116118882890161126d565b94505060406116228882890161126d565b9350506060611633888289016115a5565b92505060806116448882890161126d565b9150509295509295909350565b600082825260208201905092915050565b7f426174636820696e646578206f7574206f6620626f756e647300000000000000600082015250565b6000611698601983611651565b91506116a382611662565b602082019050919050565b600060208201905081810360008301526116c78161168b565b9050919050565b7f4e487b7100000000000000000000000000000000000000000000000000000000600052603260045260246000fd5b7f43616e6e6f7420696e76616c69646174652066696e616c697a6564206261746360008201527f6800000000000000000000000000000000000000000000000000000000000000602082015250565b6000611759602183611651565b9150611764826116fd565b604082019050919050565b600060208201905081810360008301526117888161174c565b9050919050565b7f426174636820616c726561647920696e76616c69646174656400000000000000600082015250565b60006117c5601983611651565b91506117d08261178f565b602082019050919050565b600060208201905081810360008301526117f4816117b8565b9050919050565b7f4e487b7100000000000000000000000000000000000000000000000000000000600052601160045260246000fd5b6000611835826111bf565b915060008203611848576118476117fb565b5b600182039050919050565b600061185e826111bf565b91507fffffffffffffffffffffffffffffffffffffffffffffffffffffffffffffffff82036118905761188f6117fb565b5b600182019050919050565b7f426174636820776974682074686520676976656e2062617463684964206e6f7460008201527f20666f756e640000000000000000000000000000000000000000000000000000602082015250565b60006118f7602683611651565b91506119028261189b565b604082019050919050565b60006020820190508181036000830152611926816118ea565b9050919050565b6000611938826111bf565b9150611943836111bf565b925082820390508181111561195b5761195a6117fb565b5b92915050565b7f4e6f2076616c69642070726576696f757320737461746520726f6f7420666f7560008201527f6e64000000000000000000000000000000000000000000000000000000000000602082015250565b60006119bd602283611651565b91506119c882611961565b604082019050919050565b600060208201905081810360008301526119ec816119b0565b9050919050565b7f4e487b7100000000000000000000000000000000000000000000000000000000600052602260045260246000fd5b60006002820490506001821680611a3a57607f821691505b602082108103611a4d57611a4c6119f3565b5b50919050565b7f4261746368206e6f7420666f756e640000000000000000000000000000000000600082015250565b6000611a89600f83611651565b9150611a9482611a53565b602082019050919050565b60006020820190508181036000830152611ab881611a7c565b9050919050565b60008190508160005260206000209050919050565b60006020601f8301049050919050565b600082821b905092915050565b600060088302611b217fffffffffffffffffffffffffffffffffffffffffffffffffffffffffffffffff82611ae4565b611b2b8683611ae4565b95508019841693508086168417925050509392505050565b6000819050919050565b6000611b68611b63611b5e846111bf565b611b43565b6111bf565b9050919050565b6000819050919050565b611b8283611b4d565b611b96611b8e82611b6f565b848454611af1565b825550505050565b600090565b611bab611b9e565b611bb6818484611b79565b505050565b5b81811015611bda57611bcf600082611ba3565b600181019050611bbc565b5050565b601f821115611c1f57611bf081611abf565b611bf984611ad4565b81016020851015611c08578190505b611c1c611c1485611ad4565b830182611bbb565b50505b505050565b600082821c905092915050565b6000611c4260001984600802611c24565b1980831691505092915050565b6000611c5b8383611c31565b9150826002028217905092915050565b611c74826112d9565b67ffffffffffffffff811115611c8d57611c8c611463565b5b611c978254611a22565b611ca2828285611bde565b600060209050601f831160018114611cd55760008415611cc3578287015190505b611ccd8582611c4f565b865550611d35565b601f198416611ce386611abf565b60005b82811015611d0b57848901518255600182019150602085019450602081019050611ce6565b86831015611d285784890151611d24601f891682611c31565b8355505b6001600288020188555050505b505050505050565b600060a0820190508181036000830152611d578188611330565b9050611d6660208301876112af565b611d7360408301866112af565b611d8060608301856113b6565b611d8d60808301846112af565b9695505050505050565b7f426174636820616c72656164792066696e616c697a6564000000000000000000600082015250565b6000611dcd601783611651565b9150611dd882611d97565b602082019050919050565b60006020820190508181036000830152611dfc81611dc0565b9050919050565b7f43616e6e6f742066696e616c697a6520696e76616c6964206261746368000000600082015250565b6000611e39601d83611651565b9150611e4482611e03565b602082019050919050565b60006020820190508181036000830152611e6881611e2c565b9050919050565b6000611e7a826111bf565b9150611e85836111bf565b9250828201905080821115611e9d57611e9c6117fb565b5b92915050565b7f4368616c6c656e676520706572696f64206e6f74206f76657200000000000000600082015250565b6000611ed9601983611651565b9150611ee482611ea3565b602082019050919050565b60006020820190508181036000830152611f0881611ecc565b905091905056fea2646970667358221220290f97be5d27e7a5d5252780a46e86d72320c86e28ed9ad813e4c895cab406b964736f6c63430008130033",
  "immutableReferences": {},
  "source": "// SPDX-License-Identifier: MIT\r\npragma solidity >=0.4.22 <0.9.0;\r\n\r\ncontract StateCommitmentChain {\r\n    struct BatchInfo {\r\n        bytes batchData;\r\n        bytes32 stateRoot;\r\n        bytes32 transactionsRoot;\r\n        uint256 timestamp;\r\n        bool finalized;\r\n        bool valid;\r\n        address proposer;\r\n        bytes32 batchId;\r\n        uint256 batchIndex;\r\n    }\r\n\r\n    BatchInfo[] public batches;\r\n    uint256 public latestValidBatch;\r\n    uint256 public challengePeriod = 7 days;\r\n\r\n    event StateBatchAppended(uint256 indexed batchIndex, bytes batchData, bytes32 stateRoot, bytes32 transactionsRoot, address proposer, bytes32 batchId);\r\n    event StateBatchFinalized(uint256 indexed batchIndex);\r\n    event ChallengePeriodUpdated(uint256 newChallengePeriod);\r\n    event BatchInvalidated(uint256 indexed batchIndex);\r\n\r\n    function appendStateBatch(bytes memory _calldata, bytes32 _stateRoot, bytes32 _transactionsRoot, address _proposer, bytes32 _batchId) public {\r\n        BatchInfo memory newBatch = BatchInfo({\r\n            batchData: _calldata,\r\n            stateRoot: _stateRoot,\r\n            transactionsRoot: _transactionsRoot,\r\n            timestamp: block.timestamp,\r\n            finalized: false,\r\n            valid: true,\r\n            proposer: _proposer,\r\n            batchId: _batchId,\r\n            batchIndex: batches.length\r\n        });\r\n\r\n        batches.push(newBatch);\r\n        uint256 newBatchIndex = batches.length - 1;\r\n\r\n        if (newBatchIndex == 0 || batches[newBatchIndex - 1].valid) {\r\n            latestValidBatch = newBatchIndex;\r\n        }\r\n\r\n        emit StateBatchAppended(newBatchIndex, _calldata, _stateRoot, _transactionsRoot, _proposer, _batchId);\r\n    }\r\n\r\n    function finalizeBatch(uint256 _batchIndex) public {\r\n        require(_batchIndex < batches.length, \"Batch index out of bounds\");\r\n        require(!batches[_batchIndex].finalized, \"Batch already finalized\");\r\n        require(batches[_batchIndex].valid, \"Cannot finalize invalid batch\");\r\n        require(block.timestamp >= batches[_batchIndex].timestamp + challengePeriod, \"Challenge period not over\");\r\n\r\n        batches[_batchIndex].finalized = true;\r\n        emit StateBatchFinalized(_batchIndex);\r\n    }\r\n\r\n    function invalidateBatch(uint256 _batchIndex) public {\r\n        require(_batchIndex < batches.length, \"Batch index out of bounds\");\r\n        require(!batches[_batchIndex].finalized, \"Cannot invalidate finalized batch\");\r\n        require(batches[_batchIndex].valid, \"Batch already invalidated\");\r\n\r\n        batches[_batchIndex].valid = false;\r\n\r\n        if (_batchIndex == latestValidBatch) {\r\n            while (latestValidBatch > 0 && !batches[latestValidBatch].valid) {\r\n                latestValidBatch--;\r\n            }\r\n        }\r\n\r\n        emit BatchInvalidated(_batchIndex);\r\n    }\r\n\r\n    function getBatch(uint256 _index) public view returns (\r\n        bytes memory batchData,\r\n        bytes32 stateRoot,\r\n        bytes32 transactionsRoot,\r\n        uint256 timestamp,\r\n        bool finalized,\r\n        bool valid,\r\n        address proposer,\r\n        bytes32 batchId,\r\n        uint256 batchIndex\r\n    ) {\r\n        require(_index < batches.length, \"Batch index out of bounds\");\r\n        BatchInfo memory batch = batches[_index];\r\n        return (\r\n            batch.batchData,\r\n            batch.stateRoot,\r\n            batch.transactionsRoot,\r\n            batch.timestamp,\r\n            batch.finalized,\r\n            batch.valid,\r\n            batch.proposer,\r\n            batch.batchId,\r\n            batch.batchIndex\r\n        );\r\n    }\r\n\r\n    function getBatchByBatchId(bytes32 _batchId) public view returns (\r\n        bytes memory batchData,\r\n        bytes32 stateRoot,\r\n        bytes32 transactionsRoot,\r\n        uint256 timestamp,\r\n        bool finalized,\r\n        bool valid,\r\n        address proposer,\r\n        bytes32 batchId,\r\n        uint256 batchIndex\r\n    ) {\r\n        for (uint256 i = 0; i < batches.length; i++) {\r\n            if (batches[i].batchId == _batchId) {\r\n                BatchInfo memory batch = batches[i];\r\n                return (\r\n                    batch.batchData,\r\n                    batch.stateRoot,\r\n                    batch.transactionsRoot,\r\n                    batch.timestamp,\r\n                    batch.finalized,\r\n                    batch.valid,\r\n                    batch.proposer,\r\n                    batch.batchId,\r\n                    batch.batchIndex\r\n                );\r\n            }\r\n        }\r\n        revert(\"Batch not found\");\r\n    }\r\n\r\n    function getLatestValidBatch() public view returns (uint256) {\r\n        return latestValidBatch;\r\n    }\r\n\r\n    function getBatchTransactionsRoot(bytes32 _batchId) public view returns (bytes32) {\r\n        for (uint256 i = 0; i < batches.length; i++) {\r\n            if (batches[i].batchId == _batchId) {\r\n                return batches[i].transactionsRoot;\r\n            }\r\n        }\r\n        revert(\"Batch not found\");\r\n    }\r\n\r\n    function getBatchStateRoot(bytes32 _batchId) public view returns (bytes32) {\r\n        for (uint256 i = 0; i < batches.length; i++) {\r\n            if (batches[i].batchId == _batchId) {\r\n                return batches[i].stateRoot;\r\n            }\r\n        }\r\n        revert(\"Batch not found\");\r\n    }\r\n\r\n    function getPreviousStateRoot(bytes32 _batchId) public view returns (bytes32) {\r\n        uint256 batchIndex = batches.length;  //  batches.length     \r\n        for (uint256 i = 0; i < batches.length; i++) {\r\n            if (batches[i].batchId == _batchId) {\r\n                batchIndex = i;\r\n                break;\r\n            }\r\n        }\r\n\r\n        //      \r\n        require(batchIndex < batches.length, \"Batch with the given batchId not found\");\r\n\r\n        //    \r\n        for (uint256 i = batchIndex; i > 0; i--) {\r\n            if (batches[i - 1].valid) {\r\n                return batches[i - 1].stateRoot;\r\n            }\r\n        }\r\n\r\n        revert(\"No valid previous state root found\");\r\n    }\r\n}\r\n",
  "sourcePath": "C:\\Users\\Jaewon.DESKTOP-OT1V5PK\\Desktop\\project\\rollup\\contracts\\StateCommitmentChain.sol",
  "compiler": {
    "name": "solc",
    "version": "0.8.19+commit.7dd6d404.Emscripten.clang"
  },
  "schemaVersion": "3.4.16",
  "updatedAt": "2024-07-03T07:41:55.202Z",
  "networkType": "ethereum",
  "devdoc": {
    "kind": "dev",
    "methods": {},
    "version": 1
  },
  "userdoc": {
    "kind": "user",
    "methods": {},
    "version": 1
  }
}