{
  "contractName": "StateCommitmentChain",
  "abi": [
    {
      "inputs": [],
      "stateMutability": "nonpayable",
      "type": "constructor"
    },
    {
      "anonymous": false,
      "inputs": [
        {
          "indexed": true,
          "internalType": "address",
          "name": "previousOwner",
          "type": "address"
        },
        {
          "indexed": true,
          "internalType": "address",
          "name": "newOwner",
          "type": "address"
        }
      ],
      "name": "OwnershipTransferred",
      "type": "event"
    },
    {
      "anonymous": false,
      "inputs": [
        {
          "indexed": true,
          "internalType": "uint256",
          "name": "batchIndex",
          "type": "uint256"
        },
        {
          "indexed": false,
          "internalType": "bytes32",
          "name": "stateRoot",
          "type": "bytes32"
        },
        {
          "indexed": false,
          "internalType": "address",
          "name": "proposer",
          "type": "address"
        }
      ],
      "name": "StateBatchAppended",
      "type": "event"
    },
    {
      "anonymous": false,
      "inputs": [
        {
          "indexed": true,
          "internalType": "uint256",
          "name": "batchIndex",
          "type": "uint256"
        }
      ],
      "name": "StateBatchFinalized",
      "type": "event"
    },
    {
      "inputs": [
        {
          "internalType": "uint256",
          "name": "",
          "type": "uint256"
        }
      ],
      "name": "batches",
      "outputs": [
        {
          "internalType": "bytes32",
          "name": "stateRoot",
          "type": "bytes32"
        },
        {
          "internalType": "uint256",
          "name": "timestamp",
          "type": "uint256"
        },
        {
          "internalType": "bool",
          "name": "finalized",
          "type": "bool"
        },
        {
          "internalType": "address",
          "name": "proposer",
          "type": "address"
        }
      ],
      "stateMutability": "view",
      "type": "function",
      "constant": true
    },
    {
      "inputs": [],
      "name": "challengePeriod",
      "outputs": [
        {
          "internalType": "uint256",
          "name": "",
          "type": "uint256"
        }
      ],
      "stateMutability": "view",
      "type": "function",
      "constant": true
    },
    {
      "inputs": [],
      "name": "owner",
      "outputs": [
        {
          "internalType": "address",
          "name": "",
          "type": "address"
        }
      ],
      "stateMutability": "view",
      "type": "function",
      "constant": true
    },
    {
      "inputs": [],
      "name": "renounceOwnership",
      "outputs": [],
      "stateMutability": "nonpayable",
      "type": "function"
    },
    {
      "inputs": [
        {
          "internalType": "address",
          "name": "newOwner",
          "type": "address"
        }
      ],
      "name": "transferOwnership",
      "outputs": [],
      "stateMutability": "nonpayable",
      "type": "function"
    },
    {
      "inputs": [
        {
          "internalType": "bytes32[]",
          "name": "_batch",
          "type": "bytes32[]"
        },
        {
          "internalType": "address",
          "name": "_proposer",
          "type": "address"
        }
      ],
      "name": "appendStateBatch",
      "outputs": [],
      "stateMutability": "nonpayable",
      "type": "function"
    },
    {
      "inputs": [
        {
          "internalType": "uint256",
          "name": "_batchIndex",
          "type": "uint256"
        }
      ],
      "name": "finalizeBatch",
      "outputs": [],
      "stateMutability": "nonpayable",
      "type": "function"
    },
    {
      "inputs": [
        {
          "internalType": "bytes32[]",
          "name": "_batch",
          "type": "bytes32[]"
        },
        {
          "internalType": "address",
          "name": "_proposer",
          "type": "address"
        }
      ],
      "name": "submitBatch",
      "outputs": [],
      "stateMutability": "nonpayable",
      "type": "function"
    }
  ],
  "bytecode": "0x608060405262093a8060025534801561001757600080fd5b5061003461002961003960201b60201c565b61004160201b60201c565b610105565b600033905090565b60008060009054906101000a900473ffffffffffffffffffffffffffffffffffffffff169050816000806101000a81548173ffffffffffffffffffffffffffffffffffffffff021916908373ffffffffffffffffffffffffffffffffffffffff1602179055508173ffffffffffffffffffffffffffffffffffffffff168173ffffffffffffffffffffffffffffffffffffffff167f8be0079c531659141344cd1fd0a4f28419497f9722a3daafe3b4186f6b6457e060405160405180910390a35050565b610dee806101146000396000f3fe608060405234801561001057600080fd5b50600436106100885760003560e01c8063ce4ca6c81161005b578063ce4ca6c814610104578063e33491a714610120578063f2fde38b1461013c578063f3f480d91461015857610088565b806309908c971461008d578063715018a6146100a95780638da5cb5b146100b3578063b32c4d8d146100d1575b600080fd5b6100a760048036038101906100a291906108eb565b610176565b005b6100b161018c565b005b6100bb6101a0565b6040516100c89190610956565b60405180910390f35b6100eb60048036038101906100e691906109a7565b6101c9565b6040516100fb9493929190610a0d565b60405180910390f35b61011e600480360381019061011991906108eb565b610236565b005b61013a600480360381019061013591906109a7565b6103c2565b005b61015660048036038101906101519190610a52565b610517565b005b61016061059a565b60405161016d9190610a7f565b60405180910390f35b61017e6105a0565b6101888282610236565b5050565b6101946105a0565b61019e600061061e565b565b60008060009054906101000a900473ffffffffffffffffffffffffffffffffffffffff16905090565b600181815481106101d957600080fd5b90600052602060002090600302016000915090508060000154908060010154908060020160009054906101000a900460ff16908060020160019054906101000a900473ffffffffffffffffffffffffffffffffffffffff16905084565b61023e6105a0565b60005b82518110156103bd576001604051806080016040528085848151811061026a57610269610a9a565b5b602002602001015181526020014281526020016000151581526020018473ffffffffffffffffffffffffffffffffffffffff168152509080600181540180825580915050600190039060005260206000209060030201600090919091909150600082015181600001556020820151816001015560408201518160020160006101000a81548160ff02191690831515021790555060608201518160020160016101000a81548173ffffffffffffffffffffffffffffffffffffffff021916908373ffffffffffffffffffffffffffffffffffffffff1602179055505050600180805490506103579190610af8565b7fc1eef1d71d2c6669bb92f07ac8f5d04be0a1ac5dcefa71906d3f62b73b189b3e84838151811061038b5761038a610a9a565b5b6020026020010151846040516103a2929190610b2c565b60405180910390a280806103b590610b55565b915050610241565b505050565b600181815481106103d6576103d5610a9a565b5b906000526020600020906003020160020160009054906101000a900460ff1615610435576040517f08c379a000000000000000000000000000000000000000000000000000000000815260040161042c90610bfa565b60405180910390fd5b6002546001828154811061044c5761044b610a9a565b5b9060005260206000209060030201600101546104689190610c1a565b4210156104aa576040517f08c379a00000000000000000000000000000000000000000000000000000000081526004016104a190610c9a565b60405180910390fd5b60018082815481106104bf576104be610a9a565b5b906000526020600020906003020160020160006101000a81548160ff021916908315150217905550807fbb803f4b9749d4fb1acf2a4e008dee4cd8d1443f16bc6c88c4e9d7310d5dd4ac60405160405180910390a250565b61051f6105a0565b600073ffffffffffffffffffffffffffffffffffffffff168173ffffffffffffffffffffffffffffffffffffffff160361058e576040517f08c379a000000000000000000000000000000000000000000000000000000000815260040161058590610d2c565b60405180910390fd5b6105978161061e565b50565b60025481565b6105a86106e2565b73ffffffffffffffffffffffffffffffffffffffff166105c66101a0565b73ffffffffffffffffffffffffffffffffffffffff161461061c576040517f08c379a000000000000000000000000000000000000000000000000000000000815260040161061390610d98565b60405180910390fd5b565b60008060009054906101000a900473ffffffffffffffffffffffffffffffffffffffff169050816000806101000a81548173ffffffffffffffffffffffffffffffffffffffff021916908373ffffffffffffffffffffffffffffffffffffffff1602179055508173ffffffffffffffffffffffffffffffffffffffff168173ffffffffffffffffffffffffffffffffffffffff167f8be0079c531659141344cd1fd0a4f28419497f9722a3daafe3b4186f6b6457e060405160405180910390a35050565b600033905090565b6000604051905090565b600080fd5b600080fd5b600080fd5b6000601f19601f8301169050919050565b7f4e487b7100000000000000000000000000000000000000000000000000000000600052604160045260246000fd5b61074c82610703565b810181811067ffffffffffffffff8211171561076b5761076a610714565b5b80604052505050565b600061077e6106ea565b905061078a8282610743565b919050565b600067ffffffffffffffff8211156107aa576107a9610714565b5b602082029050602081019050919050565b600080fd5b6000819050919050565b6107d3816107c0565b81146107de57600080fd5b50565b6000813590506107f0816107ca565b92915050565b60006108096108048461078f565b610774565b9050808382526020820190506020840283018581111561082c5761082b6107bb565b5b835b81811015610855578061084188826107e1565b84526020840193505060208101905061082e565b5050509392505050565b600082601f830112610874576108736106fe565b5b81356108848482602086016107f6565b91505092915050565b600073ffffffffffffffffffffffffffffffffffffffff82169050919050565b60006108b88261088d565b9050919050565b6108c8816108ad565b81146108d357600080fd5b50565b6000813590506108e5816108bf565b92915050565b60008060408385031215610902576109016106f4565b5b600083013567ffffffffffffffff8111156109205761091f6106f9565b5b61092c8582860161085f565b925050602061093d858286016108d6565b9150509250929050565b610950816108ad565b82525050565b600060208201905061096b6000830184610947565b92915050565b6000819050919050565b61098481610971565b811461098f57600080fd5b50565b6000813590506109a18161097b565b92915050565b6000602082840312156109bd576109bc6106f4565b5b60006109cb84828501610992565b91505092915050565b6109dd816107c0565b82525050565b6109ec81610971565b82525050565b60008115159050919050565b610a07816109f2565b82525050565b6000608082019050610a2260008301876109d4565b610a2f60208301866109e3565b610a3c60408301856109fe565b610a496060830184610947565b95945050505050565b600060208284031215610a6857610a676106f4565b5b6000610a76848285016108d6565b91505092915050565b6000602082019050610a9460008301846109e3565b92915050565b7f4e487b7100000000000000000000000000000000000000000000000000000000600052603260045260246000fd5b7f4e487b7100000000000000000000000000000000000000000000000000000000600052601160045260246000fd5b6000610b0382610971565b9150610b0e83610971565b9250828203905081811115610b2657610b25610ac9565b5b92915050565b6000604082019050610b4160008301856109d4565b610b4e6020830184610947565b9392505050565b6000610b6082610971565b91507fffffffffffffffffffffffffffffffffffffffffffffffffffffffffffffffff8203610b9257610b91610ac9565b5b600182019050919050565b600082825260208201905092915050565b7f426174636820616c72656164792066696e616c697a6564000000000000000000600082015250565b6000610be4601783610b9d565b9150610bef82610bae565b602082019050919050565b60006020820190508181036000830152610c1381610bd7565b9050919050565b6000610c2582610971565b9150610c3083610971565b9250828201905080821115610c4857610c47610ac9565b5b92915050565b7f4368616c6c656e676520706572696f64206e6f74206f76657200000000000000600082015250565b6000610c84601983610b9d565b9150610c8f82610c4e565b602082019050919050565b60006020820190508181036000830152610cb381610c77565b9050919050565b7f4f776e61626c653a206e6577206f776e657220697320746865207a65726f206160008201527f6464726573730000000000000000000000000000000000000000000000000000602082015250565b6000610d16602683610b9d565b9150610d2182610cba565b604082019050919050565b60006020820190508181036000830152610d4581610d09565b9050919050565b7f4f776e61626c653a2063616c6c6572206973206e6f7420746865206f776e6572600082015250565b6000610d82602083610b9d565b9150610d8d82610d4c565b602082019050919050565b60006020820190508181036000830152610db181610d75565b905091905056fea26469706673582212208d6b070c3252d29e334d16f857b03e8ace1cd5527ae94d5b0037492c8d09e34f64736f6c63430008130033",
  "immutableReferences": {},
  "source": "// SPDX-License-Identifier: MIT\r\npragma solidity >=0.4.22 <0.9.0;\r\n\r\nimport \"@openzeppelin/contracts/access/Ownable.sol\";\r\n\r\ncontract StateCommitmentChain is Ownable { // ownable  \r\n    // Batch  :  , ,   \r\n    struct Batch {\r\n        bytes32 stateRoot;\r\n        uint256 timestamp;\r\n        bool finalized;\r\n        address proposer;\r\n    }\r\n\r\n    // Batch   public  \r\n    Batch[] public batches;\r\n    uint256 public challengePeriod = 7 days;\r\n\r\n    //      \r\n    event StateBatchAppended(uint256 indexed batchIndex, bytes32 stateRoot, address proposer);\r\n    //      \r\n    event StateBatchFinalized(uint256 indexed batchIndex);\r\n\r\n    //  , Ownable    \r\n    constructor() Ownable() {}\r\n\r\n    //    , onlyOwner    \r\n    function appendStateBatch(bytes32[] memory _batch, address _proposer) public onlyOwner {\r\n        //       batches  \r\n        for (uint i = 0; i < _batch.length; i++) {\r\n            batches.push(Batch({\r\n                stateRoot: _batch[i],\r\n                timestamp: block.timestamp,\r\n                finalized: false,\r\n                proposer: _proposer\r\n            }));\r\n            //      \r\n            emit StateBatchAppended(batches.length - 1, _batch[i], _proposer);\r\n        }\r\n    }\r\n\r\n    //    \r\n    function finalizeBatch(uint256 _batchIndex) public {\r\n        require(!batches[_batchIndex].finalized, \"Batch already finalized\");\r\n        require(block.timestamp >= batches[_batchIndex].timestamp + challengePeriod, \"Challenge period not over\");\r\n\r\n        //    \r\n        batches[_batchIndex].finalized = true;\r\n        emit StateBatchFinalized(_batchIndex);\r\n    }\r\n\r\n    //    ,   \r\n    function submitBatch(bytes32[] memory _batch, address _proposer) public onlyOwner {\r\n        appendStateBatch(_batch, _proposer);\r\n    }\r\n}\r\n",
  "sourcePath": "C:\\Users\\Jaewon.DESKTOP-OT1V5PK\\Desktop\\project\\rollup\\contracts\\StateCommitmentChain.sol",
  "compiler": {
    "name": "solc",
    "version": "0.8.19+commit.7dd6d404.Emscripten.clang"
  },
  "schemaVersion": "3.4.16",
  "updatedAt": "2024-06-26T06:43:13.948Z",
  "networkType": "ethereum",
  "devdoc": {
    "kind": "dev",
    "methods": {
      "owner()": {
        "details": "Returns the address of the current owner."
      },
      "renounceOwnership()": {
        "details": "Leaves the contract without owner. It will not be possible to call `onlyOwner` functions anymore. Can only be called by the current owner. NOTE: Renouncing ownership will leave the contract without an owner, thereby removing any functionality that is only available to the owner."
      },
      "transferOwnership(address)": {
        "details": "Transfers ownership of the contract to a new account (`newOwner`). Can only be called by the current owner."
      }
    },
    "version": 1
  },
  "userdoc": {
    "kind": "user",
    "methods": {},
    "version": 1
  }
}