{
  "contractName": "StateCommitmentChain",
  "abi": [
    {
      "anonymous": false,
      "inputs": [
        {
          "indexed": true,
          "internalType": "uint256",
          "name": "batchIndex",
          "type": "uint256"
        }
      ],
      "name": "BatchInvalidated",
      "type": "event"
    },
    {
      "anonymous": false,
      "inputs": [
        {
          "indexed": false,
          "internalType": "uint256",
          "name": "newChallengePeriod",
          "type": "uint256"
        }
      ],
      "name": "ChallengePeriodUpdated",
      "type": "event"
    },
    {
      "anonymous": false,
      "inputs": [
        {
          "indexed": true,
          "internalType": "uint256",
          "name": "batchIndex",
          "type": "uint256"
        },
        {
          "indexed": false,
          "internalType": "bytes",
          "name": "batchData",
          "type": "bytes"
        },
        {
          "indexed": false,
          "internalType": "bytes32",
          "name": "stateRoot",
          "type": "bytes32"
        },
        {
          "indexed": false,
          "internalType": "bytes32",
          "name": "transactionsRoot",
          "type": "bytes32"
        },
        {
          "indexed": false,
          "internalType": "address",
          "name": "proposer",
          "type": "address"
        },
        {
          "indexed": false,
          "internalType": "bytes32",
          "name": "batchId",
          "type": "bytes32"
        }
      ],
      "name": "StateBatchAppended",
      "type": "event"
    },
    {
      "anonymous": false,
      "inputs": [
        {
          "indexed": true,
          "internalType": "uint256",
          "name": "batchIndex",
          "type": "uint256"
        }
      ],
      "name": "StateBatchFinalized",
      "type": "event"
    },
    {
      "inputs": [
        {
          "internalType": "uint256",
          "name": "",
          "type": "uint256"
        }
      ],
      "name": "batches",
      "outputs": [
        {
          "internalType": "bytes",
          "name": "batchData",
          "type": "bytes"
        },
        {
          "internalType": "bytes32",
          "name": "stateRoot",
          "type": "bytes32"
        },
        {
          "internalType": "bytes32",
          "name": "transactionsRoot",
          "type": "bytes32"
        },
        {
          "internalType": "uint256",
          "name": "timestamp",
          "type": "uint256"
        },
        {
          "internalType": "bool",
          "name": "finalized",
          "type": "bool"
        },
        {
          "internalType": "bool",
          "name": "valid",
          "type": "bool"
        },
        {
          "internalType": "address",
          "name": "proposer",
          "type": "address"
        },
        {
          "internalType": "bytes32",
          "name": "batchId",
          "type": "bytes32"
        }
      ],
      "stateMutability": "view",
      "type": "function",
      "constant": true
    },
    {
      "inputs": [],
      "name": "challengePeriod",
      "outputs": [
        {
          "internalType": "uint256",
          "name": "",
          "type": "uint256"
        }
      ],
      "stateMutability": "view",
      "type": "function",
      "constant": true
    },
    {
      "inputs": [],
      "name": "latestValidBatch",
      "outputs": [
        {
          "internalType": "uint256",
          "name": "",
          "type": "uint256"
        }
      ],
      "stateMutability": "view",
      "type": "function",
      "constant": true
    },
    {
      "inputs": [
        {
          "internalType": "bytes",
          "name": "_calldata",
          "type": "bytes"
        },
        {
          "internalType": "bytes32",
          "name": "_stateRoot",
          "type": "bytes32"
        },
        {
          "internalType": "bytes32",
          "name": "_transactionsRoot",
          "type": "bytes32"
        },
        {
          "internalType": "address",
          "name": "_proposer",
          "type": "address"
        },
        {
          "internalType": "bytes32",
          "name": "_batchId",
          "type": "bytes32"
        }
      ],
      "name": "appendStateBatch",
      "outputs": [],
      "stateMutability": "nonpayable",
      "type": "function"
    },
    {
      "inputs": [
        {
          "internalType": "uint256",
          "name": "_batchIndex",
          "type": "uint256"
        }
      ],
      "name": "finalizeBatch",
      "outputs": [],
      "stateMutability": "nonpayable",
      "type": "function"
    },
    {
      "inputs": [
        {
          "internalType": "uint256",
          "name": "_batchIndex",
          "type": "uint256"
        }
      ],
      "name": "invalidateBatch",
      "outputs": [],
      "stateMutability": "nonpayable",
      "type": "function"
    },
    {
      "inputs": [
        {
          "internalType": "uint256",
          "name": "_index",
          "type": "uint256"
        }
      ],
      "name": "getBatch",
      "outputs": [
        {
          "internalType": "bytes",
          "name": "batchData",
          "type": "bytes"
        },
        {
          "internalType": "bytes32",
          "name": "stateRoot",
          "type": "bytes32"
        },
        {
          "internalType": "bytes32",
          "name": "transactionsRoot",
          "type": "bytes32"
        },
        {
          "internalType": "uint256",
          "name": "timestamp",
          "type": "uint256"
        },
        {
          "internalType": "bool",
          "name": "finalized",
          "type": "bool"
        },
        {
          "internalType": "bool",
          "name": "valid",
          "type": "bool"
        },
        {
          "internalType": "address",
          "name": "proposer",
          "type": "address"
        },
        {
          "internalType": "bytes32",
          "name": "batchId",
          "type": "bytes32"
        }
      ],
      "stateMutability": "view",
      "type": "function",
      "constant": true
    },
    {
      "inputs": [
        {
          "internalType": "bytes32",
          "name": "_batchId",
          "type": "bytes32"
        }
      ],
      "name": "getBatchByBatchId",
      "outputs": [
        {
          "internalType": "bytes",
          "name": "batchData",
          "type": "bytes"
        },
        {
          "internalType": "bytes32",
          "name": "stateRoot",
          "type": "bytes32"
        },
        {
          "internalType": "bytes32",
          "name": "transactionsRoot",
          "type": "bytes32"
        },
        {
          "internalType": "uint256",
          "name": "timestamp",
          "type": "uint256"
        },
        {
          "internalType": "bool",
          "name": "finalized",
          "type": "bool"
        },
        {
          "internalType": "bool",
          "name": "valid",
          "type": "bool"
        },
        {
          "internalType": "address",
          "name": "proposer",
          "type": "address"
        },
        {
          "internalType": "bytes32",
          "name": "batchId",
          "type": "bytes32"
        }
      ],
      "stateMutability": "view",
      "type": "function",
      "constant": true
    },
    {
      "inputs": [],
      "name": "getLatestValidBatch",
      "outputs": [
        {
          "internalType": "uint256",
          "name": "",
          "type": "uint256"
        }
      ],
      "stateMutability": "view",
      "type": "function",
      "constant": true
    },
    {
      "inputs": [
        {
          "internalType": "uint256",
          "name": "_batchIndex",
          "type": "uint256"
        }
      ],
      "name": "getBatchTransactionsRoot",
      "outputs": [
        {
          "internalType": "bytes32",
          "name": "",
          "type": "bytes32"
        }
      ],
      "stateMutability": "view",
      "type": "function",
      "constant": true
    },
    {
      "inputs": [
        {
          "internalType": "uint256",
          "name": "_batchIndex",
          "type": "uint256"
        }
      ],
      "name": "getBatchStateRoot",
      "outputs": [
        {
          "internalType": "bytes32",
          "name": "",
          "type": "bytes32"
        }
      ],
      "stateMutability": "view",
      "type": "function",
      "constant": true
    },
    {
      "inputs": [
        {
          "internalType": "uint256",
          "name": "_batchIndex",
          "type": "uint256"
        }
      ],
      "name": "getPreviousStateRoot",
      "outputs": [
        {
          "internalType": "bytes32",
          "name": "",
          "type": "bytes32"
        }
      ],
      "stateMutability": "view",
      "type": "function",
      "constant": true
    }
  ],
  "bytecode": "0x608060405262093a8060025534801561001757600080fd5b50611d5a806100276000396000f3fe608060405234801561001057600080fd5b50600436106100b45760003560e01c80638cdac507116100715780638cdac507146101ad578063adcb83f4146101dd578063b32c4d8d146101fb578063d12c51e614610232578063e33491a714610262578063f3f480d91461027e576100b4565b8063257717d0146100b9578063277576a6146100d55780633a5a0d87146100f357806356dfb05e1461012a5780635ac442821461015a578063777e6d5b14610191575b600080fd5b6100d360048036038101906100ce9190611019565b61029c565b005b6100dd6104a6565b6040516100ea9190611055565b60405180910390f35b61010d600480360381019061010891906110a6565b6104ac565b6040516101219897969594939291906111ce565b60405180910390f35b610144600480360381019061013f9190611019565b610708565b6040516101519190611253565b60405180910390f35b610174600480360381019061016f9190611019565b610829565b6040516101889897969594939291906111ce565b60405180910390f35b6101ab60048036038101906101a691906113cf565b610a37565b005b6101c760048036038101906101c29190611019565b610c3a565b6040516101d49190611253565b60405180910390f35b6101e5610c68565b6040516101f29190611055565b60405180910390f35b61021560048036038101906102109190611019565b610c72565b6040516102299897969594939291906111ce565b60405180910390f35b61024c60048036038101906102479190611019565b610d8c565b6040516102599190611253565b60405180910390f35b61027c60048036038101906102779190611019565b610dba565b005b610286610fc9565b6040516102939190611055565b60405180910390f35b60008054905081106102e3576040517f08c379a00000000000000000000000000000000000000000000000000000000081526004016102da906114c3565b60405180910390fd5b600081815481106102f7576102f66114e3565b5b906000526020600020906006020160040160009054906101000a900460ff1615610356576040517f08c379a000000000000000000000000000000000000000000000000000000000815260040161034d90611584565b60405180910390fd5b6000818154811061036a576103696114e3565b5b906000526020600020906006020160040160019054906101000a900460ff166103c8576040517f08c379a00000000000000000000000000000000000000000000000000000000081526004016103bf906115f0565b60405180910390fd5b60008082815481106103dd576103dc6114e3565b5b906000526020600020906006020160040160016101000a81548160ff0219169083151502179055506001548103610476575b60006001541180156104535750600060015481548110610432576104316114e3565b5b906000526020600020906006020160040160019054906101000a900460ff16155b15610475576001600081548092919061046b9061163f565b919050555061040f565b5b807fab8ba19422ae2e5756776d00c39b05c444a4a4cd1dc79cd2c678cccaa7f4602e60405160405180910390a250565b60015481565b6060600080600080600080600080600090505b6000805490508110156106c15789600082815481106104e1576104e06114e3565b5b906000526020600020906006020160050154036106ae57600080828154811061050d5761050c6114e3565b5b90600052602060002090600602016040518061010001604052908160008201805461053790611697565b80601f016020809104026020016040519081016040528092919081815260200182805461056390611697565b80156105b05780601f10610585576101008083540402835291602001916105b0565b820191906000526020600020905b81548152906001019060200180831161059357829003601f168201915b505050505081526020016001820154815260200160028201548152602001600382015481526020016004820160009054906101000a900460ff161515151581526020016004820160019054906101000a900460ff161515151581526020016004820160029054906101000a900473ffffffffffffffffffffffffffffffffffffffff1673ffffffffffffffffffffffffffffffffffffffff1673ffffffffffffffffffffffffffffffffffffffff1681526020016005820154815250509050806000015181602001518260400151836060015184608001518560a001518660c001518760e001519950995099509950995099509950995050506106fd565b80806106b9906116c8565b9150506104bf565b506040517f08c379a00000000000000000000000000000000000000000000000000000000081526004016106f49061175c565b60405180910390fd5b919395975091939597565b600080821161074c576040517f08c379a0000000000000000000000000000000000000000000000000000000008152600401610743906117ee565b60405180910390fd5b600060018361075b919061180e565b90505b600081106107e8576000818154811061077a576107796114e3565b5b906000526020600020906006020160040160019054906101000a900460ff16156107cc57600081815481106107b2576107b16114e3565b5b906000526020600020906006020160010154915050610824565b60008103156107e85780806107e09061163f565b91505061075e565b506040517f08c379a000000000000000000000000000000000000000000000000000000000815260040161081b906118b4565b60405180910390fd5b919050565b606060008060008060008060008080549050891061087c576040517f08c379a0000000000000000000000000000000000000000000000000000000008152600401610873906114c3565b60405180910390fd5b6000808a81548110610891576108906114e3565b5b9060005260206000209060060201604051806101000160405290816000820180546108bb90611697565b80601f01602080910402602001604051908101604052809291908181526020018280546108e790611697565b80156109345780601f1061090957610100808354040283529160200191610934565b820191906000526020600020905b81548152906001019060200180831161091757829003601f168201915b505050505081526020016001820154815260200160028201548152602001600382015481526020016004820160009054906101000a900460ff161515151581526020016004820160019054906101000a900460ff161515151581526020016004820160029054906101000a900473ffffffffffffffffffffffffffffffffffffffff1673ffffffffffffffffffffffffffffffffffffffff1673ffffffffffffffffffffffffffffffffffffffff1681526020016005820154815250509050806000015181602001518260400151836060015184608001518560a001518660c001518760e001519850985098509850985098509850985050919395975091939597565b60006040518061010001604052808781526020018681526020018581526020014281526020016000151581526020016001151581526020018473ffffffffffffffffffffffffffffffffffffffff16815260200183815250905060008190806001815401808255809150506001900390600052602060002090600602016000909190919091506000820151816000019081610ad29190611a80565b5060208201518160010155604082015181600201556060820151816003015560808201518160040160006101000a81548160ff02191690831515021790555060a08201518160040160016101000a81548160ff02191690831515021790555060c08201518160040160026101000a81548173ffffffffffffffffffffffffffffffffffffffff021916908373ffffffffffffffffffffffffffffffffffffffff16021790555060e08201518160050155505060006001600080549050610b98919061180e565b90506000811480610be457506000600182610bb3919061180e565b81548110610bc457610bc36114e3565b5b906000526020600020906006020160040160019054906101000a900460ff165b15610bf157806001819055505b807f367de8cb818e81532c9a246406700bc1f47d489e3bb31d3cdb75b629b522ce618888888888604051610c29959493929190611b52565b60405180910390a250505050505050565b6000808281548110610c4f57610c4e6114e3565b5b9060005260206000209060060201600201549050919050565b6000600154905090565b60008181548110610c8257600080fd5b9060005260206000209060060201600091509050806000018054610ca590611697565b80601f0160208091040260200160405190810160405280929190818152602001828054610cd190611697565b8015610d1e5780601f10610cf357610100808354040283529160200191610d1e565b820191906000526020600020905b815481529060010190602001808311610d0157829003601f168201915b5050505050908060010154908060020154908060030154908060040160009054906101000a900460ff16908060040160019054906101000a900460ff16908060040160029054906101000a900473ffffffffffffffffffffffffffffffffffffffff16908060050154905088565b6000808281548110610da157610da06114e3565b5b9060005260206000209060060201600101549050919050565b6000805490508110610e01576040517f08c379a0000000000000000000000000000000000000000000000000000000008152600401610df8906114c3565b60405180910390fd5b60008181548110610e1557610e146114e3565b5b906000526020600020906006020160040160009054906101000a900460ff1615610e74576040517f08c379a0000000000000000000000000000000000000000000000000000000008152600401610e6b90611bf8565b60405180910390fd5b60008181548110610e8857610e876114e3565b5b906000526020600020906006020160040160019054906101000a900460ff16610ee6576040517f08c379a0000000000000000000000000000000000000000000000000000000008152600401610edd90611c64565b60405180910390fd5b60025460008281548110610efd57610efc6114e3565b5b906000526020600020906006020160030154610f199190611c84565b421015610f5b576040517f08c379a0000000000000000000000000000000000000000000000000000000008152600401610f5290611d04565b60405180910390fd5b600160008281548110610f7157610f706114e3565b5b906000526020600020906006020160040160006101000a81548160ff021916908315150217905550807fbb803f4b9749d4fb1acf2a4e008dee4cd8d1443f16bc6c88c4e9d7310d5dd4ac60405160405180910390a250565b60025481565b6000604051905090565b600080fd5b600080fd5b6000819050919050565b610ff681610fe3565b811461100157600080fd5b50565b60008135905061101381610fed565b92915050565b60006020828403121561102f5761102e610fd9565b5b600061103d84828501611004565b91505092915050565b61104f81610fe3565b82525050565b600060208201905061106a6000830184611046565b92915050565b6000819050919050565b61108381611070565b811461108e57600080fd5b50565b6000813590506110a08161107a565b92915050565b6000602082840312156110bc576110bb610fd9565b5b60006110ca84828501611091565b91505092915050565b600081519050919050565b600082825260208201905092915050565b60005b8381101561110d5780820151818401526020810190506110f2565b60008484015250505050565b6000601f19601f8301169050919050565b6000611135826110d3565b61113f81856110de565b935061114f8185602086016110ef565b61115881611119565b840191505092915050565b61116c81611070565b82525050565b60008115159050919050565b61118781611172565b82525050565b600073ffffffffffffffffffffffffffffffffffffffff82169050919050565b60006111b88261118d565b9050919050565b6111c8816111ad565b82525050565b60006101008201905081810360008301526111e9818b61112a565b90506111f8602083018a611163565b6112056040830189611163565b6112126060830188611046565b61121f608083018761117e565b61122c60a083018661117e565b61123960c08301856111bf565b61124660e0830184611163565b9998505050505050505050565b60006020820190506112686000830184611163565b92915050565b600080fd5b600080fd5b7f4e487b7100000000000000000000000000000000000000000000000000000000600052604160045260246000fd5b6112b082611119565b810181811067ffffffffffffffff821117156112cf576112ce611278565b5b80604052505050565b60006112e2610fcf565b90506112ee82826112a7565b919050565b600067ffffffffffffffff82111561130e5761130d611278565b5b61131782611119565b9050602081019050919050565b82818337600083830152505050565b6000611346611341846112f3565b6112d8565b90508281526020810184848401111561136257611361611273565b5b61136d848285611324565b509392505050565b600082601f83011261138a5761138961126e565b5b813561139a848260208601611333565b91505092915050565b6113ac816111ad565b81146113b757600080fd5b50565b6000813590506113c9816113a3565b92915050565b600080600080600060a086880312156113eb576113ea610fd9565b5b600086013567ffffffffffffffff81111561140957611408610fde565b5b61141588828901611375565b955050602061142688828901611091565b945050604061143788828901611091565b9350506060611448888289016113ba565b925050608061145988828901611091565b9150509295509295909350565b600082825260208201905092915050565b7f426174636820696e646578206f7574206f6620626f756e647300000000000000600082015250565b60006114ad601983611466565b91506114b882611477565b602082019050919050565b600060208201905081810360008301526114dc816114a0565b9050919050565b7f4e487b7100000000000000000000000000000000000000000000000000000000600052603260045260246000fd5b7f43616e6e6f7420696e76616c69646174652066696e616c697a6564206261746360008201527f6800000000000000000000000000000000000000000000000000000000000000602082015250565b600061156e602183611466565b915061157982611512565b604082019050919050565b6000602082019050818103600083015261159d81611561565b9050919050565b7f426174636820616c726561647920696e76616c69646174656400000000000000600082015250565b60006115da601983611466565b91506115e5826115a4565b602082019050919050565b60006020820190508181036000830152611609816115cd565b9050919050565b7f4e487b7100000000000000000000000000000000000000000000000000000000600052601160045260246000fd5b600061164a82610fe3565b91506000820361165d5761165c611610565b5b600182039050919050565b7f4e487b7100000000000000000000000000000000000000000000000000000000600052602260045260246000fd5b600060028204905060018216806116af57607f821691505b6020821081036116c2576116c1611668565b5b50919050565b60006116d382610fe3565b91507fffffffffffffffffffffffffffffffffffffffffffffffffffffffffffffffff820361170557611704611610565b5b600182019050919050565b7f4261746368206e6f7420666f756e640000000000000000000000000000000000600082015250565b6000611746600f83611466565b915061175182611710565b602082019050919050565b6000602082019050818103600083015261177581611739565b9050919050565b7f4e6f2070726576696f757320737461746520726f6f7420666f7220666972737460008201527f2062617463680000000000000000000000000000000000000000000000000000602082015250565b60006117d8602683611466565b91506117e38261177c565b604082019050919050565b60006020820190508181036000830152611807816117cb565b9050919050565b600061181982610fe3565b915061182483610fe3565b925082820390508181111561183c5761183b611610565b5b92915050565b7f4e6f2076616c69642070726576696f757320737461746520726f6f7420666f7560008201527f6e64000000000000000000000000000000000000000000000000000000000000602082015250565b600061189e602283611466565b91506118a982611842565b604082019050919050565b600060208201905081810360008301526118cd81611891565b9050919050565b60008190508160005260206000209050919050565b60006020601f8301049050919050565b600082821b905092915050565b6000600883026119367fffffffffffffffffffffffffffffffffffffffffffffffffffffffffffffffff826118f9565b61194086836118f9565b95508019841693508086168417925050509392505050565b6000819050919050565b600061197d61197861197384610fe3565b611958565b610fe3565b9050919050565b6000819050919050565b61199783611962565b6119ab6119a382611984565b848454611906565b825550505050565b600090565b6119c06119b3565b6119cb81848461198e565b505050565b5b818110156119ef576119e46000826119b8565b6001810190506119d1565b5050565b601f821115611a3457611a05816118d4565b611a0e846118e9565b81016020851015611a1d578190505b611a31611a29856118e9565b8301826119d0565b50505b505050565b600082821c905092915050565b6000611a5760001984600802611a39565b1980831691505092915050565b6000611a708383611a46565b9150826002028217905092915050565b611a89826110d3565b67ffffffffffffffff811115611aa257611aa1611278565b5b611aac8254611697565b611ab78282856119f3565b600060209050601f831160018114611aea5760008415611ad8578287015190505b611ae28582611a64565b865550611b4a565b601f198416611af8866118d4565b60005b82811015611b2057848901518255600182019150602085019450602081019050611afb565b86831015611b3d5784890151611b39601f891682611a46565b8355505b6001600288020188555050505b505050505050565b600060a0820190508181036000830152611b6c818861112a565b9050611b7b6020830187611163565b611b886040830186611163565b611b9560608301856111bf565b611ba26080830184611163565b9695505050505050565b7f426174636820616c72656164792066696e616c697a6564000000000000000000600082015250565b6000611be2601783611466565b9150611bed82611bac565b602082019050919050565b60006020820190508181036000830152611c1181611bd5565b9050919050565b7f43616e6e6f742066696e616c697a6520696e76616c6964206261746368000000600082015250565b6000611c4e601d83611466565b9150611c5982611c18565b602082019050919050565b60006020820190508181036000830152611c7d81611c41565b9050919050565b6000611c8f82610fe3565b9150611c9a83610fe3565b9250828201905080821115611cb257611cb1611610565b5b92915050565b7f4368616c6c656e676520706572696f64206e6f74206f76657200000000000000600082015250565b6000611cee601983611466565b9150611cf982611cb8565b602082019050919050565b60006020820190508181036000830152611d1d81611ce1565b905091905056fea26469706673582212200de0e404e660af932a025593cd064c37150ff18878d97bcc0599bbc8c167ca6a64736f6c63430008130033",
  "immutableReferences": {},
  "source": "// SPDX-License-Identifier: MIT\r\npragma solidity >=0.4.22 <0.9.0;\r\n\r\ncontract StateCommitmentChain {\r\n    struct BatchInfo {\r\n        bytes batchData;\r\n        bytes32 stateRoot;\r\n        bytes32 transactionsRoot;\r\n        uint256 timestamp;\r\n        bool finalized;\r\n        bool valid;\r\n        address proposer;\r\n        bytes32 batchId;\r\n    }\r\n\r\n    BatchInfo[] public batches;\r\n    uint256 public latestValidBatch;\r\n    uint256 public challengePeriod = 7 days;\r\n\r\n    event StateBatchAppended(uint256 indexed batchIndex, bytes batchData, bytes32 stateRoot, bytes32 transactionsRoot, address proposer, bytes32 batchId);\r\n    event StateBatchFinalized(uint256 indexed batchIndex);\r\n    event ChallengePeriodUpdated(uint256 newChallengePeriod);\r\n    event BatchInvalidated(uint256 indexed batchIndex);\r\n\r\n    function appendStateBatch(bytes memory _calldata, bytes32 _stateRoot, bytes32 _transactionsRoot, address _proposer, bytes32 _batchId) public {\r\n        BatchInfo memory newBatch = BatchInfo({\r\n            batchData: _calldata,\r\n            stateRoot: _stateRoot,\r\n            transactionsRoot: _transactionsRoot,\r\n            timestamp: block.timestamp,\r\n            finalized: false,\r\n            valid: true,\r\n            proposer: _proposer,\r\n            batchId: _batchId\r\n        });\r\n\r\n        batches.push(newBatch);\r\n        uint256 newBatchIndex = batches.length - 1;\r\n\r\n        if (newBatchIndex == 0 || batches[newBatchIndex - 1].valid) {\r\n            latestValidBatch = newBatchIndex;\r\n        }\r\n\r\n        emit StateBatchAppended(newBatchIndex, _calldata, _stateRoot, _transactionsRoot, _proposer, _batchId);\r\n    }\r\n\r\n    function finalizeBatch(uint256 _batchIndex) public {\r\n        require(_batchIndex < batches.length, \"Batch index out of bounds\");\r\n        require(!batches[_batchIndex].finalized, \"Batch already finalized\");\r\n        require(batches[_batchIndex].valid, \"Cannot finalize invalid batch\");\r\n        require(block.timestamp >= batches[_batchIndex].timestamp + challengePeriod, \"Challenge period not over\");\r\n\r\n        batches[_batchIndex].finalized = true;\r\n        emit StateBatchFinalized(_batchIndex);\r\n    }\r\n\r\n    function invalidateBatch(uint256 _batchIndex) public {\r\n        require(_batchIndex < batches.length, \"Batch index out of bounds\");\r\n        require(!batches[_batchIndex].finalized, \"Cannot invalidate finalized batch\");\r\n        require(batches[_batchIndex].valid, \"Batch already invalidated\");\r\n\r\n        batches[_batchIndex].valid = false;\r\n\r\n        if (_batchIndex == latestValidBatch) {\r\n            while (latestValidBatch > 0 && !batches[latestValidBatch].valid) {\r\n                latestValidBatch--;\r\n            }\r\n        }\r\n\r\n        emit BatchInvalidated(_batchIndex);\r\n    }\r\n\r\n    function getBatch(uint256 _index) public view returns (\r\n        bytes memory batchData,\r\n        bytes32 stateRoot,\r\n        bytes32 transactionsRoot,\r\n        uint256 timestamp,\r\n        bool finalized,\r\n        bool valid,\r\n        address proposer,\r\n        bytes32 batchId\r\n    ) {\r\n        require(_index < batches.length, \"Batch index out of bounds\");\r\n        BatchInfo memory batch = batches[_index];\r\n        return (\r\n            batch.batchData,\r\n            batch.stateRoot,\r\n            batch.transactionsRoot,\r\n            batch.timestamp,\r\n            batch.finalized,\r\n            batch.valid,\r\n            batch.proposer,\r\n            batch.batchId\r\n        );\r\n    }\r\n\r\n    function getBatchByBatchId(bytes32 _batchId) public view returns (\r\n    bytes memory batchData,\r\n    bytes32 stateRoot,\r\n    bytes32 transactionsRoot,\r\n    uint256 timestamp,\r\n    bool finalized,\r\n    bool valid,\r\n    address proposer,\r\n    bytes32 batchId\r\n) {\r\n    for (uint256 i = 0; i < batches.length; i++) {\r\n        if (batches[i].batchId == _batchId) {\r\n            BatchInfo memory batch = batches[i];\r\n            return (\r\n                batch.batchData,\r\n                batch.stateRoot,\r\n                batch.transactionsRoot,\r\n                batch.timestamp,\r\n                batch.finalized,\r\n                batch.valid,\r\n                batch.proposer,\r\n                batch.batchId\r\n            );\r\n        }\r\n    }\r\n    revert(\"Batch not found\");\r\n}\r\n\r\n\r\n    function getLatestValidBatch() public view returns (uint256) {\r\n        return latestValidBatch;\r\n    }\r\n\r\n    function getBatchTransactionsRoot(uint256 _batchIndex) public view returns (bytes32) {\r\n        return batches[_batchIndex].transactionsRoot;\r\n    }\r\n\r\n    function getBatchStateRoot(uint256 _batchIndex) public view returns (bytes32) {\r\n        return batches[_batchIndex].stateRoot;\r\n    }\r\n\r\n    function getPreviousStateRoot(uint256 _batchIndex) public view returns (bytes32) {\r\n        require(_batchIndex > 0, \"No previous state root for first batch\");\r\n\r\n        //    \r\n        for (uint256 i = _batchIndex - 1; i >= 0; i--) {\r\n            if (batches[i].valid) {\r\n                return batches[i].stateRoot;\r\n            }\r\n            //   \r\n            if (i == 0) break;\r\n        }\r\n\r\n        revert(\"No valid previous state root found\");\r\n    }\r\n}\r\n\r\n\r\n\r\n// pragma solidity >=0.4.22 <0.9.0;\r\n\r\n// import \"./FraudVerifier.sol\";\r\n\r\n// contract StateCommitmentChain {\r\n//     struct BatchInfo {\r\n//         bytes batchData;\r\n//         bytes32 stateRoot;\r\n//         uint256 timestamp;\r\n//         bool finalized;\r\n//         address proposer;\r\n//         bytes32 batchId;\r\n//     }\r\n\r\n//     BatchInfo[] public batches;\r\n//     uint256 public challengePeriod = 10 minutes;\r\n\r\n//     event StateBatchAppended(uint256 indexed batchIndex, bytes batchData, bytes32 stateRoot, address proposer, bytes32 batchId);\r\n//     event StateBatchFinalized(uint256 indexed batchIndex);\r\n\r\n//     constructor() {}\r\n\r\n//     function appendStateBatch(bytes memory _calldata, bytes32 _stateRoot, address _proposer, bytes32 _batchId) public {\r\n//         require(_calldata.length > 0, \"Calldata cannot be empty\");\r\n//         require(_proposer != address(0), \"Proposer address cannot be zero\");\r\n\r\n//         BatchInfo memory newBatch = BatchInfo({\r\n//             batchData: _calldata,\r\n//             stateRoot: _stateRoot,\r\n//             timestamp: block.timestamp,\r\n//             finalized: false,\r\n//             proposer: _proposer,\r\n//             batchId: _batchId\r\n//         });\r\n\r\n//         batches.push(newBatch);\r\n\r\n//         emit StateBatchAppended(batches.length - 1, _calldata, _stateRoot, _proposer, _batchId);\r\n//     }\r\n\r\n//     function finalizeBatch(uint256 _batchIndex) public {\r\n//         require(!batches[_batchIndex].finalized, \"Batch already finalized\");\r\n//         require(block.timestamp >= batches[_batchIndex].timestamp + challengePeriod, \"Challenge period not over\");\r\n\r\n//         batches[_batchIndex].finalized = true;\r\n//         emit StateBatchFinalized(_batchIndex);\r\n//     }\r\n\r\n//     function getBatchCount() public view returns (uint256) {\r\n//         return batches.length;\r\n//     }\r\n\r\n//     function getBatch(uint256 _index) public view returns (bytes memory batchData, bytes32 stateRoot, uint256 timestamp, bool finalized, address proposer, bytes32 batchId) {\r\n//         require(_index < batches.length, \"Batch index out of bounds\");\r\n//         BatchInfo memory batch = batches[_index];\r\n//         return (batch.batchData, batch.stateRoot, batch.timestamp, batch.finalized, batch.proposer, batch.batchId);\r\n//     }\r\n// }",
  "sourcePath": "C:\\Users\\Jaewon.DESKTOP-OT1V5PK\\Desktop\\project\\rollup\\contracts\\StateCommitmentChain.sol",
  "compiler": {
    "name": "solc",
    "version": "0.8.19+commit.7dd6d404.Emscripten.clang"
  },
  "schemaVersion": "3.4.16",
  "updatedAt": "2024-07-03T01:17:37.268Z",
  "networkType": "ethereum",
  "devdoc": {
    "kind": "dev",
    "methods": {},
    "version": 1
  },
  "userdoc": {
    "kind": "user",
    "methods": {},
    "version": 1
  }
}