{
  "contractName": "StateCommitmentChain",
  "abi": [
    {
      "inputs": [],
      "stateMutability": "nonpayable",
      "type": "constructor"
    },
    {
      "anonymous": false,
      "inputs": [
        {
          "indexed": true,
          "internalType": "uint256",
          "name": "batchIndex",
          "type": "uint256"
        },
        {
          "indexed": false,
          "internalType": "bytes",
          "name": "batchData",
          "type": "bytes"
        },
        {
          "indexed": false,
          "internalType": "bytes32",
          "name": "stateRoot",
          "type": "bytes32"
        },
        {
          "indexed": false,
          "internalType": "address",
          "name": "proposer",
          "type": "address"
        },
        {
          "indexed": false,
          "internalType": "bytes32",
          "name": "batchId",
          "type": "bytes32"
        }
      ],
      "name": "StateBatchAppended",
      "type": "event"
    },
    {
      "anonymous": false,
      "inputs": [
        {
          "indexed": true,
          "internalType": "uint256",
          "name": "batchIndex",
          "type": "uint256"
        }
      ],
      "name": "StateBatchFinalized",
      "type": "event"
    },
    {
      "inputs": [
        {
          "internalType": "uint256",
          "name": "",
          "type": "uint256"
        }
      ],
      "name": "batches",
      "outputs": [
        {
          "internalType": "bytes",
          "name": "batchData",
          "type": "bytes"
        },
        {
          "internalType": "bytes32",
          "name": "stateRoot",
          "type": "bytes32"
        },
        {
          "internalType": "uint256",
          "name": "timestamp",
          "type": "uint256"
        },
        {
          "internalType": "bool",
          "name": "finalized",
          "type": "bool"
        },
        {
          "internalType": "address",
          "name": "proposer",
          "type": "address"
        },
        {
          "internalType": "bytes32",
          "name": "batchId",
          "type": "bytes32"
        }
      ],
      "stateMutability": "view",
      "type": "function",
      "constant": true
    },
    {
      "inputs": [],
      "name": "challengePeriod",
      "outputs": [
        {
          "internalType": "uint256",
          "name": "",
          "type": "uint256"
        }
      ],
      "stateMutability": "view",
      "type": "function",
      "constant": true
    },
    {
      "inputs": [
        {
          "internalType": "bytes",
          "name": "_calldata",
          "type": "bytes"
        },
        {
          "internalType": "bytes32",
          "name": "_stateRoot",
          "type": "bytes32"
        },
        {
          "internalType": "address",
          "name": "_proposer",
          "type": "address"
        },
        {
          "internalType": "bytes32",
          "name": "_batchId",
          "type": "bytes32"
        }
      ],
      "name": "appendStateBatch",
      "outputs": [],
      "stateMutability": "nonpayable",
      "type": "function"
    },
    {
      "inputs": [
        {
          "internalType": "uint256",
          "name": "_batchIndex",
          "type": "uint256"
        }
      ],
      "name": "finalizeBatch",
      "outputs": [],
      "stateMutability": "nonpayable",
      "type": "function"
    },
    {
      "inputs": [],
      "name": "getBatchCount",
      "outputs": [
        {
          "internalType": "uint256",
          "name": "",
          "type": "uint256"
        }
      ],
      "stateMutability": "view",
      "type": "function",
      "constant": true
    },
    {
      "inputs": [
        {
          "internalType": "uint256",
          "name": "_index",
          "type": "uint256"
        }
      ],
      "name": "getBatch",
      "outputs": [
        {
          "internalType": "bytes",
          "name": "batchData",
          "type": "bytes"
        },
        {
          "internalType": "bytes32",
          "name": "stateRoot",
          "type": "bytes32"
        },
        {
          "internalType": "uint256",
          "name": "timestamp",
          "type": "uint256"
        },
        {
          "internalType": "bool",
          "name": "finalized",
          "type": "bool"
        },
        {
          "internalType": "address",
          "name": "proposer",
          "type": "address"
        },
        {
          "internalType": "bytes32",
          "name": "batchId",
          "type": "bytes32"
        }
      ],
      "stateMutability": "view",
      "type": "function",
      "constant": true
    }
  ],
  "bytecode": "0x608060405261025860015534801561001657600080fd5b50611210806100266000396000f3fe608060405234801561001057600080fd5b50600436106100625760003560e01c806345b6df2b146100675780635ac4428214610083578063a8fabfa5146100b8578063b32c4d8d146100d6578063e33491a71461010b578063f3f480d914610127575b600080fd5b610081600480360381019061007c919061098d565b610145565b005b61009d60048036038101906100989190610a46565b610361565b6040516100af96959493929190610b3a565b60405180910390f35b6100c0610536565b6040516100cd9190610ba2565b60405180910390f35b6100f060048036038101906100eb9190610a46565b610542565b60405161010296959493929190610b3a565b60405180910390f35b61012560048036038101906101209190610a46565b610643565b005b61012f610799565b60405161013c9190610ba2565b60405180910390f35b6000845111610189576040517f08c379a000000000000000000000000000000000000000000000000000000000815260040161018090610c1a565b60405180910390fd5b600073ffffffffffffffffffffffffffffffffffffffff168273ffffffffffffffffffffffffffffffffffffffff16036101f8576040517f08c379a00000000000000000000000000000000000000000000000000000000081526004016101ef90610c86565b60405180910390fd5b60006040518060c001604052808681526020018581526020014281526020016000151581526020018473ffffffffffffffffffffffffffffffffffffffff168152602001838152509050600081908060018154018082558091505060019003906000526020600020906005020160009091909190915060008201518160000190816102839190610eb2565b50602082015181600101556040820151816002015560608201518160030160006101000a81548160ff02191690831515021790555060808201518160030160016101000a81548173ffffffffffffffffffffffffffffffffffffffff021916908373ffffffffffffffffffffffffffffffffffffffff16021790555060a082015181600401555050600160008054905061031d9190610fb3565b7f3a4c144ef8544c494591eec2c701c588854736bbb76fbce9d3e39d8ae4134143868686866040516103529493929190610fe7565b60405180910390a25050505050565b60606000806000806000808054905087106103b1576040517f08c379a00000000000000000000000000000000000000000000000000000000081526004016103a89061107f565b60405180910390fd5b60008088815481106103c6576103c561109f565b5b90600052602060002090600502016040518060c00160405290816000820180546103ef90610cd5565b80601f016020809104026020016040519081016040528092919081815260200182805461041b90610cd5565b80156104685780601f1061043d57610100808354040283529160200191610468565b820191906000526020600020905b81548152906001019060200180831161044b57829003601f168201915b5050505050815260200160018201548152602001600282015481526020016003820160009054906101000a900460ff161515151581526020016003820160019054906101000a900473ffffffffffffffffffffffffffffffffffffffff1673ffffffffffffffffffffffffffffffffffffffff1673ffffffffffffffffffffffffffffffffffffffff1681526020016004820154815250509050806000015181602001518260400151836060015184608001518560a001519650965096509650965096505091939550919395565b60008080549050905090565b6000818154811061055257600080fd5b906000526020600020906005020160009150905080600001805461057590610cd5565b80601f01602080910402602001604051908101604052809291908181526020018280546105a190610cd5565b80156105ee5780601f106105c3576101008083540402835291602001916105ee565b820191906000526020600020905b8154815290600101906020018083116105d157829003601f168201915b5050505050908060010154908060020154908060030160009054906101000a900460ff16908060030160019054906101000a900473ffffffffffffffffffffffffffffffffffffffff16908060040154905086565b600081815481106106575761065661109f565b5b906000526020600020906005020160030160009054906101000a900460ff16156106b6576040517f08c379a00000000000000000000000000000000000000000000000000000000081526004016106ad9061111a565b60405180910390fd5b600154600082815481106106cd576106cc61109f565b5b9060005260206000209060050201600201546106e9919061113a565b42101561072b576040517f08c379a0000000000000000000000000000000000000000000000000000000008152600401610722906111ba565b60405180910390fd5b6001600082815481106107415761074061109f565b5b906000526020600020906005020160030160006101000a81548160ff021916908315150217905550807fbb803f4b9749d4fb1acf2a4e008dee4cd8d1443f16bc6c88c4e9d7310d5dd4ac60405160405180910390a250565b60015481565b6000604051905090565b600080fd5b600080fd5b600080fd5b600080fd5b6000601f19601f8301169050919050565b7f4e487b7100000000000000000000000000000000000000000000000000000000600052604160045260246000fd5b610806826107bd565b810181811067ffffffffffffffff82111715610825576108246107ce565b5b80604052505050565b600061083861079f565b905061084482826107fd565b919050565b600067ffffffffffffffff821115610864576108636107ce565b5b61086d826107bd565b9050602081019050919050565b82818337600083830152505050565b600061089c61089784610849565b61082e565b9050828152602081018484840111156108b8576108b76107b8565b5b6108c384828561087a565b509392505050565b600082601f8301126108e0576108df6107b3565b5b81356108f0848260208601610889565b91505092915050565b6000819050919050565b61090c816108f9565b811461091757600080fd5b50565b60008135905061092981610903565b92915050565b600073ffffffffffffffffffffffffffffffffffffffff82169050919050565b600061095a8261092f565b9050919050565b61096a8161094f565b811461097557600080fd5b50565b60008135905061098781610961565b92915050565b600080600080608085870312156109a7576109a66107a9565b5b600085013567ffffffffffffffff8111156109c5576109c46107ae565b5b6109d1878288016108cb565b94505060206109e28782880161091a565b93505060406109f387828801610978565b9250506060610a048782880161091a565b91505092959194509250565b6000819050919050565b610a2381610a10565b8114610a2e57600080fd5b50565b600081359050610a4081610a1a565b92915050565b600060208284031215610a5c57610a5b6107a9565b5b6000610a6a84828501610a31565b91505092915050565b600081519050919050565b600082825260208201905092915050565b60005b83811015610aad578082015181840152602081019050610a92565b60008484015250505050565b6000610ac482610a73565b610ace8185610a7e565b9350610ade818560208601610a8f565b610ae7816107bd565b840191505092915050565b610afb816108f9565b82525050565b610b0a81610a10565b82525050565b60008115159050919050565b610b2581610b10565b82525050565b610b348161094f565b82525050565b600060c0820190508181036000830152610b548189610ab9565b9050610b636020830188610af2565b610b706040830187610b01565b610b7d6060830186610b1c565b610b8a6080830185610b2b565b610b9760a0830184610af2565b979650505050505050565b6000602082019050610bb76000830184610b01565b92915050565b600082825260208201905092915050565b7f43616c6c646174612063616e6e6f7420626520656d7074790000000000000000600082015250565b6000610c04601883610bbd565b9150610c0f82610bce565b602082019050919050565b60006020820190508181036000830152610c3381610bf7565b9050919050565b7f50726f706f73657220616464726573732063616e6e6f74206265207a65726f00600082015250565b6000610c70601f83610bbd565b9150610c7b82610c3a565b602082019050919050565b60006020820190508181036000830152610c9f81610c63565b9050919050565b7f4e487b7100000000000000000000000000000000000000000000000000000000600052602260045260246000fd5b60006002820490506001821680610ced57607f821691505b602082108103610d0057610cff610ca6565b5b50919050565b60008190508160005260206000209050919050565b60006020601f8301049050919050565b600082821b905092915050565b600060088302610d687fffffffffffffffffffffffffffffffffffffffffffffffffffffffffffffffff82610d2b565b610d728683610d2b565b95508019841693508086168417925050509392505050565b6000819050919050565b6000610daf610daa610da584610a10565b610d8a565b610a10565b9050919050565b6000819050919050565b610dc983610d94565b610ddd610dd582610db6565b848454610d38565b825550505050565b600090565b610df2610de5565b610dfd818484610dc0565b505050565b5b81811015610e2157610e16600082610dea565b600181019050610e03565b5050565b601f821115610e6657610e3781610d06565b610e4084610d1b565b81016020851015610e4f578190505b610e63610e5b85610d1b565b830182610e02565b50505b505050565b600082821c905092915050565b6000610e8960001984600802610e6b565b1980831691505092915050565b6000610ea28383610e78565b9150826002028217905092915050565b610ebb82610a73565b67ffffffffffffffff811115610ed457610ed36107ce565b5b610ede8254610cd5565b610ee9828285610e25565b600060209050601f831160018114610f1c5760008415610f0a578287015190505b610f148582610e96565b865550610f7c565b601f198416610f2a86610d06565b60005b82811015610f5257848901518255600182019150602085019450602081019050610f2d565b86831015610f6f5784890151610f6b601f891682610e78565b8355505b6001600288020188555050505b505050505050565b7f4e487b7100000000000000000000000000000000000000000000000000000000600052601160045260246000fd5b6000610fbe82610a10565b9150610fc983610a10565b9250828203905081811115610fe157610fe0610f84565b5b92915050565b600060808201905081810360008301526110018187610ab9565b90506110106020830186610af2565b61101d6040830185610b2b565b61102a6060830184610af2565b95945050505050565b7f426174636820696e646578206f7574206f6620626f756e647300000000000000600082015250565b6000611069601983610bbd565b915061107482611033565b602082019050919050565b600060208201905081810360008301526110988161105c565b9050919050565b7f4e487b7100000000000000000000000000000000000000000000000000000000600052603260045260246000fd5b7f426174636820616c72656164792066696e616c697a6564000000000000000000600082015250565b6000611104601783610bbd565b915061110f826110ce565b602082019050919050565b60006020820190508181036000830152611133816110f7565b9050919050565b600061114582610a10565b915061115083610a10565b925082820190508082111561116857611167610f84565b5b92915050565b7f4368616c6c656e676520706572696f64206e6f74206f76657200000000000000600082015250565b60006111a4601983610bbd565b91506111af8261116e565b602082019050919050565b600060208201905081810360008301526111d381611197565b905091905056fea26469706673582212205b7cca4696580e30a20d5d28d2754e319ac9b9d8b63deea9e87bc14bacafedf764736f6c63430008130033",
  "immutableReferences": {},
  "source": "// SPDX-License-Identifier: MIT\r\npragma solidity >=0.4.22 <0.9.0;\r\n\r\ncontract StateCommitmentChain {\r\n    struct BatchInfo {\r\n        bytes batchData;\r\n        bytes32 stateRoot;\r\n        uint256 timestamp;\r\n        bool finalized;\r\n        address proposer;\r\n        bytes32 batchId;\r\n    }\r\n\r\n    BatchInfo[] public batches;\r\n    uint256 public challengePeriod = 10 minutes;\r\n\r\n    event StateBatchAppended(uint256 indexed batchIndex, bytes batchData, bytes32 stateRoot, address proposer, bytes32 batchId);\r\n    event StateBatchFinalized(uint256 indexed batchIndex);\r\n\r\n    constructor() {}\r\n\r\n    function appendStateBatch(bytes memory _calldata, bytes32 _stateRoot, address _proposer, bytes32 _batchId) public {\r\n        require(_calldata.length > 0, \"Calldata cannot be empty\");\r\n        require(_proposer != address(0), \"Proposer address cannot be zero\");\r\n\r\n        BatchInfo memory newBatch = BatchInfo({\r\n            batchData: _calldata,\r\n            stateRoot: _stateRoot,\r\n            timestamp: block.timestamp,\r\n            finalized: false,\r\n            proposer: _proposer,\r\n            batchId: _batchId\r\n        });\r\n\r\n        batches.push(newBatch);\r\n\r\n        emit StateBatchAppended(batches.length - 1, _calldata, _stateRoot, _proposer, _batchId);\r\n    }\r\n\r\n    function finalizeBatch(uint256 _batchIndex) public {\r\n        require(!batches[_batchIndex].finalized, \"Batch already finalized\");\r\n        require(block.timestamp >= batches[_batchIndex].timestamp + challengePeriod, \"Challenge period not over\");\r\n\r\n        batches[_batchIndex].finalized = true;\r\n        emit StateBatchFinalized(_batchIndex);\r\n    }\r\n\r\n    function getBatchCount() public view returns (uint256) {\r\n        return batches.length;\r\n    }\r\n\r\n    function getBatch(uint256 _index) public view returns (bytes memory batchData, bytes32 stateRoot, uint256 timestamp, bool finalized, address proposer, bytes32 batchId) {\r\n        require(_index < batches.length, \"Batch index out of bounds\");\r\n        BatchInfo memory batch = batches[_index];\r\n        return (batch.batchData, batch.stateRoot, batch.timestamp, batch.finalized, batch.proposer, batch.batchId);\r\n    }\r\n}",
  "sourcePath": "C:\\Users\\Jaewon.DESKTOP-OT1V5PK\\Desktop\\project\\rollup\\contracts\\StateCommitmentChain.sol",
  "compiler": {
    "name": "solc",
    "version": "0.8.19+commit.7dd6d404.Emscripten.clang"
  },
  "schemaVersion": "3.4.16",
  "updatedAt": "2024-06-30T09:49:15.872Z",
  "networkType": "ethereum",
  "devdoc": {
    "kind": "dev",
    "methods": {},
    "version": 1
  },
  "userdoc": {
    "kind": "user",
    "methods": {},
    "version": 1
  }
}